{
  "address": "0x79430fa0f9667C3D13EdC77eCb64497b14f76A92",
  "abi": [
    {
      "inputs": [
        {
          "internalType": "contract IPollFactory",
          "name": "_pollFactory",
          "type": "address"
        },
        {
          "internalType": "contract IMessageProcessorFactory",
          "name": "_messageProcessorFactory",
          "type": "address"
        },
        {
          "internalType": "contract ITallyFactory",
          "name": "_tallyFactory",
          "type": "address"
        },
        {
          "internalType": "contract SignUpGatekeeper",
          "name": "_signUpGatekeeper",
          "type": "address"
        },
        {
          "internalType": "contract InitialVoiceCreditProxy",
          "name": "_initialVoiceCreditProxy",
          "type": "address"
        },
        {
          "internalType": "uint8",
          "name": "_stateTreeDepth",
          "type": "uint8"
        },
        {
          "internalType": "uint256[5]",
          "name": "_emptyBallotRoots",
          "type": "uint256[5]"
        }
      ],
      "stateMutability": "nonpayable",
      "type": "constructor"
    },
    {
      "inputs": [],
      "name": "DefaultZeroBadIndex",
      "type": "error"
    },
    {
      "inputs": [],
      "name": "DepthTooLarge",
      "type": "error"
    },
    {
      "inputs": [],
      "name": "InvalidMessage",
      "type": "error"
    },
    {
      "inputs": [],
      "name": "InvalidPubKey",
      "type": "error"
    },
    {
      "inputs": [],
      "name": "NumberOfLeavesCannotBeZero",
      "type": "error"
    },
    {
      "inputs": [
        {
          "internalType": "address",
          "name": "owner",
          "type": "address"
        }
      ],
      "name": "OwnableInvalidOwner",
      "type": "error"
    },
    {
      "inputs": [
        {
          "internalType": "address",
          "name": "account",
          "type": "address"
        }
      ],
      "name": "OwnableUnauthorizedAccount",
      "type": "error"
    },
    {
      "inputs": [
        {
          "internalType": "address",
          "name": "_poll",
          "type": "address"
        }
      ],
      "name": "PollAddressDoesNotExist",
      "type": "error"
    },
    {
      "inputs": [
        {
          "internalType": "uint256",
          "name": "pollId",
          "type": "uint256"
        }
      ],
      "name": "PollDoesNotExist",
      "type": "error"
    },
    {
      "inputs": [],
      "name": "PoseidonHashLibrariesNotLinked",
      "type": "error"
    },
    {
      "inputs": [],
      "name": "PubKeyAlreadyRegistered",
      "type": "error"
    },
    {
      "inputs": [],
      "name": "TooManySignups",
      "type": "error"
    },
    {
      "anonymous": false,
      "inputs": [
        {
          "indexed": false,
          "internalType": "uint256",
          "name": "_pollId",
          "type": "uint256"
        },
        {
          "indexed": true,
          "internalType": "uint256",
          "name": "_coordinatorPubKeyX",
          "type": "uint256"
        },
        {
          "indexed": true,
          "internalType": "uint256",
          "name": "_coordinatorPubKeyY",
          "type": "uint256"
        },
        {
          "indexed": false,
          "internalType": "enum DomainObjs.Mode",
          "name": "_mode",
          "type": "uint8"
        }
      ],
      "name": "DeployPoll",
      "type": "event"
    },
    {
      "anonymous": false,
      "inputs": [
        {
          "indexed": true,
          "internalType": "address",
          "name": "previousOwner",
          "type": "address"
        },
        {
          "indexed": true,
          "internalType": "address",
          "name": "newOwner",
          "type": "address"
        }
      ],
      "name": "OwnershipTransferred",
      "type": "event"
    },
    {
      "anonymous": false,
      "inputs": [
        {
          "indexed": true,
          "internalType": "uint256",
          "name": "pollId",
          "type": "uint256"
        },
        {
          "indexed": true,
          "internalType": "address",
          "name": "creator",
          "type": "address"
        },
        {
          "components": [
            {
              "internalType": "address",
              "name": "poll",
              "type": "address"
            },
            {
              "internalType": "address",
              "name": "messageProcessor",
              "type": "address"
            },
            {
              "internalType": "address",
              "name": "tally",
              "type": "address"
            }
          ],
          "indexed": false,
          "internalType": "struct MACI.PollContracts",
          "name": "pollContracts",
          "type": "tuple"
        },
        {
          "indexed": false,
          "internalType": "string",
          "name": "name",
          "type": "string"
        },
        {
          "indexed": false,
          "internalType": "string[]",
          "name": "options",
          "type": "string[]"
        },
        {
          "indexed": false,
          "internalType": "string",
          "name": "metadata",
          "type": "string"
        },
        {
          "indexed": false,
          "internalType": "uint256",
          "name": "startTime",
          "type": "uint256"
        },
        {
          "indexed": false,
          "internalType": "uint256",
          "name": "endTime",
          "type": "uint256"
        }
      ],
      "name": "PollCreated",
      "type": "event"
    },
    {
      "anonymous": false,
      "inputs": [
        {
          "indexed": true,
          "internalType": "uint256",
          "name": "pollId",
          "type": "uint256"
        },
        {
          "indexed": false,
          "internalType": "string",
          "name": "tallyJsonCID",
          "type": "string"
        }
      ],
      "name": "PollTallyCIDUpdated",
      "type": "event"
    },
    {
      "anonymous": false,
      "inputs": [
        {
          "indexed": false,
          "internalType": "uint256",
          "name": "_stateIndex",
          "type": "uint256"
        },
        {
          "indexed": true,
          "internalType": "uint256",
          "name": "_userPubKeyX",
          "type": "uint256"
        },
        {
          "indexed": true,
          "internalType": "uint256",
          "name": "_userPubKeyY",
          "type": "uint256"
        },
        {
          "indexed": false,
          "internalType": "uint256",
          "name": "_voiceCreditBalance",
          "type": "uint256"
        },
        {
          "indexed": false,
          "internalType": "uint256",
          "name": "_timestamp",
          "type": "uint256"
        }
      ],
      "name": "SignUp",
      "type": "event"
    },
    {
      "inputs": [],
      "name": "MESSAGE_DATA_LENGTH",
      "outputs": [
        {
          "internalType": "uint8",
          "name": "",
          "type": "uint8"
        }
      ],
      "stateMutability": "view",
      "type": "function"
    },
    {
      "inputs": [],
      "name": "coordinatorPubKey",
      "outputs": [
        {
          "internalType": "uint256",
          "name": "x",
          "type": "uint256"
        },
        {
          "internalType": "uint256",
          "name": "y",
          "type": "uint256"
        }
      ],
      "stateMutability": "view",
      "type": "function"
    },
    {
      "inputs": [
        {
          "internalType": "string",
          "name": "_name",
          "type": "string"
        },
        {
          "internalType": "string[]",
          "name": "_options",
          "type": "string[]"
        },
        {
          "internalType": "string",
          "name": "_metadata",
          "type": "string"
        },
        {
          "internalType": "uint256",
          "name": "_duration",
          "type": "uint256"
        },
        {
          "internalType": "enum DomainObjs.Mode",
          "name": "isQv",
          "type": "uint8"
        }
      ],
      "name": "createPoll",
      "outputs": [],
      "stateMutability": "nonpayable",
      "type": "function"
    },
    {
      "inputs": [
        {
          "internalType": "uint256",
          "name": "_duration",
          "type": "uint256"
        },
        {
          "components": [
            {
              "internalType": "uint8",
              "name": "intStateTreeDepth",
              "type": "uint8"
            },
            {
              "internalType": "uint8",
              "name": "messageTreeSubDepth",
              "type": "uint8"
            },
            {
              "internalType": "uint8",
              "name": "messageTreeDepth",
              "type": "uint8"
            },
            {
              "internalType": "uint8",
              "name": "voteOptionTreeDepth",
              "type": "uint8"
            }
          ],
          "internalType": "struct Params.TreeDepths",
          "name": "_treeDepths",
          "type": "tuple"
        },
        {
          "components": [
            {
              "internalType": "uint256",
              "name": "x",
              "type": "uint256"
            },
            {
              "internalType": "uint256",
              "name": "y",
              "type": "uint256"
            }
          ],
          "internalType": "struct DomainObjs.PubKey",
          "name": "_coordinatorPubKey",
          "type": "tuple"
        },
        {
          "internalType": "address",
          "name": "_verifier",
          "type": "address"
        },
        {
          "internalType": "address",
          "name": "_vkRegistry",
          "type": "address"
        },
        {
          "internalType": "enum DomainObjs.Mode",
          "name": "_mode",
          "type": "uint8"
        }
      ],
      "name": "deployPoll",
      "outputs": [],
      "stateMutability": "nonpayable",
      "type": "function"
    },
    {
      "inputs": [
        {
          "internalType": "uint256",
          "name": "",
          "type": "uint256"
        }
      ],
      "name": "emptyBallotRoots",
      "outputs": [
        {
          "internalType": "uint256",
          "name": "",
          "type": "uint256"
        }
      ],
      "stateMutability": "view",
      "type": "function"
    },
    {
      "inputs": [
        {
          "internalType": "uint256",
          "name": "_pollId",
          "type": "uint256"
        }
      ],
      "name": "fetchPoll",
      "outputs": [
        {
          "components": [
            {
              "internalType": "uint256",
              "name": "id",
              "type": "uint256"
            },
            {
              "internalType": "string",
              "name": "name",
              "type": "string"
            },
            {
              "internalType": "bytes",
              "name": "encodedOptions",
              "type": "bytes"
            },
            {
              "internalType": "string",
              "name": "metadata",
              "type": "string"
            },
            {
              "components": [
                {
                  "internalType": "address",
                  "name": "poll",
                  "type": "address"
                },
                {
                  "internalType": "address",
                  "name": "messageProcessor",
                  "type": "address"
                },
                {
                  "internalType": "address",
                  "name": "tally",
                  "type": "address"
                }
              ],
              "internalType": "struct MACI.PollContracts",
              "name": "pollContracts",
              "type": "tuple"
            },
            {
              "internalType": "uint256",
              "name": "startTime",
              "type": "uint256"
            },
            {
              "internalType": "uint256",
              "name": "endTime",
              "type": "uint256"
            },
            {
              "internalType": "uint256",
              "name": "numOfOptions",
              "type": "uint256"
            },
            {
              "internalType": "string[]",
              "name": "options",
              "type": "string[]"
            },
            {
              "internalType": "string",
              "name": "tallyJsonCID",
              "type": "string"
            }
          ],
          "internalType": "struct MACIWrapper.PollData",
          "name": "poll_",
          "type": "tuple"
        }
      ],
      "stateMutability": "view",
      "type": "function"
    },
    {
      "inputs": [
        {
          "internalType": "uint256",
          "name": "_page",
          "type": "uint256"
        },
        {
          "internalType": "uint256",
          "name": "_perPage",
          "type": "uint256"
        },
        {
          "internalType": "bool",
          "name": "_ascending",
          "type": "bool"
        }
      ],
      "name": "fetchPolls",
      "outputs": [
        {
          "components": [
            {
              "internalType": "uint256",
              "name": "id",
              "type": "uint256"
            },
            {
              "internalType": "string",
              "name": "name",
              "type": "string"
            },
            {
              "internalType": "bytes",
              "name": "encodedOptions",
              "type": "bytes"
            },
            {
              "internalType": "string",
              "name": "metadata",
              "type": "string"
            },
            {
              "components": [
                {
                  "internalType": "address",
                  "name": "poll",
                  "type": "address"
                },
                {
                  "internalType": "address",
                  "name": "messageProcessor",
                  "type": "address"
                },
                {
                  "internalType": "address",
                  "name": "tally",
                  "type": "address"
                }
              ],
              "internalType": "struct MACI.PollContracts",
              "name": "pollContracts",
              "type": "tuple"
            },
            {
              "internalType": "uint256",
              "name": "startTime",
              "type": "uint256"
            },
            {
              "internalType": "uint256",
              "name": "endTime",
              "type": "uint256"
            },
            {
              "internalType": "uint256",
              "name": "numOfOptions",
              "type": "uint256"
            },
            {
              "internalType": "string[]",
              "name": "options",
              "type": "string[]"
            },
            {
              "internalType": "string",
              "name": "tallyJsonCID",
              "type": "string"
            }
          ],
          "internalType": "struct MACIWrapper.PollData[]",
          "name": "polls_",
          "type": "tuple[]"
        }
      ],
      "stateMutability": "view",
      "type": "function"
    },
    {
      "inputs": [
        {
          "internalType": "uint256",
          "name": "_pollId",
          "type": "uint256"
        }
      ],
      "name": "getPoll",
      "outputs": [
        {
          "components": [
            {
              "internalType": "address",
              "name": "poll",
              "type": "address"
            },
            {
              "internalType": "address",
              "name": "messageProcessor",
              "type": "address"
            },
            {
              "internalType": "address",
              "name": "tally",
              "type": "address"
            }
          ],
          "internalType": "struct MACI.PollContracts",
          "name": "pollContracts",
          "type": "tuple"
        }
      ],
      "stateMutability": "view",
      "type": "function"
    },
    {
      "inputs": [
        {
          "internalType": "address",
          "name": "_poll",
          "type": "address"
        }
      ],
      "name": "getPollId",
      "outputs": [
        {
          "internalType": "uint256",
          "name": "pollId",
          "type": "uint256"
        }
      ],
      "stateMutability": "view",
      "type": "function"
    },
    {
      "inputs": [],
      "name": "getStateTreeRoot",
      "outputs": [
        {
          "internalType": "uint256",
          "name": "root",
          "type": "uint256"
        }
      ],
      "stateMutability": "view",
      "type": "function"
    },
    {
      "inputs": [
        {
          "internalType": "uint256[2]",
          "name": "array",
          "type": "uint256[2]"
        }
      ],
      "name": "hash2",
      "outputs": [
        {
          "internalType": "uint256",
          "name": "result",
          "type": "uint256"
        }
      ],
      "stateMutability": "pure",
      "type": "function"
    },
    {
      "inputs": [
        {
          "internalType": "uint256[3]",
          "name": "array",
          "type": "uint256[3]"
        }
      ],
      "name": "hash3",
      "outputs": [
        {
          "internalType": "uint256",
          "name": "result",
          "type": "uint256"
        }
      ],
      "stateMutability": "pure",
      "type": "function"
    },
    {
      "inputs": [
        {
          "internalType": "uint256[4]",
          "name": "array",
          "type": "uint256[4]"
        }
      ],
      "name": "hash4",
      "outputs": [
        {
          "internalType": "uint256",
          "name": "result",
          "type": "uint256"
        }
      ],
      "stateMutability": "pure",
      "type": "function"
    },
    {
      "inputs": [
        {
          "internalType": "uint256[5]",
          "name": "array",
          "type": "uint256[5]"
        }
      ],
      "name": "hash5",
      "outputs": [
        {
          "internalType": "uint256",
          "name": "result",
          "type": "uint256"
        }
      ],
      "stateMutability": "pure",
      "type": "function"
    },
    {
      "inputs": [
        {
          "internalType": "uint256",
          "name": "left",
          "type": "uint256"
        },
        {
          "internalType": "uint256",
          "name": "right",
          "type": "uint256"
        }
      ],
      "name": "hashLeftRight",
      "outputs": [
        {
          "internalType": "uint256",
          "name": "result",
          "type": "uint256"
        }
      ],
      "stateMutability": "pure",
      "type": "function"
    },
    {
      "inputs": [
        {
          "components": [
            {
              "internalType": "uint256[10]",
              "name": "data",
              "type": "uint256[10]"
            }
          ],
          "internalType": "struct DomainObjs.Message",
          "name": "_message",
          "type": "tuple"
        },
        {
          "components": [
            {
              "internalType": "uint256",
              "name": "x",
              "type": "uint256"
            },
            {
              "internalType": "uint256",
              "name": "y",
              "type": "uint256"
            }
          ],
          "internalType": "struct DomainObjs.PubKey",
          "name": "_encPubKey",
          "type": "tuple"
        }
      ],
      "name": "hashMessageAndEncPubKey",
      "outputs": [
        {
          "internalType": "uint256",
          "name": "msgHash",
          "type": "uint256"
        }
      ],
      "stateMutability": "pure",
      "type": "function"
    },
    {
      "inputs": [
        {
          "components": [
            {
              "components": [
                {
                  "internalType": "uint256",
                  "name": "x",
                  "type": "uint256"
                },
                {
                  "internalType": "uint256",
                  "name": "y",
                  "type": "uint256"
                }
              ],
              "internalType": "struct DomainObjs.PubKey",
              "name": "pubKey",
              "type": "tuple"
            },
            {
              "internalType": "uint256",
              "name": "voiceCreditBalance",
              "type": "uint256"
            },
            {
              "internalType": "uint256",
              "name": "timestamp",
              "type": "uint256"
            }
          ],
          "internalType": "struct DomainObjs.StateLeaf",
          "name": "_stateLeaf",
          "type": "tuple"
        }
      ],
      "name": "hashStateLeaf",
      "outputs": [
        {
          "internalType": "uint256",
          "name": "ciphertext",
          "type": "uint256"
        }
      ],
      "stateMutability": "pure",
      "type": "function"
    },
    {
      "inputs": [],
      "name": "initialVoiceCreditProxy",
      "outputs": [
        {
          "internalType": "contract InitialVoiceCreditProxy",
          "name": "",
          "type": "address"
        }
      ],
      "stateMutability": "view",
      "type": "function"
    },
    {
      "inputs": [
        {
          "internalType": "uint256",
          "name": "",
          "type": "uint256"
        },
        {
          "internalType": "uint256",
          "name": "",
          "type": "uint256"
        }
      ],
      "name": "isPublicKeyRegistered",
      "outputs": [
        {
          "internalType": "bool",
          "name": "",
          "type": "bool"
        }
      ],
      "stateMutability": "view",
      "type": "function"
    },
    {
      "inputs": [],
      "name": "lazyIMTData",
      "outputs": [
        {
          "internalType": "uint40",
          "name": "maxIndex",
          "type": "uint40"
        },
        {
          "internalType": "uint40",
          "name": "numberOfLeaves",
          "type": "uint40"
        }
      ],
      "stateMutability": "view",
      "type": "function"
    },
    {
      "inputs": [],
      "name": "maxSignups",
      "outputs": [
        {
          "internalType": "uint256",
          "name": "",
          "type": "uint256"
        }
      ],
      "stateMutability": "view",
      "type": "function"
    },
    {
      "inputs": [],
      "name": "messageProcessorFactory",
      "outputs": [
        {
          "internalType": "contract IMessageProcessorFactory",
          "name": "",
          "type": "address"
        }
      ],
      "stateMutability": "view",
      "type": "function"
    },
    {
      "inputs": [],
      "name": "nextPollId",
      "outputs": [
        {
          "internalType": "uint256",
          "name": "",
          "type": "uint256"
        }
      ],
      "stateMutability": "view",
      "type": "function"
    },
    {
      "inputs": [],
      "name": "numSignUps",
      "outputs": [
        {
          "internalType": "uint256",
          "name": "signUps",
          "type": "uint256"
        }
      ],
      "stateMutability": "view",
      "type": "function"
    },
    {
      "inputs": [],
      "name": "owner",
      "outputs": [
        {
          "internalType": "address",
          "name": "",
          "type": "address"
        }
      ],
      "stateMutability": "view",
      "type": "function"
    },
    {
      "inputs": [
        {
          "internalType": "uint256[2]",
          "name": "dataToPad",
          "type": "uint256[2]"
        }
      ],
      "name": "padAndHashMessage",
      "outputs": [
        {
          "components": [
            {
              "internalType": "uint256[10]",
              "name": "data",
              "type": "uint256[10]"
            }
          ],
          "internalType": "struct DomainObjs.Message",
          "name": "message",
          "type": "tuple"
        },
        {
          "components": [
            {
              "internalType": "uint256",
              "name": "x",
              "type": "uint256"
            },
            {
              "internalType": "uint256",
              "name": "y",
              "type": "uint256"
            }
          ],
          "internalType": "struct DomainObjs.PubKey",
          "name": "padKey",
          "type": "tuple"
        },
        {
          "internalType": "uint256",
          "name": "msgHash",
          "type": "uint256"
        }
      ],
      "stateMutability": "pure",
      "type": "function"
    },
    {
      "inputs": [],
      "name": "pollFactory",
      "outputs": [
        {
          "internalType": "contract IPollFactory",
          "name": "",
          "type": "address"
        }
      ],
      "stateMutability": "view",
      "type": "function"
    },
    {
      "inputs": [
        {
          "internalType": "address",
          "name": "",
          "type": "address"
        }
      ],
      "name": "pollIds",
      "outputs": [
        {
          "internalType": "uint256",
          "name": "",
          "type": "uint256"
        }
      ],
      "stateMutability": "view",
      "type": "function"
    },
    {
      "inputs": [
        {
          "internalType": "uint256",
          "name": "",
          "type": "uint256"
        }
      ],
      "name": "polls",
      "outputs": [
        {
          "internalType": "address",
          "name": "poll",
          "type": "address"
        },
        {
          "internalType": "address",
          "name": "messageProcessor",
          "type": "address"
        },
        {
          "internalType": "address",
          "name": "tally",
          "type": "address"
        }
      ],
      "stateMutability": "view",
      "type": "function"
    },
    {
      "inputs": [],
      "name": "renounceOwnership",
      "outputs": [],
      "stateMutability": "nonpayable",
      "type": "function"
    },
    {
      "inputs": [
        {
          "components": [
            {
              "internalType": "uint8",
              "name": "intStateTreeDepth",
              "type": "uint8"
            },
            {
              "internalType": "uint8",
              "name": "messageTreeSubDepth",
              "type": "uint8"
            },
            {
              "internalType": "uint8",
              "name": "messageTreeDepth",
              "type": "uint8"
            },
            {
              "internalType": "uint8",
              "name": "voteOptionTreeDepth",
              "type": "uint8"
            }
          ],
          "internalType": "struct Params.TreeDepths",
          "name": "_treeDepths",
          "type": "tuple"
        },
        {
          "components": [
            {
              "internalType": "uint256",
              "name": "x",
              "type": "uint256"
            },
            {
              "internalType": "uint256",
              "name": "y",
              "type": "uint256"
            }
          ],
          "internalType": "struct DomainObjs.PubKey",
          "name": "_coordinatorPubKey",
          "type": "tuple"
        },
        {
          "internalType": "address",
          "name": "_verifier",
          "type": "address"
        },
        {
          "internalType": "address",
          "name": "_vkRegistry",
          "type": "address"
        }
      ],
      "name": "setConfig",
      "outputs": [],
      "stateMutability": "nonpayable",
      "type": "function"
    },
    {
      "inputs": [
        {
          "internalType": "uint256[]",
          "name": "array",
          "type": "uint256[]"
        }
      ],
      "name": "sha256Hash",
      "outputs": [
        {
          "internalType": "uint256",
          "name": "result",
          "type": "uint256"
        }
      ],
      "stateMutability": "pure",
      "type": "function"
    },
    {
      "inputs": [
        {
          "components": [
            {
              "internalType": "uint256",
              "name": "x",
              "type": "uint256"
            },
            {
              "internalType": "uint256",
              "name": "y",
              "type": "uint256"
            }
          ],
          "internalType": "struct DomainObjs.PubKey",
          "name": "_pubKey",
          "type": "tuple"
        },
        {
          "internalType": "bytes",
          "name": "_signUpGatekeeperData",
          "type": "bytes"
        },
        {
          "internalType": "bytes",
          "name": "_initialVoiceCreditProxyData",
          "type": "bytes"
        }
      ],
      "name": "signUp",
      "outputs": [],
      "stateMutability": "nonpayable",
      "type": "function"
    },
    {
      "inputs": [],
      "name": "signUpGatekeeper",
      "outputs": [
        {
          "internalType": "contract SignUpGatekeeper",
          "name": "",
          "type": "address"
        }
      ],
      "stateMutability": "view",
      "type": "function"
    },
    {
      "inputs": [],
      "name": "stateTreeDepth",
      "outputs": [
        {
          "internalType": "uint8",
          "name": "",
          "type": "uint8"
        }
      ],
      "stateMutability": "view",
      "type": "function"
    },
    {
      "inputs": [],
      "name": "tallyFactory",
      "outputs": [
        {
          "internalType": "contract ITallyFactory",
          "name": "",
          "type": "address"
        }
      ],
      "stateMutability": "view",
      "type": "function"
    },
    {
      "inputs": [
        {
          "internalType": "address",
          "name": "newOwner",
          "type": "address"
        }
      ],
      "name": "transferOwnership",
      "outputs": [],
      "stateMutability": "nonpayable",
      "type": "function"
    },
    {
      "inputs": [],
      "name": "treeDepths",
      "outputs": [
        {
          "internalType": "uint8",
          "name": "intStateTreeDepth",
          "type": "uint8"
        },
        {
          "internalType": "uint8",
          "name": "messageTreeSubDepth",
          "type": "uint8"
        },
        {
          "internalType": "uint8",
          "name": "messageTreeDepth",
          "type": "uint8"
        },
        {
          "internalType": "uint8",
          "name": "voteOptionTreeDepth",
          "type": "uint8"
        }
      ],
      "stateMutability": "view",
      "type": "function"
    },
    {
      "inputs": [
        {
          "internalType": "uint256",
          "name": "_pollId",
          "type": "uint256"
        },
        {
          "internalType": "string",
          "name": "_tallyJsonCID",
          "type": "string"
        }
      ],
      "name": "updatePollTallyCID",
      "outputs": [],
      "stateMutability": "nonpayable",
      "type": "function"
    },
    {
      "inputs": [],
      "name": "verifier",
      "outputs": [
        {
          "internalType": "address",
          "name": "",
          "type": "address"
        }
      ],
      "stateMutability": "view",
      "type": "function"
    },
    {
      "inputs": [],
      "name": "vkRegistry",
      "outputs": [
        {
          "internalType": "address",
          "name": "",
          "type": "address"
        }
      ],
      "stateMutability": "view",
      "type": "function"
    }
  ],
  "transactionHash": "0x9029b68689d72ac843a1f380eb405df153792deed11025e52f3c78b62fda1fe2",
  "args": [
    "0xCB8DC6bfd94f99dda7071e41F6a02c149368D395",
    "0x410FBECd817c6f9FeC3C7d184aa83C66d132dD4F",
    "0x9C6d9F8a10Af92EFf70DBF8EdA0dB2929D7f0c06",
    "0xa0672Ca353885B5752F90db3a7606E3b88f74440",
    "0x8673e5370C11190680DF534543c74baaEF5a7F9F",
    10,
    [
      "16015576667038038422103932363190100635991292382181099511410843174865570503661",
      "166510078825589460025300915201657086611944528317298994959376081297530246971",
      "10057734083972610459557695472359628128485394923403014377687504571662791937025",
      "4904828619307091008204672239231377290495002626534171783829482835985709082773",
      "18694062287284245784028624966421731916526814537891066525886866373016385890569"
    ]
  ],
  "numDeployments": 1,
  "solcInputHash": "dd8d8eaedcc06343d50cdb2d2261f582",
  "bytecode": "0x6101608060405234620004d25762003ea2803803809162000021828562000509565b83398101610160918281830312620004d2578051906001600160a01b038083168303620004d2576020820151938185168503620004d2576040830151928284168403620004d2576060810151908382168203620004d2576080810151928484168403620004d25760a08201519860ff8a168a03620004d2578160df84011215620004d2576040519260a084016001600160401b03811185821017620004d75760405283918101928311620004d25760c001905b828210620004c157505050602060ff891611620004af57600160ff89161b6000198101908111620002c55764ffffffffff1660018060501b031960075416179764ffffffffff8960281c1697600189019964ffffffffff8b11620002c55760288b901b69ffffffffff00000000001617600755889760007f0ef71f46e11a513c599eed9dd03576c33439bcfb1cee155316f90541e41649ba5b64ffffffffff620001978c6200019160ff861664ff000000008760201b1662000594565b6200057a565b1660005260086020528060406000205560018b1615620002db5760001964ffffffffff8c160164ffffffffff8111620002c5576200023391620001ee6020926200019160ff871664ff0000000088871b1662000594565b9064ffffffffff604051926200020484620004ed565b1660005260088352604060002054825282820152604051809381926314d2f97b60e11b8352600483016200054a565b038173d94b9aE62067cE0A7703bcCCEF792DE74428B3485af4908115620002b95760009162000279575b5060019a8b1c647fffffffff169a9190910160ff16906200016d565b906020823d602011620002b0575b81620002966020938362000509565b81010312620002ad57505164ffffffffff6200025d565b80fd5b3d915062000287565b6040513d6000823e3d90fd5b634e487b7160e01b600052601160045260246000fd5b505060c05260e0526101009586526101209283526101409384526080819052620003089060ff166200052d565b60a05260005b600581106200049c5750506200035260206040516200032d81620004ed565b60018152600182820152604051809381926314d2f97b60e11b8352600483016200054a565b038173d94b9aE62067cE0A7703bcCCEF792DE74428B3485af4908115620002b95760009162000464575b501562000452573315620004395760098054336001600160a01b03198216811790925560405194167f8be0079c531659141344cd1fd0a4f28419497f9722a3daafe3b4186f6b6457e0600080a36138f59384620005ad853960805184610945015260a0518481816103b40152611925015260c0518481816116d40152612a0e015260e051848181611f800152612a84015251838181610aa00152612afa0152518281816119720152611f3d01525181818161064801526119f60152f35b604051631e4fbdf760e01b815260006004820152602490fd5b604051633d7ba68560e21b8152600490fd5b906020823d60201162000493575b81620004816020938362000509565b81010312620002ad575051856200037c565b3d915062000472565b600190602083519301928155016200030e565b604051633e104c7760e01b8152600490fd5b8151815260209182019101620000d4565b600080fd5b634e487b7160e01b600052604160045260246000fd5b604081019081106001600160401b03821117620004d757604052565b601f909101601f19168101906001600160401b03821190821017620004d757604052565b8015620005445760ff8111620002c5576001901b90565b50600190565b6040810192916000915b600283106200056257505050565b60019082518152602080910192019201919062000554565b91909164ffffffffff80809416911601918211620002c557565b64ffffffffff9182169082160391908211620002c55756fe608080604052600436101561001357600080fd5b600090813560e01c908163055575eb14611f6c57508063079410db14611f275780631096c30e14611ed0578063122db15314611ea857806313fb893214611e7f5780631a8cbcaa14611dfd5780631b6ef3c514611d715780632b78657114611d535780632b7ac3f314611d2a57806331e766a514611d055780633364120a146118a05780633364c4c814611703578063343393b5146116be5780633dfb88b214611666578063423f3e19146115ea57806346e47f9a146115835780634d5da86b14610c4d57806358bfc37914610b2e5780635bb9399514610afd57806362a361bb14610acf57806362b31f1e14610a8a57806364e0ece114610969578063652c76e41461092b578063683f3dc31461090f5780636b4575e21461083c578063715018a6146107de5780637d0a81c81461079c5780638a2a3dfb146107005780638da5cb5b146106d75780639cfced9714610677578063aab4a67014610632578063ac2f0074146105e3578063ac98e5df146105a1578063b686872014610571578063b87802c814610543578063bea140b314610442578063c8cf9ab214610409578063d7a71b9a146103d7578063df82635a1461039c578063edbfe83f146102715763f2fde38b146101e457600080fd5b3461026e57602036600319011261026e576101fd6122d9565b610205612332565b6001600160a01b0390811690811561025557600954826001600160601b0360a01b821617600955167f8be0079c531659141344cd1fd0a4f28419497f9722a3daafe3b4186f6b6457e0600080a380f35b604051631e4fbdf760e01b815260048101849052602490fd5b80fd5b503461026e57604036600319011261026e57366023121561026e57610295366122a1565b6040516102a181612194565b6040516102ad81612178565b610140918236833752604051906102c382612142565b8382528360208093015281604051936102db85612178565b8236863780518552015182840152604051906102f682612142565b7f171e826ad4a870fd925e0bf0e87884e70e080879c2205ef10114f28a3b6f6dd78252828201917f2bd407d897fbbca9f88adfd2d15252e69de8c1564eb4d3d27162e259172f1a1d83526040519461034d86612194565b85526103598186613801565b6040519551969094865b600a8310610387575050506101a09550519084015251610160830152610180820152f35b81806001928b51815201990192019197610363565b503461026e578060031936011261026e5760206040517f00000000000000000000000000000000000000000000000000000000000000008152f35b503461026e5760ff60406020926103ed3661231c565b9082526011855282822090825284522054166040519015158152f35b503461026e57602036600319011261026e576020906040906001600160a01b036104316122d9565b168152601083522054604051908152f35b503461026e57606036600319011261026e57366023121561026e576040519061046a82612111565b606482368211610500576004905b8282106105335750506040516304b98e1d60e31b81529283908390600483015b600383106105195750505060209181731911643B982B37779F1C1d65900FC424992400665af490811561050d57906104d6575b602090604051908152f35b506020813d8211610505575b816104ef602093836121ca565b8101031261050057602090516104cb565b600080fd5b3d91506104e2565b604051903d90823e3d90fd5b815181528693506001929092019160209182019101610498565b8135815260209182019101610478565b503461026e57602036600319011261026e57600435600581101561056d5760209054604051908152f35b5080fd5b503461026e578060031936011261026e57604060075481519064ffffffffff90818116835260281c166020820152f35b503461026e578060031936011261026e576080600b5460ff604051918181168352818160081c166020840152818160101c16604084015260181c166060820152f35b503461026e57602036600319011261026e576040606091600435815260066020522060018060a01b03908181541691600281600184015416920154169060405192835260208301526040820152f35b503461026e578060031936011261026e576040517f00000000000000000000000000000000000000000000000000000000000000006001600160a01b03168152602090f35b503461026e5760a036600319011261026e57366023121561026e5760405161069e816121af565b60a481368211610500576020926004905b8382106106c857846106c084612df1565b604051908152f35b813581529084019084016106af565b503461026e578060031936011261026e576009546040516001600160a01b039091168152602090f35b503461026e573660031901610180811261056d576101401361026e576040519061072982612194565b366023121561026e57506040519061074082612178565b8161014492368411610500576004905b84821061078c5750508152604036610143190112610500576020916106c0916040519161077c83612142565b3582526101643584830152613801565b8135815260209182019101610750565b503461026e57608036600319011261026e5760206106c06040516107bf81612111565b6107c8366121eb565b81526044358382015260643560408201526137c5565b503461026e578060031936011261026e576107f7612332565b600980546001600160a01b031981169091556000906001600160a01b03167f8be0079c531659141344cd1fd0a4f28419497f9722a3daafe3b4186f6b6457e08280a380f35b503461026e5761014036600319011261026e576080366023190112610500576040516108678161215d565b60243560ff8116810361050057815260443560ff8116810361050057602082015260643560ff8116810361050057604082015260843560ff8116810361050057606082015260403660a3190112610500576040516108c481612142565b60a435815260c43560208201526108d96122ef565b61010435906001600160a01b0382168203610500576101243592600284101561090b5761090894600435612952565b80f35b8580fd5b503461026e578060031936011261026e576020604051600a8152f35b503461026e578060031936011261026e57602060405160ff7f0000000000000000000000000000000000000000000000000000000000000000168152f35b503461026e573660031901610100811261056d57608013610500576040516109908161215d565b60043560ff811681036105005781526024359060ff8216820361050057602081019182526044359060ff8216820361050057604081019182526064359260ff8416840361050057606082019384526040366083190112610500576040516109f681612142565b6084358152602081019160a435835260c4359560018060a01b03958688168098036105005760ff610a256122ef565b96610a2e612332565b511663ff00000062ff000061ff00600b54965160081b16935160101b16935160181b169363ffffffff191617171717600b5551600c5551600d556001600160601b0360a01b9283600e541617600e551690600f541617600f5580f35b503461026e578060031936011261026e576040517f00000000000000000000000000000000000000000000000000000000000000006001600160a01b03168152602090f35b503461026e57604036600319011261026e57366023121561026e5760206106c0610af8366122a1565b612d04565b503461026e5760206106c0610b113661231c565b60405191610b1e83612142565b6040368437825283820152612d04565b503461026e576020908160031936011261026e576004356001600160401b03811161056d573660238201121561056d578060040135610b6c81612305565b91610b7a60405193846121ca565b8183528483016024819360051b8301019136831161090b5791869394916024879401905b828210610c3b57505050604051838101809251909590845b818110610c2257505050610bd881610be994959603601f1981018352826121ca565b604051928392839251928391611faf565b8101039060025afa1561050d577f30644e72e131a029b85045b68181585d2833e84879b9709143e1f593f0000001905106604051908152f35b8251885296860196899689965090920191600101610bb6565b81358152879450908501908501610b9e565b503461026e5760a036600319011261026e576004356001600160401b03811161056d57610c7e903690600401612274565b906001600160401b036024351161157f5736602360243501121561157f576001600160401b03602435600401351161157f5736602480356004013560051b813501011161157f576044356001600160401b03811161157b57610ce4903690600401612274565b91906002608435101561157757610cf9612332565b600554600e54600f54604051929592610d729290916001600160a01b039081169116610d248361215d565b60ff600b548181168552818160081c166020860152818160101c16604086015260181c166060840152604051610d5981612142565b600c548152600d54602082015260843593606435612952565b8386526006602052610d866040872061235e565b9260018060a01b038451168752601060205284604088205560405195602080880152610dd287610dc4604082016024356004013560248035016123b7565b03601f1981018952886121ca565b610dde60643542612440565b9660405190610dec82612178565b878252610dfa368486612213565b60208301526040820152610e0f368587612213565b60608201528560808201524260a08201528760c08201526024356004013560e0820152610e4160243560040135612305565b610e4e60405191826121ca565b602480356004810135835201602082015b602480356004013560051b813501018210611531575050610100820152604051610e8881612194565b898152610120820152868952600a60205260408920908051825560208101518051906001600160401b0382116113af578190610ed482610ecb600188015461244d565b6001880161249e565b602090601f83116001146114c2578d926114b7575b50508160011b916000199060031b1c19161760018301555b60408101518051906001600160401b0382116113af578190610f3382610f2a600288015461244d565b6002880161249e565b602090601f8311600114611448578d9261143d575b50508160011b916000199060031b1c19161760028301555b60608101518051906001600160401b0382116113af578190610f9282610f89600388015461244d565b6003880161249e565b602090601f83116001146113ce578d926113c3575b50508160011b916000199060031b1c19161760038301555b608081015180516004840180546001600160a01b03199081166001600160a01b039384161790915560208301516005860180548316918416919091179055604090920151600685018054909316911617905560a0810151600783015560c0810151600883015560e081015160098301556101008101518051906801000000000000000082116113af57600a84015482600a860155808310611334575b50602001600a84018c5260208c208c915b83831061123f575050505061012001518051906001600160401b03821161122b576110a78261109e600b86015461244d565b600b860161249e565b6020908b601f841160011461118d5793600b84611146957f7532e9985b123ef8bda3bc40b1a4296f34238889a58a41de23df560b8bfb9bc69c9b999561116d9b999561115f9992611182575b50508160011b916000199060031b1c1916179101555b6040805189516001600160a01b0390811682526020808c015182169083015299820151909916908901526101006060890152610100880191612396565b85810360808701526024356004013560248035016123b7565b9184830360a0860152612396565b934260c083015260e08201528033940390a380f35b0151905038806110f3565b5090600b84018c5260208c20918c5b601f1985168110611213575093600b6001857f7532e9985b123ef8bda3bc40b1a4296f34238889a58a41de23df560b8bfb9bc69c9b999561116d9b999561115f9961114699601f198116106111fa575b505050811b01910155611109565b015160001960f88460031b161c191690553880806111ec565b9192602060018192868501518155019401920161119c565b634e487b7160e01b8b52604160045260248bfd5b80518051906001600160401b03821161131f578f9061126883611262875461244d565b8761249e565b602091601f84116001146112b2579280602093600196938796926112a7575b5050600019600383901b1c191690841b1785555b0192019201919061106c565b015190503880611287565b919085835260208320925b601f1985168110611307575083602093600196938796938794601f198116106112ee575b505050811b01855561129b565b015160001960f88460031b161c191690553880806112e1565b919260206001819286850151815501940192016112bd565b50634e487b7160e01b8f52604160045260248ffd5b600a85018d5260208d20908382018e5b82840182106113555750505061105b565b90600191611363825461244d565b80611372575b5050018e611344565b601f8111841461138a575050600081555b8f38611369565b8282526113a5601f60208420920160051c8201858301612487565b6000835555611383565b634e487b7160e01b8c52604160045260248cfd5b015190503880610fa7565b9250600385018d5260208d20908d935b601f1984168510611422576001945083601f19811610611409575b505050811b016003830155610fbf565b015160001960f88460031b161c191690553880806113f9565b818101518355602094850194600190930192909101906113de565b015190503880610f48565b9250600285018d5260208d20908d935b601f198416851061149c576001945083601f19811610611483575b505050811b016002830155610f60565b015160001960f88460031b161c19169055388080611473565b81810151835560209485019460019093019290910190611458565b015190503880610ee9565b9250600185018d5260208d20908d935b601f1984168510611516576001945083601f198116106114fd575b505050811b016001830155610f01565b015160001960f88460031b161c191690553880806114ed565b818101518355602094850194600190930192909101906114d2565b81356001600160401b0381116115735760243501366043820112156115735760209161156883923690604460248201359101612213565b815201910190610e5f565b8c80fd5b8480fd5b8380fd5b8280fd5b503461026e57602036600319011261026e576001600160a01b036115a56122d9565b168082526010602052604082205460055411156115d2578160409160209352601083522054604051908152f35b6024906040519063e64d908d60e01b82526004820152fd5b503461026e578060031936011261026e5764ffffffffff908160075460281c16906001809381945b611623575b60206106c08686612e9f565b90919360ff80821691858486851b16101561165e5750811461164a57820193919081611612565b634e487b7160e01b85526011600452602485fd5b955050611617565b503461026e57608036600319011261026e57366023121561026e5760405161168d8161215d565b608481368211610500576020926004905b8382106116af57846106c084612d89565b8135815290840190840161169e565b503461026e578060031936011261026e576040517f00000000000000000000000000000000000000000000000000000000000000006001600160a01b03168152602090f35b503461026e57604036600319011261026e576004356001600160401b0360243581811161157b57611738903690600401612274565b9190611742612332565b60055484101561188757838552602091600a8352600b60408720019084116118735761177884611772835461244d565b8361249e565b85601f85116001146117eb57916117da91857f2cd30b9efd64638f847bef681e87dfbb567e261d02660c8166a92f33729ab33e96959489916117e0575b508560011b906000198760031b1c19161790555b604051938385948552840191612396565b0390a280f35b9050820135386117b5565b81875283872090601f198616885b81811061185c5750916117da9391877f2cd30b9efd64638f847bef681e87dfbb567e261d02660c8166a92f33729ab33e9897969410611842575b5050600185811b0190556117c9565b830135600019600388901b60f8161c191690553880611833565b9192866001819286890135815501940192016117f9565b634e487b7160e01b86526041600452602486fd5b60405163a86ecdd560e01b815260048101859052602490fd5b503461026e57608036600319011261026e576118bb366121eb565b6001600160401b039060443582811161157b576118dc903690600401612259565b606435838111611577576118f4903690600401612259565b90825185526011602052604085206020840151865260205260ff9384604087205416611cf35760075464ffffffffff7f00000000000000000000000000000000000000000000000000000000000000009160281c161015611ce15761195f8451602086015190612c65565b15611ccf576001600160a01b03918691907f0000000000000000000000000000000000000000000000000000000000000000841690813b1561157b5783916119be9160405195868094819363125c7dfb60e11b835233600484016128c0565b03925af18015611cc457611c9b575b50506119f291602091604051808095819463b36543a960e01b835233600484016128c0565b03917f0000000000000000000000000000000000000000000000000000000000000000165afa908115611c90578491611c5e575b50611a4a604051611a3681612111565b8381528260208201524260408201526137c5565b926007549364ffffffffff8560281c169060019586830164ffffffffff8111611c485769ffffffffff00000000009060281b169069ffffffffff00000000001916176007559085879173d94b9aE62067cE0A7703bcCCEF792DE74428B348915b611b36575b5050505050611ac964ffffffffff60075460281c166128e2565b7fd3c3cd829e4e37d5baaf10abace26b24e0046e20500c999380410f807edfcda0606084519260208601519464ffffffffff604051921682526020820152426040820152a38051835260116020526020604084209101518352602052604082209060ff1982541617905580f35b64ffffffffff611b5b82611b5688871664ff000000008860201b166128f9565b612e58565b168952600893846020528060408b205588821615611c4257611bca94602091611b8c611b86856128e2565b87612e71565b9164ffffffffff60405193611ba085612142565b168d52835260408c2054825282820152604051809681926314d2f97b60e11b835260048301612cd6565b0381855af4938415611c3757889486918b91611bf8575b5094938401169290811c647fffffffff1690611aaa565b955050506020843d602011611c2f575b81611c15602093836121ca565b81010312610500578488647fffffffff8196519150611be1565b3d9150611c08565b6040513d8b823e3d90fd5b50611aaf565b634e487b7160e01b600052601160045260246000fd5b90506020813d602011611c88575b81611c79602093836121ca565b81010312610500575138611a26565b3d9150611c6c565b6040513d86823e3d90fd5b8196929611611cb057604052938160206119cd565b634e487b7160e01b82526041600452602482fd5b6040513d89823e3d90fd5b6040516379fae7af60e01b8152600490fd5b60405163b984588b60e01b8152600490fd5b604051632e13e04560e01b8152600490fd5b503461026e578060031936011261026e576040600c54600d5482519182526020820152f35b503461026e578060031936011261026e57600e546040516001600160a01b039091168152602090f35b503461026e578060031936011261026e576020600554604051908152f35b503461026e57606036600319011261026e57604435801515810361056d57611d9e90602435600435612766565b60405190602092838301848452825180915260408401948060408360051b870101940192955b828710611dd15785850386f35b909192938280611ded600193603f198a82030186528851611ff7565b9601920196019592919092611dc4565b503461026e57602036600319011261026e57600435611e1a6124f2565b50600554811015611e6757604082611e3b926060945260066020522061235e565b6040805182516001600160a01b0390811682526020808501518216908301529282015190921690820152f35b6024906040519063a86ecdd560e01b82526004820152fd5b503461026e578060031936011261026e57600f546040516001600160a01b039091168152602090f35b503461026e578060031936011261026e57602064ffffffffff60075460281c16604051908152f35b503461026e57602036600319011261026e57600435611eed612511565b50600554811015611e6757604082611f0f92611f239452600a60205220612643565b604051918291602083526020830190611ff7565b0390f35b503461026e578060031936011261026e576040517f00000000000000000000000000000000000000000000000000000000000000006001600160a01b03168152602090f35b90503461056d578160031936011261056d577f00000000000000000000000000000000000000000000000000000000000000006001600160a01b03168152602090f35b60005b838110611fc25750506000910152565b8181015183820152602001611fb2565b90602091611feb81518092818552858086019101611faf565b601f01601f1916010190565b91908251815260209061204161202f61201d848701516101808087870152850190611fd2565b60408701518482036040860152611fd2565b60608601518382036060850152611fd2565b60808086015180516001600160a01b03908116928501929092526020810151821660a0850152604001511660c08301529360a081015160e083015260c081015190610100918284015260e08101519161012092838501528101519383870361014085015284518088528188019180808360051b8b01019701926000905b8382106120e45750505050506120e1949550015190610160818403910152611fd2565b90565b909192939783806121026001938e601f199082030186528c51611fd2565b9a0192019201909392916120be565b606081019081106001600160401b0382111761212c57604052565b634e487b7160e01b600052604160045260246000fd5b604081019081106001600160401b0382111761212c57604052565b608081019081106001600160401b0382111761212c57604052565b61014081019081106001600160401b0382111761212c57604052565b602081019081106001600160401b0382111761212c57604052565b60a081019081106001600160401b0382111761212c57604052565b90601f801991011681019081106001600160401b0382111761212c57604052565b6040906003190112610500576040519061220482612142565b60043582526024356020830152565b9291926001600160401b03821161212c576040519161223c601f8201601f1916602001846121ca565b829481845281830111610500578281602093846000960137010152565b9080601f83011215610500578160206120e193359101612213565b9181601f84011215610500578235916001600160401b038311610500576020838186019501011161050057565b90604051916122af83612142565b826044918211610500576004905b8282106122c957505050565b81358152602091820191016122bd565b600435906001600160a01b038216820361050057565b60e435906001600160a01b038216820361050057565b6001600160401b03811161212c5760051b60200190565b6040906003190112610500576004359060243590565b6009546001600160a01b0316330361234657565b60405163118cdaa760e01b8152336004820152602490fd5b9060405161236b81612111565b82546001600160a01b0390811682526001840154811660208301526002909301549092166040830152565b908060209392818452848401376000828201840152601f01601f1916010190565b9082818152602080910193818360051b82010194846000925b8584106123e1575050505050505090565b90919293949596601f198282030184528735601e19843603018112156105005783018681019190356001600160401b0381116105005780360383136105005761242f88928392600195612396565b9901940194019295949391906123d0565b91908201809211611c4857565b90600182811c9216801561247d575b602083101461246757565b634e487b7160e01b600052602260045260246000fd5b91607f169161245c565b818110612492575050565b60008155600101612487565b9190601f81116124ad57505050565b6124d9926000526020600020906020601f840160051c830193106124db575b601f0160051c0190612487565b565b90915081906124cc565b91908203918211611c4857565b604051906124ff82612111565b60006040838281528260208201520152565b6040519061251e82612178565b816000815261012060609182602082015282604082015282808201526125426124f2565b6080820152600060a0820152600060c0820152600060e0820152826101008201520152565b6000198114611c485760010190565b8051156125835760200190565b634e487b7160e01b600052603260045260246000fd5b80518210156125835760209160051b010190565b90600092918054916125be8361244d565b91828252600193848116908160001461262057506001146125e0575b50505050565b90919394506000526020928360002092846000945b83861061260c5750505050010190388080806125da565b8054858701830152940193859082016125f5565b9294505050602093945060ff191683830152151560051b010190388080806125da565b9060409182519061265382612178565b819381548352805160016126748261266d818488016125ad565b03836121ca565b6020918286015282516126958161268e81600289016125ad565b03826121ca565b8386015282516126ac8161268e81600389016125ad565b60608601526126bd6004850161235e565b6080860152600784015460a0860152600884015460c0860152600984015460e0860152600a84018054906126f082612305565b936126fd865195866121ca565b82855260009182528082208186015b8484106127445750505050505061012092612739859361274093610100600b9801525180968193016125ad565b03846121ca565b0152565b858381928a516127588161268e81896125ad565b81520192019301929061270c565b60001993928482019290918311611c485780830292808404821490151715611c48576127929083612440565b93808501948511611c4857849160055495868510156128a657861115612894575b6127bd84846124e5565b9060018201809211611c48576127d282612305565b926040926127e2845195866121ca565b8085526127f1601f1991612305565b0160005b81811061287d57505083976000965b86811115612816575050505050505050565b808415612861575b9061285c91600052600a602052612856866000209961284561283f82612567565b9b612643565b61284f828b612599565b5288612599565b50612567565b612804565b5061286c81836124e5565b90838201918211611c48579061281e565b602090612888612511565b828289010152016127f5565b9150808501858111611c4857916127b3565b505050505090506040516128b981612194565b6000815290565b6001600160a01b0390911681526040602082018190526120e192910190611fd2565b64ffffffffff9081166000190191908211611c4857565b64ffffffffff9182169082160391908211611c4857565b9081602091031261050057516001600160a01b03811681036105005790565b90600282101561293c5752565b634e487b7160e01b600052602160045260246000fd5b939194909294600554926001840160055581519560209761297889850198895190612c65565b15611ccf57606087019660ff8851166000198101908111611c485760058110156125835754604080516370f7b36160e01b81526004810195909552825160ff9081166024870152838d015181166044870152928101518316606486015298519091166084840152845160a4840152885160c48401523060e48401526101048301526000916001600160a01b03918a8261012481877f000000000000000000000000000000000000000000000000000000000000000088165af1918215612c5b578492612c3c575b508280808b5193633634487360e01b8552169687600485015216928360248401521691826044830152336064830152612a7b608483018961292f565b8b8260a48188887f0000000000000000000000000000000000000000000000000000000000000000165af1918215612c3257908492918692612c13575b508a519663431a717560e01b8852600488015260248701528260448701521692836064860152336084860152612af160a486018861292f565b8a8560c48184877f0000000000000000000000000000000000000000000000000000000000000000165af1948515612c07579189828d612bc79997957f38b2d18bb65cc91d7b436014cf44c8298b13bee60cc18d9e8efec26d1df318909d9c9b99979597612bca575b50918491600660029594835195612b7087612111565b8652808601988952848487019a168a528d83525220915116936001600160601b0360a01b9485835416178255836001830191511685825416179055019251169082541617905551955196845193845283019061292f565ba3565b819750916006612bf4879460029796943d8c11612c00575b612bec81836121ca565b810190612910565b98929495505091612b5a565b503d612be2565b508851903d90823e3d90fd5b612c2b9192508d803d10612c0057612bec81836121ca565b9038612ab8565b8a513d87823e3d90fd5b612c549192508b3d8d11612c0057612bec81836121ca565b9038612a3f565b89513d86823e3d90fd5b907f30644e72e131a029b85045b68181585d2833e84879b9709143e1f593f0000001808080858196099380098180828187620292fc090894620292f80909600108908082811115612cc3575b50600091612cbe916124e5565b081590565b9050828101809111611c48576000612cb1565b6040810192916000915b60028310612ced57505050565b600190825181526020809101920192019190612ce0565b6020612d2491604051809381926314d2f97b60e11b835260048301612cd6565b038173d94b9aE62067cE0A7703bcCCEF792DE74428B3485af4908115612d7d57600091612d4f575090565b906020823d8211612d75575b81612d68602093836121ca565b8101031261026e57505190565b3d9150612d5b565b6040513d6000823e3d90fd5b60405163248f667760e01b81529060049060008284015b838210612dda57505050506020816084817333764231F52fFF5fF2E2331E295ec8Ff67ffe8B85af4908115612d7d57600091612d4f575090565b600190835181526020809101930191019091612da0565b604051630926f44b60e31b815290600090600483015b60058310612e415750505060208160a4817370a6520eB5AAA0776f7f766Ff2D6eEa6CB3AAcF95af4908115612d7d57600091612d4f575090565b600190825181526020809101920192019190612e07565b91909164ffffffffff80809416911601918211611c4857565b90611b566120e19264ff0000000060ff82169160201b166128f9565b60ff60019116019060ff8211611c4857565b919060ff92838216916020908184116131d55764ffffffffff918284169182156131c457612ecd8891612e8d565b16612f04612eda82612305565b95604092612eea845198896121ca565b808852612ef9601f1991612305565b0136858901376128e2565b90600194858084161560001461318f575080831694818611611c48578695600052600885528260002054612f3789612576565b52999592995b6000935b612f5c575b50505050505050612f58929350612599565b5190565b86849a9998979a168881101561318457858c881661304b57612fb691612f8d865191612f8783612142565b8b612599565b518152612f99876131e7565b828201528551809381926314d2f97b60e11b835260048301612cd6565b038173d94b9aE62067cE0A7703bcCCEF792DE74428B3485af490811561304057600091613013575b509986647fffffffff829d8a9b9c9d613003849c86612ffc8c612e8d565b1690612599565b525b821c16950116939a96612f41565b908682813d8311613039575b61302981836121ca565b8101031261026e57505186612fde565b503d61301f565b84513d6000823e3d90fd5b5082828c61305888612e8d565b161c1690647fffffffff8d891c168092116000146130b357509986647fffffffff829d85613092849c9d9e9f61308d8b612e8d565b612e71565b166000526008895286600020546130ad8d86612ffc8c612e8d565b52613005565b61311191508690846130ce8f6130c8906128e2565b89612e71565b16600052600882526130f38660002054918751926130eb84612142565b83528b612599565b51828201528551809381926314d2f97b60e11b835260048301612cd6565b038173d94b9aE62067cE0A7703bcCCEF792DE74428B3485af490811561304057600091613157575b509986647fffffffff829d8a9b9c9d6130ad849c86612ffc8c612e8d565b908682813d831161317d575b61316d81836121ca565b8101031261026e57505186613139565b503d613163565b508697989950612f46565b947f0ef71f46e11a513c599eed9dd03576c33439bcfb1cee155316f90541e41649ba6131ba89612576565b5299959299612f3d565b9450505050506120e19192506131e7565b604051633e104c7760e01b8152600490fd5b60ff1680156137a0576001811461377b57600281146137565760038114613731576004811461370c57600581146136e757600681146136c2576007811461369d5760088114613678576009811461365357600a811461362e57600b811461360957600c81146135e457600d81146135bf57600e811461359a57600f81146135755760108114613550576011811461352b576012811461350657601381146134e157601481146134bc57601581146134975760168114613472576017811461344d5760188114613428576019811461340357601a81146133de57601b81146133b957601c811461339457601d811461336f57601e811461334a57601f811461332557602014613301576040516310a2ea0560e21b8152600490fd5b7f1d90601a0c76d2f39824f6dc198fb3b48cbd0231516c8f6208e56ea741c341f990565b507f216b9fa3ac3724cf1ec6caf5a66dd85cae3aee727e00d2a0a59f273df3401f1090565b507f2b59c2651b412c029efa38f835ac1b1b5bdaf89dcb2e4bc9219e7d77c65e776a90565b507f14b46e659dc4072fc64a18d44911c4a303b45f1296c3cb7dec77f269bee9b5df90565b507f0845dd838ca63b2f68775aac8513bd692d26f511698206f3c6ce2b4100dd8d8f90565b507f132e4ff3e4ba890f1610efd4d2f69700b825514d557b82663878a56e2acef41c90565b507f24cb019b59431c232413f66b041923214f7a8a7489caa05b66860f1c3c76d3b190565b507f1b6367322bac9f24889900d310e2feaa0021516fac77470aea078e89335d3fcf90565b507f19b336a1e0a933e2a8f97d97322dcee843a2d9a2401bece52a3a25ddd5bb6bc990565b507f1d71ada9e49baeb4a2cf26be37d3bc680554995ef6706105e93978ba71cacf9490565b507f2560496c1138c827f1efb407d0cdb9d6ec9539b0957dfb67de2776e6026d630f90565b507f2ce2c1fb109ad6574570826774ecfca3e04866bb5a3963962b873646db6641f390565b507f1713f3e3dc5e2393bd31ccc0cdd8601bdee3198cf34d566bb60cfab13e5a087390565b507f2c849a73ab21c9e88e1d711f221863e2a94eb58f3eb42dde575301451f3ec5c890565b507f1874217e8e1dbc51c571a2db1103bf47c3e66a59305ca48bbcee6ad1c8cc575190565b507f2b8342160822355808db759147a7d6f61de451bd5bb88f9db2eb406ea68b813890565b507f199cd1f5b757c285023767abbe9bbb318da4e1fd375b5a001b54a0f3901ea7d390565b507f128fb9ad5b2d8e694bec0888ff95609c15b2a96ae80a34946c953dc503e46fb690565b507f2ec047dd616221873c234f36461080c3e760644bb519ebdb49eb9645215e0edc90565b507f2582b5cdefe032d75373f0ede9171406137e93e7d44405a0b0a409c1c739138090565b507f1f336d6d45d293180c75964e99a7599d44cac2ad447c202c3e1973b0322cf99090565b507f05e0136534f74776d69646bd0bd94519e63af45734405f479382d8400514c1a690565b507f10f7b76489e9c36644736c33c600d1bcedd465fd0aff3027e67b02e13875272d90565b507f1e73f08f6e5e4bb9c2096cc4587526ebfd033c222f4a27e97119c867c36a0d3a90565b507f1ea63a974336db6c0423e719d3f0e11494266237dda3a40de3cb76104436635990565b507f0690bfb582c7502ff6d15d519740ecd73d652b7a14dc82bfd250613ee8e0407690565b507f30553f8216db90854953edd47602897f897104d5b0d65a5ce000981c51da32e090565b507f11dc55d21b17daf8e60253c2a43d519039ba968733cf7c9d5df6155939e1a6d890565b507f08e4b5d410c8de929132c214ea600b5f252fa14aabb97ea67cda5bb4e0ebeec890565b507f04265868d2e705f48d3ae49f7749e67a587dafdb569c1d7334675496046eaad690565b507f2a06fb0b739b402c34dc752d8417b9cd67b7f7cabe4b06b5d995053791fcede490565b507f06928e817d2804a3713efd102bae900c9ab3e8e0b0c6c20f8613bd3b0423a89190565b507f0ef71f46e11a513c599eed9dd03576c33439bcfb1cee155316f90541e41649ba90565b6120e19060408051916137d78361215d565b60803684378051518352602081510151602084015260208101518284015201516060820152612d89565b60206120e19260406138a9815194613818866121af565b60a0368737805151865284815101518587015282815101518387015260608151015160608701526080815101516080870152610120835191613859836121af565b60a036843760a081510151835260c0815101518784015260e0815101518584015261010081510151606084015251015160808201526138a283519661389d8861215d565b612df1565b8652612df1565b8385015281519084015201516060820152612d8956fea2646970667358221220a8a6f5dd0d2e40859af8c2964f55d1af83052ff5a140b6a118808f66b13f767664736f6c63430008140033",
  "deployedBytecode": "0x608080604052600436101561001357600080fd5b600090813560e01c908163055575eb14611f6c57508063079410db14611f275780631096c30e14611ed0578063122db15314611ea857806313fb893214611e7f5780631a8cbcaa14611dfd5780631b6ef3c514611d715780632b78657114611d535780632b7ac3f314611d2a57806331e766a514611d055780633364120a146118a05780633364c4c814611703578063343393b5146116be5780633dfb88b214611666578063423f3e19146115ea57806346e47f9a146115835780634d5da86b14610c4d57806358bfc37914610b2e5780635bb9399514610afd57806362a361bb14610acf57806362b31f1e14610a8a57806364e0ece114610969578063652c76e41461092b578063683f3dc31461090f5780636b4575e21461083c578063715018a6146107de5780637d0a81c81461079c5780638a2a3dfb146107005780638da5cb5b146106d75780639cfced9714610677578063aab4a67014610632578063ac2f0074146105e3578063ac98e5df146105a1578063b686872014610571578063b87802c814610543578063bea140b314610442578063c8cf9ab214610409578063d7a71b9a146103d7578063df82635a1461039c578063edbfe83f146102715763f2fde38b146101e457600080fd5b3461026e57602036600319011261026e576101fd6122d9565b610205612332565b6001600160a01b0390811690811561025557600954826001600160601b0360a01b821617600955167f8be0079c531659141344cd1fd0a4f28419497f9722a3daafe3b4186f6b6457e0600080a380f35b604051631e4fbdf760e01b815260048101849052602490fd5b80fd5b503461026e57604036600319011261026e57366023121561026e57610295366122a1565b6040516102a181612194565b6040516102ad81612178565b610140918236833752604051906102c382612142565b8382528360208093015281604051936102db85612178565b8236863780518552015182840152604051906102f682612142565b7f171e826ad4a870fd925e0bf0e87884e70e080879c2205ef10114f28a3b6f6dd78252828201917f2bd407d897fbbca9f88adfd2d15252e69de8c1564eb4d3d27162e259172f1a1d83526040519461034d86612194565b85526103598186613801565b6040519551969094865b600a8310610387575050506101a09550519084015251610160830152610180820152f35b81806001928b51815201990192019197610363565b503461026e578060031936011261026e5760206040517f00000000000000000000000000000000000000000000000000000000000000008152f35b503461026e5760ff60406020926103ed3661231c565b9082526011855282822090825284522054166040519015158152f35b503461026e57602036600319011261026e576020906040906001600160a01b036104316122d9565b168152601083522054604051908152f35b503461026e57606036600319011261026e57366023121561026e576040519061046a82612111565b606482368211610500576004905b8282106105335750506040516304b98e1d60e31b81529283908390600483015b60038310610519575050506020918173__$fa059fb1da6d850ca47ea49359bfe89f78$__5af490811561050d57906104d6575b602090604051908152f35b506020813d8211610505575b816104ef602093836121ca565b8101031261050057602090516104cb565b600080fd5b3d91506104e2565b604051903d90823e3d90fd5b815181528693506001929092019160209182019101610498565b8135815260209182019101610478565b503461026e57602036600319011261026e57600435600581101561056d5760209054604051908152f35b5080fd5b503461026e578060031936011261026e57604060075481519064ffffffffff90818116835260281c166020820152f35b503461026e578060031936011261026e576080600b5460ff604051918181168352818160081c166020840152818160101c16604084015260181c166060820152f35b503461026e57602036600319011261026e576040606091600435815260066020522060018060a01b03908181541691600281600184015416920154169060405192835260208301526040820152f35b503461026e578060031936011261026e576040517f00000000000000000000000000000000000000000000000000000000000000006001600160a01b03168152602090f35b503461026e5760a036600319011261026e57366023121561026e5760405161069e816121af565b60a481368211610500576020926004905b8382106106c857846106c084612df1565b604051908152f35b813581529084019084016106af565b503461026e578060031936011261026e576009546040516001600160a01b039091168152602090f35b503461026e573660031901610180811261056d576101401361026e576040519061072982612194565b366023121561026e57506040519061074082612178565b8161014492368411610500576004905b84821061078c5750508152604036610143190112610500576020916106c0916040519161077c83612142565b3582526101643584830152613801565b8135815260209182019101610750565b503461026e57608036600319011261026e5760206106c06040516107bf81612111565b6107c8366121eb565b81526044358382015260643560408201526137c5565b503461026e578060031936011261026e576107f7612332565b600980546001600160a01b031981169091556000906001600160a01b03167f8be0079c531659141344cd1fd0a4f28419497f9722a3daafe3b4186f6b6457e08280a380f35b503461026e5761014036600319011261026e576080366023190112610500576040516108678161215d565b60243560ff8116810361050057815260443560ff8116810361050057602082015260643560ff8116810361050057604082015260843560ff8116810361050057606082015260403660a3190112610500576040516108c481612142565b60a435815260c43560208201526108d96122ef565b61010435906001600160a01b0382168203610500576101243592600284101561090b5761090894600435612952565b80f35b8580fd5b503461026e578060031936011261026e576020604051600a8152f35b503461026e578060031936011261026e57602060405160ff7f0000000000000000000000000000000000000000000000000000000000000000168152f35b503461026e573660031901610100811261056d57608013610500576040516109908161215d565b60043560ff811681036105005781526024359060ff8216820361050057602081019182526044359060ff8216820361050057604081019182526064359260ff8416840361050057606082019384526040366083190112610500576040516109f681612142565b6084358152602081019160a435835260c4359560018060a01b03958688168098036105005760ff610a256122ef565b96610a2e612332565b511663ff00000062ff000061ff00600b54965160081b16935160101b16935160181b169363ffffffff191617171717600b5551600c5551600d556001600160601b0360a01b9283600e541617600e551690600f541617600f5580f35b503461026e578060031936011261026e576040517f00000000000000000000000000000000000000000000000000000000000000006001600160a01b03168152602090f35b503461026e57604036600319011261026e57366023121561026e5760206106c0610af8366122a1565b612d04565b503461026e5760206106c0610b113661231c565b60405191610b1e83612142565b6040368437825283820152612d04565b503461026e576020908160031936011261026e576004356001600160401b03811161056d573660238201121561056d578060040135610b6c81612305565b91610b7a60405193846121ca565b8183528483016024819360051b8301019136831161090b5791869394916024879401905b828210610c3b57505050604051838101809251909590845b818110610c2257505050610bd881610be994959603601f1981018352826121ca565b604051928392839251928391611faf565b8101039060025afa1561050d577f30644e72e131a029b85045b68181585d2833e84879b9709143e1f593f0000001905106604051908152f35b8251885296860196899689965090920191600101610bb6565b81358152879450908501908501610b9e565b503461026e5760a036600319011261026e576004356001600160401b03811161056d57610c7e903690600401612274565b906001600160401b036024351161157f5736602360243501121561157f576001600160401b03602435600401351161157f5736602480356004013560051b813501011161157f576044356001600160401b03811161157b57610ce4903690600401612274565b91906002608435101561157757610cf9612332565b600554600e54600f54604051929592610d729290916001600160a01b039081169116610d248361215d565b60ff600b548181168552818160081c166020860152818160101c16604086015260181c166060840152604051610d5981612142565b600c548152600d54602082015260843593606435612952565b8386526006602052610d866040872061235e565b9260018060a01b038451168752601060205284604088205560405195602080880152610dd287610dc4604082016024356004013560248035016123b7565b03601f1981018952886121ca565b610dde60643542612440565b9660405190610dec82612178565b878252610dfa368486612213565b60208301526040820152610e0f368587612213565b60608201528560808201524260a08201528760c08201526024356004013560e0820152610e4160243560040135612305565b610e4e60405191826121ca565b602480356004810135835201602082015b602480356004013560051b813501018210611531575050610100820152604051610e8881612194565b898152610120820152868952600a60205260408920908051825560208101518051906001600160401b0382116113af578190610ed482610ecb600188015461244d565b6001880161249e565b602090601f83116001146114c2578d926114b7575b50508160011b916000199060031b1c19161760018301555b60408101518051906001600160401b0382116113af578190610f3382610f2a600288015461244d565b6002880161249e565b602090601f8311600114611448578d9261143d575b50508160011b916000199060031b1c19161760028301555b60608101518051906001600160401b0382116113af578190610f9282610f89600388015461244d565b6003880161249e565b602090601f83116001146113ce578d926113c3575b50508160011b916000199060031b1c19161760038301555b608081015180516004840180546001600160a01b03199081166001600160a01b039384161790915560208301516005860180548316918416919091179055604090920151600685018054909316911617905560a0810151600783015560c0810151600883015560e081015160098301556101008101518051906801000000000000000082116113af57600a84015482600a860155808310611334575b50602001600a84018c5260208c208c915b83831061123f575050505061012001518051906001600160401b03821161122b576110a78261109e600b86015461244d565b600b860161249e565b6020908b601f841160011461118d5793600b84611146957f7532e9985b123ef8bda3bc40b1a4296f34238889a58a41de23df560b8bfb9bc69c9b999561116d9b999561115f9992611182575b50508160011b916000199060031b1c1916179101555b6040805189516001600160a01b0390811682526020808c015182169083015299820151909916908901526101006060890152610100880191612396565b85810360808701526024356004013560248035016123b7565b9184830360a0860152612396565b934260c083015260e08201528033940390a380f35b0151905038806110f3565b5090600b84018c5260208c20918c5b601f1985168110611213575093600b6001857f7532e9985b123ef8bda3bc40b1a4296f34238889a58a41de23df560b8bfb9bc69c9b999561116d9b999561115f9961114699601f198116106111fa575b505050811b01910155611109565b015160001960f88460031b161c191690553880806111ec565b9192602060018192868501518155019401920161119c565b634e487b7160e01b8b52604160045260248bfd5b80518051906001600160401b03821161131f578f9061126883611262875461244d565b8761249e565b602091601f84116001146112b2579280602093600196938796926112a7575b5050600019600383901b1c191690841b1785555b0192019201919061106c565b015190503880611287565b919085835260208320925b601f1985168110611307575083602093600196938796938794601f198116106112ee575b505050811b01855561129b565b015160001960f88460031b161c191690553880806112e1565b919260206001819286850151815501940192016112bd565b50634e487b7160e01b8f52604160045260248ffd5b600a85018d5260208d20908382018e5b82840182106113555750505061105b565b90600191611363825461244d565b80611372575b5050018e611344565b601f8111841461138a575050600081555b8f38611369565b8282526113a5601f60208420920160051c8201858301612487565b6000835555611383565b634e487b7160e01b8c52604160045260248cfd5b015190503880610fa7565b9250600385018d5260208d20908d935b601f1984168510611422576001945083601f19811610611409575b505050811b016003830155610fbf565b015160001960f88460031b161c191690553880806113f9565b818101518355602094850194600190930192909101906113de565b015190503880610f48565b9250600285018d5260208d20908d935b601f198416851061149c576001945083601f19811610611483575b505050811b016002830155610f60565b015160001960f88460031b161c19169055388080611473565b81810151835560209485019460019093019290910190611458565b015190503880610ee9565b9250600185018d5260208d20908d935b601f1984168510611516576001945083601f198116106114fd575b505050811b016001830155610f01565b015160001960f88460031b161c191690553880806114ed565b818101518355602094850194600190930192909101906114d2565b81356001600160401b0381116115735760243501366043820112156115735760209161156883923690604460248201359101612213565b815201910190610e5f565b8c80fd5b8480fd5b8380fd5b8280fd5b503461026e57602036600319011261026e576001600160a01b036115a56122d9565b168082526010602052604082205460055411156115d2578160409160209352601083522054604051908152f35b6024906040519063e64d908d60e01b82526004820152fd5b503461026e578060031936011261026e5764ffffffffff908160075460281c16906001809381945b611623575b60206106c08686612e9f565b90919360ff80821691858486851b16101561165e5750811461164a57820193919081611612565b634e487b7160e01b85526011600452602485fd5b955050611617565b503461026e57608036600319011261026e57366023121561026e5760405161168d8161215d565b608481368211610500576020926004905b8382106116af57846106c084612d89565b8135815290840190840161169e565b503461026e578060031936011261026e576040517f00000000000000000000000000000000000000000000000000000000000000006001600160a01b03168152602090f35b503461026e57604036600319011261026e576004356001600160401b0360243581811161157b57611738903690600401612274565b9190611742612332565b60055484101561188757838552602091600a8352600b60408720019084116118735761177884611772835461244d565b8361249e565b85601f85116001146117eb57916117da91857f2cd30b9efd64638f847bef681e87dfbb567e261d02660c8166a92f33729ab33e96959489916117e0575b508560011b906000198760031b1c19161790555b604051938385948552840191612396565b0390a280f35b9050820135386117b5565b81875283872090601f198616885b81811061185c5750916117da9391877f2cd30b9efd64638f847bef681e87dfbb567e261d02660c8166a92f33729ab33e9897969410611842575b5050600185811b0190556117c9565b830135600019600388901b60f8161c191690553880611833565b9192866001819286890135815501940192016117f9565b634e487b7160e01b86526041600452602486fd5b60405163a86ecdd560e01b815260048101859052602490fd5b503461026e57608036600319011261026e576118bb366121eb565b6001600160401b039060443582811161157b576118dc903690600401612259565b606435838111611577576118f4903690600401612259565b90825185526011602052604085206020840151865260205260ff9384604087205416611cf35760075464ffffffffff7f00000000000000000000000000000000000000000000000000000000000000009160281c161015611ce15761195f8451602086015190612c65565b15611ccf576001600160a01b03918691907f0000000000000000000000000000000000000000000000000000000000000000841690813b1561157b5783916119be9160405195868094819363125c7dfb60e11b835233600484016128c0565b03925af18015611cc457611c9b575b50506119f291602091604051808095819463b36543a960e01b835233600484016128c0565b03917f0000000000000000000000000000000000000000000000000000000000000000165afa908115611c90578491611c5e575b50611a4a604051611a3681612111565b8381528260208201524260408201526137c5565b926007549364ffffffffff8560281c169060019586830164ffffffffff8111611c485769ffffffffff00000000009060281b169069ffffffffff00000000001916176007559085879173__$1540826e134b1b69b7091c82576ee3aadd$__915b611b36575b5050505050611ac964ffffffffff60075460281c166128e2565b7fd3c3cd829e4e37d5baaf10abace26b24e0046e20500c999380410f807edfcda0606084519260208601519464ffffffffff604051921682526020820152426040820152a38051835260116020526020604084209101518352602052604082209060ff1982541617905580f35b64ffffffffff611b5b82611b5688871664ff000000008860201b166128f9565b612e58565b168952600893846020528060408b205588821615611c4257611bca94602091611b8c611b86856128e2565b87612e71565b9164ffffffffff60405193611ba085612142565b168d52835260408c2054825282820152604051809681926314d2f97b60e11b835260048301612cd6565b0381855af4938415611c3757889486918b91611bf8575b5094938401169290811c647fffffffff1690611aaa565b955050506020843d602011611c2f575b81611c15602093836121ca565b81010312610500578488647fffffffff8196519150611be1565b3d9150611c08565b6040513d8b823e3d90fd5b50611aaf565b634e487b7160e01b600052601160045260246000fd5b90506020813d602011611c88575b81611c79602093836121ca565b81010312610500575138611a26565b3d9150611c6c565b6040513d86823e3d90fd5b8196929611611cb057604052938160206119cd565b634e487b7160e01b82526041600452602482fd5b6040513d89823e3d90fd5b6040516379fae7af60e01b8152600490fd5b60405163b984588b60e01b8152600490fd5b604051632e13e04560e01b8152600490fd5b503461026e578060031936011261026e576040600c54600d5482519182526020820152f35b503461026e578060031936011261026e57600e546040516001600160a01b039091168152602090f35b503461026e578060031936011261026e576020600554604051908152f35b503461026e57606036600319011261026e57604435801515810361056d57611d9e90602435600435612766565b60405190602092838301848452825180915260408401948060408360051b870101940192955b828710611dd15785850386f35b909192938280611ded600193603f198a82030186528851611ff7565b9601920196019592919092611dc4565b503461026e57602036600319011261026e57600435611e1a6124f2565b50600554811015611e6757604082611e3b926060945260066020522061235e565b6040805182516001600160a01b0390811682526020808501518216908301529282015190921690820152f35b6024906040519063a86ecdd560e01b82526004820152fd5b503461026e578060031936011261026e57600f546040516001600160a01b039091168152602090f35b503461026e578060031936011261026e57602064ffffffffff60075460281c16604051908152f35b503461026e57602036600319011261026e57600435611eed612511565b50600554811015611e6757604082611f0f92611f239452600a60205220612643565b604051918291602083526020830190611ff7565b0390f35b503461026e578060031936011261026e576040517f00000000000000000000000000000000000000000000000000000000000000006001600160a01b03168152602090f35b90503461056d578160031936011261056d577f00000000000000000000000000000000000000000000000000000000000000006001600160a01b03168152602090f35b60005b838110611fc25750506000910152565b8181015183820152602001611fb2565b90602091611feb81518092818552858086019101611faf565b601f01601f1916010190565b91908251815260209061204161202f61201d848701516101808087870152850190611fd2565b60408701518482036040860152611fd2565b60608601518382036060850152611fd2565b60808086015180516001600160a01b03908116928501929092526020810151821660a0850152604001511660c08301529360a081015160e083015260c081015190610100918284015260e08101519161012092838501528101519383870361014085015284518088528188019180808360051b8b01019701926000905b8382106120e45750505050506120e1949550015190610160818403910152611fd2565b90565b909192939783806121026001938e601f199082030186528c51611fd2565b9a0192019201909392916120be565b606081019081106001600160401b0382111761212c57604052565b634e487b7160e01b600052604160045260246000fd5b604081019081106001600160401b0382111761212c57604052565b608081019081106001600160401b0382111761212c57604052565b61014081019081106001600160401b0382111761212c57604052565b602081019081106001600160401b0382111761212c57604052565b60a081019081106001600160401b0382111761212c57604052565b90601f801991011681019081106001600160401b0382111761212c57604052565b6040906003190112610500576040519061220482612142565b60043582526024356020830152565b9291926001600160401b03821161212c576040519161223c601f8201601f1916602001846121ca565b829481845281830111610500578281602093846000960137010152565b9080601f83011215610500578160206120e193359101612213565b9181601f84011215610500578235916001600160401b038311610500576020838186019501011161050057565b90604051916122af83612142565b826044918211610500576004905b8282106122c957505050565b81358152602091820191016122bd565b600435906001600160a01b038216820361050057565b60e435906001600160a01b038216820361050057565b6001600160401b03811161212c5760051b60200190565b6040906003190112610500576004359060243590565b6009546001600160a01b0316330361234657565b60405163118cdaa760e01b8152336004820152602490fd5b9060405161236b81612111565b82546001600160a01b0390811682526001840154811660208301526002909301549092166040830152565b908060209392818452848401376000828201840152601f01601f1916010190565b9082818152602080910193818360051b82010194846000925b8584106123e1575050505050505090565b90919293949596601f198282030184528735601e19843603018112156105005783018681019190356001600160401b0381116105005780360383136105005761242f88928392600195612396565b9901940194019295949391906123d0565b91908201809211611c4857565b90600182811c9216801561247d575b602083101461246757565b634e487b7160e01b600052602260045260246000fd5b91607f169161245c565b818110612492575050565b60008155600101612487565b9190601f81116124ad57505050565b6124d9926000526020600020906020601f840160051c830193106124db575b601f0160051c0190612487565b565b90915081906124cc565b91908203918211611c4857565b604051906124ff82612111565b60006040838281528260208201520152565b6040519061251e82612178565b816000815261012060609182602082015282604082015282808201526125426124f2565b6080820152600060a0820152600060c0820152600060e0820152826101008201520152565b6000198114611c485760010190565b8051156125835760200190565b634e487b7160e01b600052603260045260246000fd5b80518210156125835760209160051b010190565b90600092918054916125be8361244d565b91828252600193848116908160001461262057506001146125e0575b50505050565b90919394506000526020928360002092846000945b83861061260c5750505050010190388080806125da565b8054858701830152940193859082016125f5565b9294505050602093945060ff191683830152151560051b010190388080806125da565b9060409182519061265382612178565b819381548352805160016126748261266d818488016125ad565b03836121ca565b6020918286015282516126958161268e81600289016125ad565b03826121ca565b8386015282516126ac8161268e81600389016125ad565b60608601526126bd6004850161235e565b6080860152600784015460a0860152600884015460c0860152600984015460e0860152600a84018054906126f082612305565b936126fd865195866121ca565b82855260009182528082208186015b8484106127445750505050505061012092612739859361274093610100600b9801525180968193016125ad565b03846121ca565b0152565b858381928a516127588161268e81896125ad565b81520192019301929061270c565b60001993928482019290918311611c485780830292808404821490151715611c48576127929083612440565b93808501948511611c4857849160055495868510156128a657861115612894575b6127bd84846124e5565b9060018201809211611c48576127d282612305565b926040926127e2845195866121ca565b8085526127f1601f1991612305565b0160005b81811061287d57505083976000965b86811115612816575050505050505050565b808415612861575b9061285c91600052600a602052612856866000209961284561283f82612567565b9b612643565b61284f828b612599565b5288612599565b50612567565b612804565b5061286c81836124e5565b90838201918211611c48579061281e565b602090612888612511565b828289010152016127f5565b9150808501858111611c4857916127b3565b505050505090506040516128b981612194565b6000815290565b6001600160a01b0390911681526040602082018190526120e192910190611fd2565b64ffffffffff9081166000190191908211611c4857565b64ffffffffff9182169082160391908211611c4857565b9081602091031261050057516001600160a01b03811681036105005790565b90600282101561293c5752565b634e487b7160e01b600052602160045260246000fd5b939194909294600554926001840160055581519560209761297889850198895190612c65565b15611ccf57606087019660ff8851166000198101908111611c485760058110156125835754604080516370f7b36160e01b81526004810195909552825160ff9081166024870152838d015181166044870152928101518316606486015298519091166084840152845160a4840152885160c48401523060e48401526101048301526000916001600160a01b03918a8261012481877f000000000000000000000000000000000000000000000000000000000000000088165af1918215612c5b578492612c3c575b508280808b5193633634487360e01b8552169687600485015216928360248401521691826044830152336064830152612a7b608483018961292f565b8b8260a48188887f0000000000000000000000000000000000000000000000000000000000000000165af1918215612c3257908492918692612c13575b508a519663431a717560e01b8852600488015260248701528260448701521692836064860152336084860152612af160a486018861292f565b8a8560c48184877f0000000000000000000000000000000000000000000000000000000000000000165af1948515612c07579189828d612bc79997957f38b2d18bb65cc91d7b436014cf44c8298b13bee60cc18d9e8efec26d1df318909d9c9b99979597612bca575b50918491600660029594835195612b7087612111565b8652808601988952848487019a168a528d83525220915116936001600160601b0360a01b9485835416178255836001830191511685825416179055019251169082541617905551955196845193845283019061292f565ba3565b819750916006612bf4879460029796943d8c11612c00575b612bec81836121ca565b810190612910565b98929495505091612b5a565b503d612be2565b508851903d90823e3d90fd5b612c2b9192508d803d10612c0057612bec81836121ca565b9038612ab8565b8a513d87823e3d90fd5b612c549192508b3d8d11612c0057612bec81836121ca565b9038612a3f565b89513d86823e3d90fd5b907f30644e72e131a029b85045b68181585d2833e84879b9709143e1f593f0000001808080858196099380098180828187620292fc090894620292f80909600108908082811115612cc3575b50600091612cbe916124e5565b081590565b9050828101809111611c48576000612cb1565b6040810192916000915b60028310612ced57505050565b600190825181526020809101920192019190612ce0565b6020612d2491604051809381926314d2f97b60e11b835260048301612cd6565b038173__$1540826e134b1b69b7091c82576ee3aadd$__5af4908115612d7d57600091612d4f575090565b906020823d8211612d75575b81612d68602093836121ca565b8101031261026e57505190565b3d9150612d5b565b6040513d6000823e3d90fd5b60405163248f667760e01b81529060049060008284015b838210612dda575050505060208160848173__$e61c65d9562aef5fa6ab22c0f787cf1e30$__5af4908115612d7d57600091612d4f575090565b600190835181526020809101930191019091612da0565b604051630926f44b60e31b815290600090600483015b60058310612e415750505060208160a48173__$46fbdf6658faf65265971bdad66851b86c$__5af4908115612d7d57600091612d4f575090565b600190825181526020809101920192019190612e07565b91909164ffffffffff80809416911601918211611c4857565b90611b566120e19264ff0000000060ff82169160201b166128f9565b60ff60019116019060ff8211611c4857565b919060ff92838216916020908184116131d55764ffffffffff918284169182156131c457612ecd8891612e8d565b16612f04612eda82612305565b95604092612eea845198896121ca565b808852612ef9601f1991612305565b0136858901376128e2565b90600194858084161560001461318f575080831694818611611c48578695600052600885528260002054612f3789612576565b52999592995b6000935b612f5c575b50505050505050612f58929350612599565b5190565b86849a9998979a168881101561318457858c881661304b57612fb691612f8d865191612f8783612142565b8b612599565b518152612f99876131e7565b828201528551809381926314d2f97b60e11b835260048301612cd6565b038173__$1540826e134b1b69b7091c82576ee3aadd$__5af490811561304057600091613013575b509986647fffffffff829d8a9b9c9d613003849c86612ffc8c612e8d565b1690612599565b525b821c16950116939a96612f41565b908682813d8311613039575b61302981836121ca565b8101031261026e57505186612fde565b503d61301f565b84513d6000823e3d90fd5b5082828c61305888612e8d565b161c1690647fffffffff8d891c168092116000146130b357509986647fffffffff829d85613092849c9d9e9f61308d8b612e8d565b612e71565b166000526008895286600020546130ad8d86612ffc8c612e8d565b52613005565b61311191508690846130ce8f6130c8906128e2565b89612e71565b16600052600882526130f38660002054918751926130eb84612142565b83528b612599565b51828201528551809381926314d2f97b60e11b835260048301612cd6565b038173__$1540826e134b1b69b7091c82576ee3aadd$__5af490811561304057600091613157575b509986647fffffffff829d8a9b9c9d6130ad849c86612ffc8c612e8d565b908682813d831161317d575b61316d81836121ca565b8101031261026e57505186613139565b503d613163565b508697989950612f46565b947f0ef71f46e11a513c599eed9dd03576c33439bcfb1cee155316f90541e41649ba6131ba89612576565b5299959299612f3d565b9450505050506120e19192506131e7565b604051633e104c7760e01b8152600490fd5b60ff1680156137a0576001811461377b57600281146137565760038114613731576004811461370c57600581146136e757600681146136c2576007811461369d5760088114613678576009811461365357600a811461362e57600b811461360957600c81146135e457600d81146135bf57600e811461359a57600f81146135755760108114613550576011811461352b576012811461350657601381146134e157601481146134bc57601581146134975760168114613472576017811461344d5760188114613428576019811461340357601a81146133de57601b81146133b957601c811461339457601d811461336f57601e811461334a57601f811461332557602014613301576040516310a2ea0560e21b8152600490fd5b7f1d90601a0c76d2f39824f6dc198fb3b48cbd0231516c8f6208e56ea741c341f990565b507f216b9fa3ac3724cf1ec6caf5a66dd85cae3aee727e00d2a0a59f273df3401f1090565b507f2b59c2651b412c029efa38f835ac1b1b5bdaf89dcb2e4bc9219e7d77c65e776a90565b507f14b46e659dc4072fc64a18d44911c4a303b45f1296c3cb7dec77f269bee9b5df90565b507f0845dd838ca63b2f68775aac8513bd692d26f511698206f3c6ce2b4100dd8d8f90565b507f132e4ff3e4ba890f1610efd4d2f69700b825514d557b82663878a56e2acef41c90565b507f24cb019b59431c232413f66b041923214f7a8a7489caa05b66860f1c3c76d3b190565b507f1b6367322bac9f24889900d310e2feaa0021516fac77470aea078e89335d3fcf90565b507f19b336a1e0a933e2a8f97d97322dcee843a2d9a2401bece52a3a25ddd5bb6bc990565b507f1d71ada9e49baeb4a2cf26be37d3bc680554995ef6706105e93978ba71cacf9490565b507f2560496c1138c827f1efb407d0cdb9d6ec9539b0957dfb67de2776e6026d630f90565b507f2ce2c1fb109ad6574570826774ecfca3e04866bb5a3963962b873646db6641f390565b507f1713f3e3dc5e2393bd31ccc0cdd8601bdee3198cf34d566bb60cfab13e5a087390565b507f2c849a73ab21c9e88e1d711f221863e2a94eb58f3eb42dde575301451f3ec5c890565b507f1874217e8e1dbc51c571a2db1103bf47c3e66a59305ca48bbcee6ad1c8cc575190565b507f2b8342160822355808db759147a7d6f61de451bd5bb88f9db2eb406ea68b813890565b507f199cd1f5b757c285023767abbe9bbb318da4e1fd375b5a001b54a0f3901ea7d390565b507f128fb9ad5b2d8e694bec0888ff95609c15b2a96ae80a34946c953dc503e46fb690565b507f2ec047dd616221873c234f36461080c3e760644bb519ebdb49eb9645215e0edc90565b507f2582b5cdefe032d75373f0ede9171406137e93e7d44405a0b0a409c1c739138090565b507f1f336d6d45d293180c75964e99a7599d44cac2ad447c202c3e1973b0322cf99090565b507f05e0136534f74776d69646bd0bd94519e63af45734405f479382d8400514c1a690565b507f10f7b76489e9c36644736c33c600d1bcedd465fd0aff3027e67b02e13875272d90565b507f1e73f08f6e5e4bb9c2096cc4587526ebfd033c222f4a27e97119c867c36a0d3a90565b507f1ea63a974336db6c0423e719d3f0e11494266237dda3a40de3cb76104436635990565b507f0690bfb582c7502ff6d15d519740ecd73d652b7a14dc82bfd250613ee8e0407690565b507f30553f8216db90854953edd47602897f897104d5b0d65a5ce000981c51da32e090565b507f11dc55d21b17daf8e60253c2a43d519039ba968733cf7c9d5df6155939e1a6d890565b507f08e4b5d410c8de929132c214ea600b5f252fa14aabb97ea67cda5bb4e0ebeec890565b507f04265868d2e705f48d3ae49f7749e67a587dafdb569c1d7334675496046eaad690565b507f2a06fb0b739b402c34dc752d8417b9cd67b7f7cabe4b06b5d995053791fcede490565b507f06928e817d2804a3713efd102bae900c9ab3e8e0b0c6c20f8613bd3b0423a89190565b507f0ef71f46e11a513c599eed9dd03576c33439bcfb1cee155316f90541e41649ba90565b6120e19060408051916137d78361215d565b60803684378051518352602081510151602084015260208101518284015201516060820152612d89565b60206120e19260406138a9815194613818866121af565b60a0368737805151865284815101518587015282815101518387015260608151015160608701526080815101516080870152610120835191613859836121af565b60a036843760a081510151835260c0815101518784015260e0815101518584015261010081510151606084015251015160808201526138a283519661389d8861215d565b612df1565b8652612df1565b8385015281519084015201516060820152612d8956fea2646970667358221220a8a6f5dd0d2e40859af8c2964f55d1af83052ff5a140b6a118808f66b13f767664736f6c63430008140033",
  "libraries": {
    "PoseidonT3": "0xd94b9aE62067cE0A7703bcCCEF792DE74428B348",
    "PoseidonT4": "0x1911643B982B37779F1C1d65900FC42499240066",
    "PoseidonT5": "0x33764231F52fFF5fF2E2331E295ec8Ff67ffe8B8",
    "PoseidonT6": "0x70a6520eB5AAA0776f7f766Ff2D6eEa6CB3AAcF9"
  },
  "devdoc": {
    "errors": {
      "OwnableInvalidOwner(address)": [
        {
          "details": "The owner is not a valid owner account. (eg. `address(0)`)"
        }
      ],
      "OwnableUnauthorizedAccount(address)": [
        {
          "details": "The caller account is not authorized to perform an operation."
        }
      ]
    },
    "kind": "dev",
    "methods": {
      "deployPoll(uint256,(uint8,uint8,uint8,uint8),(uint256,uint256),address,address,uint8)": {
        "params": {
          "_coordinatorPubKey": "The coordinator's public key",
          "_duration": "How long should the Poll last for",
          "_mode": "Voting mode",
          "_treeDepths": "The depth of the Merkle trees",
          "_verifier": "The Verifier Contract",
          "_vkRegistry": "The VkRegistry Contract"
        }
      },
      "getPoll(uint256)": {
        "params": {
          "_pollId": "The identifier of the Poll to retrieve"
        },
        "returns": {
          "pollContracts": "The Poll contract object"
        }
      },
      "getStateTreeRoot()": {
        "returns": {
          "root": "The Merkle root"
        }
      },
      "hash2(uint256[2])": {
        "params": {
          "array": "An array of two uint256 elements."
        },
        "returns": {
          "result": "The Poseidon hash of the two elements."
        }
      },
      "hash3(uint256[3])": {
        "params": {
          "array": "An array of three uint256 elements."
        },
        "returns": {
          "result": "The Poseidon hash of the three elements."
        }
      },
      "hash4(uint256[4])": {
        "params": {
          "array": "An array of four uint256 elements."
        },
        "returns": {
          "result": "The Poseidon hash of the four elements."
        }
      },
      "hash5(uint256[5])": {
        "params": {
          "array": "An array of five uint256 elements."
        },
        "returns": {
          "result": "The Poseidon hash of the five elements."
        }
      },
      "hashLeftRight(uint256,uint256)": {
        "params": {
          "left": "the first element to hash.",
          "right": "the second element to hash."
        },
        "returns": {
          "result": "The Poseidon hash of the two elements."
        }
      },
      "hashMessageAndEncPubKey((uint256[10]),(uint256,uint256))": {
        "params": {
          "_encPubKey": "the encryption public key to be hashed",
          "_message": "the message to be hashed"
        },
        "returns": {
          "msgHash": "The hash of the message and the encryption public key"
        }
      },
      "hashStateLeaf(((uint256,uint256),uint256,uint256))": {
        "params": {
          "_stateLeaf": "the state leaf to be hashed"
        },
        "returns": {
          "ciphertext": "The hash of the state leaf"
        }
      },
      "numSignUps()": {
        "returns": {
          "signUps": "numsignUps The number of signups"
        }
      },
      "owner()": {
        "details": "Returns the address of the current owner."
      },
      "padAndHashMessage(uint256[2])": {
        "params": {
          "dataToPad": "the data to be padded"
        },
        "returns": {
          "message": "The padded message",
          "msgHash": "The hash of the padded message and encryption key",
          "padKey": "The padding public key"
        }
      },
      "renounceOwnership()": {
        "details": "Leaves the contract without owner. It will not be possible to call `onlyOwner` functions. Can only be called by the current owner. NOTE: Renouncing ownership will leave the contract without an owner, thereby disabling any functionality that is only available to the owner."
      },
      "sha256Hash(uint256[])": {
        "params": {
          "array": "The array of uint256 elements."
        },
        "returns": {
          "result": "The SHA256 hash of the array."
        }
      },
      "signUp((uint256,uint256),bytes,bytes)": {
        "params": {
          "_initialVoiceCreditProxyData": "Data to pass to the     InitialVoiceCreditProxy, which allows it to determine how many voice     credits this user should have.",
          "_pubKey": "The user's desired public key.",
          "_signUpGatekeeperData": "Data to pass to the sign-up gatekeeper's     register() function. For instance, the POAPGatekeeper or     SignUpTokenGatekeeper requires this value to be the ABI-encoded     token ID."
        }
      },
      "transferOwnership(address)": {
        "details": "Transfers ownership of the contract to a new account (`newOwner`). Can only be called by the current owner."
      }
    },
    "title": "MACI - Minimum Anti-Collusion Infrastructure Version 1",
    "version": 1
  },
  "userdoc": {
    "errors": {
      "DefaultZeroBadIndex()": [
        {
          "notice": "Custom errors"
        }
      ],
      "InvalidMessage()": [
        {
          "notice": "custom errors"
        }
      ],
      "PoseidonHashLibrariesNotLinked()": [
        {
          "notice": "custom errors"
        }
      ]
    },
    "kind": "user",
    "methods": {
      "MESSAGE_DATA_LENGTH()": {
        "notice": "the length of a MACI message"
      },
      "deployPoll(uint256,(uint8,uint8,uint8,uint8),(uint256,uint256),address,address,uint8)": {
        "notice": "Deploy a new Poll contract."
      },
      "emptyBallotRoots(uint256)": {
        "notice": "The roots of the empty ballot trees"
      },
      "getPoll(uint256)": {
        "notice": "Get the Poll details"
      },
      "getStateTreeRoot()": {
        "notice": "Return the main root of the StateAq contract"
      },
      "hash2(uint256[2])": {
        "notice": "Computes the Poseidon hash of two uint256 elements."
      },
      "hash3(uint256[3])": {
        "notice": "Computes the Poseidon hash of three uint256 elements."
      },
      "hash4(uint256[4])": {
        "notice": "Computes the Poseidon hash of four uint256 elements."
      },
      "hash5(uint256[5])": {
        "notice": "Computes the Poseidon hash of five uint256 elements."
      },
      "hashLeftRight(uint256,uint256)": {
        "notice": "Computes the Poseidon hash of two uint256 elements."
      },
      "hashMessageAndEncPubKey((uint256[10]),(uint256,uint256))": {
        "notice": "An utility function used to hash a MACI message and an encryption public key"
      },
      "hashStateLeaf(((uint256,uint256),uint256,uint256))": {
        "notice": "An utility function used to hash a state leaf"
      },
      "initialVoiceCreditProxy()": {
        "notice": "The contract which provides the values of the initial voice credit balance per user"
      },
      "lazyIMTData()": {
        "notice": "The state tree. Represents a mapping between each user's public key and their voice credit balance."
      },
      "messageProcessorFactory()": {
        "notice": "Factory contract that deploy a MessageProcessor contract"
      },
      "nextPollId()": {
        "notice": "Each poll has an incrementing ID"
      },
      "numSignUps()": {
        "notice": "Get the number of signups"
      },
      "padAndHashMessage(uint256[2])": {
        "notice": "An utility function used to pad and hash a MACI message"
      },
      "pollFactory()": {
        "notice": "Factory contract that deploy a Poll contract"
      },
      "polls(uint256)": {
        "notice": "A mapping of poll IDs to Poll contracts."
      },
      "sha256Hash(uint256[])": {
        "notice": "Computes the SHA256 hash of an array of uint256 elements."
      },
      "signUp((uint256,uint256),bytes,bytes)": {
        "notice": "Allows any eligible user sign up. The sign-up gatekeeper should prevent double sign-ups or ineligible users from doing so.  This function will only succeed if the sign-up deadline has not passed. It also enqueues a fresh state leaf into the state AccQueue."
      },
      "signUpGatekeeper()": {
        "notice": "Address of the SignUpGatekeeper, a contract which determines whether a user may sign up to vote"
      },
      "stateTreeDepth()": {
        "notice": "The state tree depth is fixed. As such it should be as large as feasible so that there can be as many users as possible.  i.e. 2 ** 23 = 8388608 this should also match the parameter of the circom circuits.IMPORTANT: remember to change the ballot tree depth in contracts/ts/genEmptyBallotRootsContract.ts file if we change the state tree depth!"
      },
      "tallyFactory()": {
        "notice": "Factory contract that deploy a Tally contract"
      }
    },
    "notice": "A contract which allows users to sign up, and deploy new polls",
    "version": 1
  },
  "storageLayout": {
    "storage": [
      {
        "astId": 924,
        "contract": "contracts/maci-contracts/MACIWrapper.sol:MACIWrapper",
        "label": "emptyBallotRoots",
        "offset": 0,
        "slot": "0",
        "type": "t_array(t_uint256)5_storage"
      },
      {
        "astId": 927,
        "contract": "contracts/maci-contracts/MACIWrapper.sol:MACIWrapper",
        "label": "nextPollId",
        "offset": 0,
        "slot": "5",
        "type": "t_uint256"
      },
      {
        "astId": 933,
        "contract": "contracts/maci-contracts/MACIWrapper.sol:MACIWrapper",
        "label": "polls",
        "offset": 0,
        "slot": "6",
        "type": "t_mapping(t_uint256,t_struct(PollContracts)965_storage)"
      },
      {
        "astId": 949,
        "contract": "contracts/maci-contracts/MACIWrapper.sol:MACIWrapper",
        "label": "lazyIMTData",
        "offset": 0,
        "slot": "7",
        "type": "t_struct(LazyIMTData)3100_storage"
      },
      {
        "astId": 8,
        "contract": "contracts/maci-contracts/MACIWrapper.sol:MACIWrapper",
        "label": "_owner",
        "offset": 0,
        "slot": "9",
        "type": "t_address"
      },
      {
        "astId": 428,
        "contract": "contracts/maci-contracts/MACIWrapper.sol:MACIWrapper",
        "label": "_polls",
        "offset": 0,
        "slot": "10",
        "type": "t_mapping(t_uint256,t_struct(PollData)423_storage)"
      },
      {
        "astId": 431,
        "contract": "contracts/maci-contracts/MACIWrapper.sol:MACIWrapper",
        "label": "treeDepths",
        "offset": 0,
        "slot": "11",
        "type": "t_struct(TreeDepths)3890_storage"
      },
      {
        "astId": 434,
        "contract": "contracts/maci-contracts/MACIWrapper.sol:MACIWrapper",
        "label": "coordinatorPubKey",
        "offset": 0,
        "slot": "12",
        "type": "t_struct(PubKey)3863_storage"
      },
      {
        "astId": 436,
        "contract": "contracts/maci-contracts/MACIWrapper.sol:MACIWrapper",
        "label": "verifier",
        "offset": 0,
        "slot": "14",
        "type": "t_address"
      },
      {
        "astId": 438,
        "contract": "contracts/maci-contracts/MACIWrapper.sol:MACIWrapper",
        "label": "vkRegistry",
        "offset": 0,
        "slot": "15",
        "type": "t_address"
      },
      {
        "astId": 442,
        "contract": "contracts/maci-contracts/MACIWrapper.sol:MACIWrapper",
        "label": "pollIds",
        "offset": 0,
        "slot": "16",
        "type": "t_mapping(t_address,t_uint256)"
      },
      {
        "astId": 474,
        "contract": "contracts/maci-contracts/MACIWrapper.sol:MACIWrapper",
        "label": "isPublicKeyRegistered",
        "offset": 0,
        "slot": "17",
        "type": "t_mapping(t_uint256,t_mapping(t_uint256,t_bool))"
      }
    ],
    "types": {
      "t_address": {
        "encoding": "inplace",
        "label": "address",
        "numberOfBytes": "20"
      },
      "t_array(t_string_storage)dyn_storage": {
        "base": "t_string_storage",
        "encoding": "dynamic_array",
        "label": "string[]",
        "numberOfBytes": "32"
      },
      "t_array(t_uint256)5_storage": {
        "base": "t_uint256",
        "encoding": "inplace",
        "label": "uint256[5]",
        "numberOfBytes": "160"
      },
      "t_bool": {
        "encoding": "inplace",
        "label": "bool",
        "numberOfBytes": "1"
      },
      "t_bytes_storage": {
        "encoding": "bytes",
        "label": "bytes",
        "numberOfBytes": "32"
      },
      "t_mapping(t_address,t_uint256)": {
        "encoding": "mapping",
        "key": "t_address",
        "label": "mapping(address => uint256)",
        "numberOfBytes": "32",
        "value": "t_uint256"
      },
      "t_mapping(t_uint256,t_bool)": {
        "encoding": "mapping",
        "key": "t_uint256",
        "label": "mapping(uint256 => bool)",
        "numberOfBytes": "32",
        "value": "t_bool"
      },
      "t_mapping(t_uint256,t_mapping(t_uint256,t_bool))": {
        "encoding": "mapping",
        "key": "t_uint256",
        "label": "mapping(uint256 => mapping(uint256 => bool))",
        "numberOfBytes": "32",
        "value": "t_mapping(t_uint256,t_bool)"
      },
      "t_mapping(t_uint256,t_struct(PollContracts)965_storage)": {
        "encoding": "mapping",
        "key": "t_uint256",
        "label": "mapping(uint256 => struct MACI.PollContracts)",
        "numberOfBytes": "32",
        "value": "t_struct(PollContracts)965_storage"
      },
      "t_mapping(t_uint256,t_struct(PollData)423_storage)": {
        "encoding": "mapping",
        "key": "t_uint256",
        "label": "mapping(uint256 => struct MACIWrapper.PollData)",
        "numberOfBytes": "32",
        "value": "t_struct(PollData)423_storage"
      },
      "t_mapping(t_uint256,t_uint256)": {
        "encoding": "mapping",
        "key": "t_uint256",
        "label": "mapping(uint256 => uint256)",
        "numberOfBytes": "32",
        "value": "t_uint256"
      },
      "t_string_storage": {
        "encoding": "bytes",
        "label": "string",
        "numberOfBytes": "32"
      },
      "t_struct(LazyIMTData)3100_storage": {
        "encoding": "inplace",
        "label": "struct LazyIMTData",
        "members": [
          {
            "astId": 3093,
            "contract": "contracts/maci-contracts/MACIWrapper.sol:MACIWrapper",
            "label": "maxIndex",
            "offset": 0,
            "slot": "0",
            "type": "t_uint40"
          },
          {
            "astId": 3095,
            "contract": "contracts/maci-contracts/MACIWrapper.sol:MACIWrapper",
            "label": "numberOfLeaves",
            "offset": 5,
            "slot": "0",
            "type": "t_uint40"
          },
          {
            "astId": 3099,
            "contract": "contracts/maci-contracts/MACIWrapper.sol:MACIWrapper",
            "label": "elements",
            "offset": 0,
            "slot": "1",
            "type": "t_mapping(t_uint256,t_uint256)"
          }
        ],
        "numberOfBytes": "64"
      },
      "t_struct(PollContracts)965_storage": {
        "encoding": "inplace",
        "label": "struct MACI.PollContracts",
        "members": [
          {
            "astId": 960,
            "contract": "contracts/maci-contracts/MACIWrapper.sol:MACIWrapper",
            "label": "poll",
            "offset": 0,
            "slot": "0",
            "type": "t_address"
          },
          {
            "astId": 962,
            "contract": "contracts/maci-contracts/MACIWrapper.sol:MACIWrapper",
            "label": "messageProcessor",
            "offset": 0,
            "slot": "1",
            "type": "t_address"
          },
          {
            "astId": 964,
            "contract": "contracts/maci-contracts/MACIWrapper.sol:MACIWrapper",
            "label": "tally",
            "offset": 0,
            "slot": "2",
            "type": "t_address"
          }
        ],
        "numberOfBytes": "96"
      },
      "t_struct(PollData)423_storage": {
        "encoding": "inplace",
        "label": "struct MACIWrapper.PollData",
        "members": [
          {
            "astId": 402,
            "contract": "contracts/maci-contracts/MACIWrapper.sol:MACIWrapper",
            "label": "id",
            "offset": 0,
            "slot": "0",
            "type": "t_uint256"
          },
          {
            "astId": 404,
            "contract": "contracts/maci-contracts/MACIWrapper.sol:MACIWrapper",
            "label": "name",
            "offset": 0,
            "slot": "1",
            "type": "t_string_storage"
          },
          {
            "astId": 406,
            "contract": "contracts/maci-contracts/MACIWrapper.sol:MACIWrapper",
            "label": "encodedOptions",
            "offset": 0,
            "slot": "2",
            "type": "t_bytes_storage"
          },
          {
            "astId": 408,
            "contract": "contracts/maci-contracts/MACIWrapper.sol:MACIWrapper",
            "label": "metadata",
            "offset": 0,
            "slot": "3",
            "type": "t_string_storage"
          },
          {
            "astId": 411,
            "contract": "contracts/maci-contracts/MACIWrapper.sol:MACIWrapper",
            "label": "pollContracts",
            "offset": 0,
            "slot": "4",
            "type": "t_struct(PollContracts)965_storage"
          },
          {
            "astId": 413,
            "contract": "contracts/maci-contracts/MACIWrapper.sol:MACIWrapper",
            "label": "startTime",
            "offset": 0,
            "slot": "7",
            "type": "t_uint256"
          },
          {
            "astId": 415,
            "contract": "contracts/maci-contracts/MACIWrapper.sol:MACIWrapper",
            "label": "endTime",
            "offset": 0,
            "slot": "8",
            "type": "t_uint256"
          },
          {
            "astId": 417,
            "contract": "contracts/maci-contracts/MACIWrapper.sol:MACIWrapper",
            "label": "numOfOptions",
            "offset": 0,
            "slot": "9",
            "type": "t_uint256"
          },
          {
            "astId": 420,
            "contract": "contracts/maci-contracts/MACIWrapper.sol:MACIWrapper",
            "label": "options",
            "offset": 0,
            "slot": "10",
            "type": "t_array(t_string_storage)dyn_storage"
          },
          {
            "astId": 422,
            "contract": "contracts/maci-contracts/MACIWrapper.sol:MACIWrapper",
            "label": "tallyJsonCID",
            "offset": 0,
            "slot": "11",
            "type": "t_string_storage"
          }
        ],
        "numberOfBytes": "384"
      },
      "t_struct(PubKey)3863_storage": {
        "encoding": "inplace",
        "label": "struct DomainObjs.PubKey",
        "members": [
          {
            "astId": 3860,
            "contract": "contracts/maci-contracts/MACIWrapper.sol:MACIWrapper",
            "label": "x",
            "offset": 0,
            "slot": "0",
            "type": "t_uint256"
          },
          {
            "astId": 3862,
            "contract": "contracts/maci-contracts/MACIWrapper.sol:MACIWrapper",
            "label": "y",
            "offset": 0,
            "slot": "1",
            "type": "t_uint256"
          }
        ],
        "numberOfBytes": "64"
      },
      "t_struct(TreeDepths)3890_storage": {
        "encoding": "inplace",
        "label": "struct Params.TreeDepths",
        "members": [
          {
            "astId": 3883,
            "contract": "contracts/maci-contracts/MACIWrapper.sol:MACIWrapper",
            "label": "intStateTreeDepth",
            "offset": 0,
            "slot": "0",
            "type": "t_uint8"
          },
          {
            "astId": 3885,
            "contract": "contracts/maci-contracts/MACIWrapper.sol:MACIWrapper",
            "label": "messageTreeSubDepth",
            "offset": 1,
            "slot": "0",
            "type": "t_uint8"
          },
          {
            "astId": 3887,
            "contract": "contracts/maci-contracts/MACIWrapper.sol:MACIWrapper",
            "label": "messageTreeDepth",
            "offset": 2,
            "slot": "0",
            "type": "t_uint8"
          },
          {
            "astId": 3889,
            "contract": "contracts/maci-contracts/MACIWrapper.sol:MACIWrapper",
            "label": "voteOptionTreeDepth",
            "offset": 3,
            "slot": "0",
            "type": "t_uint8"
          }
        ],
        "numberOfBytes": "32"
      },
      "t_uint256": {
        "encoding": "inplace",
        "label": "uint256",
        "numberOfBytes": "32"
      },
      "t_uint40": {
        "encoding": "inplace",
        "label": "uint40",
        "numberOfBytes": "5"
      },
      "t_uint8": {
        "encoding": "inplace",
        "label": "uint8",
        "numberOfBytes": "1"
      }
    }
  }
}