{
  "address": "0x410FBECd817c6f9FeC3C7d184aa83C66d132dD4F",
  "abi": [
    {
      "inputs": [],
      "name": "MESSAGE_DATA_LENGTH",
      "outputs": [
        {
          "internalType": "uint8",
          "name": "",
          "type": "uint8"
        }
      ],
      "stateMutability": "view",
      "type": "function"
    },
    {
      "inputs": [
        {
          "internalType": "address",
          "name": "_verifier",
          "type": "address"
        },
        {
          "internalType": "address",
          "name": "_vkRegistry",
          "type": "address"
        },
        {
          "internalType": "address",
          "name": "_poll",
          "type": "address"
        },
        {
          "internalType": "address",
          "name": "_owner",
          "type": "address"
        },
        {
          "internalType": "enum DomainObjs.Mode",
          "name": "_mode",
          "type": "uint8"
        }
      ],
      "name": "deploy",
      "outputs": [
        {
          "internalType": "address",
          "name": "messageProcessorAddr",
          "type": "address"
        }
      ],
      "stateMutability": "nonpayable",
      "type": "function"
    }
  ],
  "transactionHash": "0x791275561a19df533816dbbe65aa6a59d7c43cc4d50bd3db3bd84b2281c04a04",
  "args": [],
  "numDeployments": 1,
  "bytecode": "0x608060405234801561001057600080fd5b50612455806100206000396000f3fe608060405234801561001057600080fd5b50600436106100365760003560e01c8063363448731461003b578063683f3dc31461006b575b600080fd5b61004e6100493660046100f8565b610085565b6040516001600160a01b0390911681526020015b60405180910390f35b610073600a81565b60405160ff9091168152602001610062565b6000808686868686604051610099906100cf565b6100a7959493929190610165565b604051809103906000f0801580156100c3573d6000803e3d6000fd5b50979650505050505050565b612264806101bc83390190565b80356001600160a01b03811681146100f357600080fd5b919050565b600080600080600060a0868803121561011057600080fd5b610119866100dc565b9450610127602087016100dc565b9350610135604087016100dc565b9250610143606087016100dc565b915060808601356002811061015757600080fd5b809150509295509295909350565b6001600160a01b038681168252858116602083015284811660408301528316606082015260a08101600283106101ab57634e487b7160e01b600052602160045260246000fd5b826080830152969550505050505056fe6101006040526040516200226438038062002264833981016040819052620000279162000124565b816001600160a01b0381166200005757604051631e4fbdf760e01b81526000600482015260240160405180910390fd5b6200006281620000b7565b506001600160a01b0380861660a05284811660c05283166080528060018111156200009157620000916200019b565b60e0816001811115620000a857620000a86200019b565b815250505050505050620001b1565b600080546001600160a01b038381166001600160a01b0319831681178455604051919092169283917f8be0079c531659141344cd1fd0a4f28419497f9722a3daafe3b4186f6b6457e09190a35050565b80516001600160a01b03811681146200011f57600080fd5b919050565b600080600080600060a086880312156200013d57600080fd5b620001488662000107565b9450620001586020870162000107565b9350620001686040870162000107565b9250620001786060870162000107565b91506080860151600281106200018d57600080fd5b809150509295509295909350565b634e487b7160e01b600052602160045260246000fd5b60805160a05160c05160e051611ff462000270600039600081816101cc0152610ac201526000818161016a0152610a240152600081816102000152610b600152600081816102ef0152818161035a015281816103e40152818161046a01528181610500015281816105880152818161071b0152818161082e015281816109050152818161099001528181610dbd01528181610e0e01528181610eb001528181610f4b0152818161106d015281816110fa01526112080152611ff46000f3fe608060405234801561001057600080fd5b50600436106101375760003560e01c8063683f3dc3116100b85780639cfced971161007c5780639cfced97146102d7578063a1175279146102ea578063b1a263d314610311578063bea140b314610324578063d13181b814610337578063f2fde38b1461034057600080fd5b8063683f3dc314610285578063715018a61461029f5780637a38d18f146102a95780638763d0c4146102b25780638da5cb5b146102c657600080fd5b80633d6528a1116100ff5780633d6528a1146102225780633dfb88b21461023957806358bfc3791461024c5780635bb939951461025f57806362a361bb1461027257600080fd5b8063023650801461013c57806313fb89321461016557806324fab879146101a4578063295a5212146101c75780632b7ac3f3146101fb575b600080fd5b61014f61014a3660046114cd565b610353565b60405161015c919061152a565b60405180910390f35b61018c7f000000000000000000000000000000000000000000000000000000000000000081565b6040516001600160a01b03909116815260200161015c565b6101b76101b2366004611556565b6108fd565b604051901515815260200161015c565b6101ee7f000000000000000000000000000000000000000000000000000000000000000081565b60405161015c91906115af565b61018c7f000000000000000000000000000000000000000000000000000000000000000081565b61022b60025481565b60405190815260200161015c565b61022b610247366004611650565b610be8565b61022b61025a3660046116f2565b610c69565b61022b61026d3660046114cd565b610d03565b61022b610280366004611788565b610d28565b61028d600a81565b60405160ff909116815260200161015c565b6102a7610d62565b005b61022b60015481565b6000546101b790600160a01b900460ff1681565b6000546001600160a01b031661018c565b61022b6102e53660046117e8565b610d76565b61018c7f000000000000000000000000000000000000000000000000000000000000000081565b6102a761031f366004611823565b610db0565b61022b610332366004611851565b6112df565b61022b60035481565b6102a761034e3660046118bf565b611319565b60606000807f00000000000000000000000000000000000000000000000000000000000000006001600160a01b031663ac98e5df6040518163ffffffff1660e01b8152600401608060405180830381865afa1580156103b6573d6000803e3d6000fd5b505050506040513d601f19601f820116820180604052508101906103da91906118f2565b50925092505060007f00000000000000000000000000000000000000000000000000000000000000006001600160a01b031663bc14ee2b6040518163ffffffff1660e01b81526004016040805180830381865afa15801561043f573d6000803e3d6000fd5b505050506040513d601f19601f820116820180604052508101906104639190611946565b91505060007f00000000000000000000000000000000000000000000000000000000000000006001600160a01b0316638aa0ba926040518163ffffffff1660e01b8152600401602060405180830381865afa1580156104c6573d6000803e3d6000fd5b505050506040513d601f19601f820116820180604052508101906104ea9190611980565b905060006104f9856005611a93565b90506000807f00000000000000000000000000000000000000000000000000000000000000006001600160a01b0316634f367f0f6040518163ffffffff1660e01b81526004016040805180830381865afa15801561055b573d6000803e3d6000fd5b505050506040513d601f19601f8201168201806040525081019061057f9190611aa2565b915091506000807f00000000000000000000000000000000000000000000000000000000000000006001600160a01b0316634909229f6040518163ffffffff1660e01b81526004016040805180830381865afa1580156105e3573d6000803e3d6000fd5b505050506040513d601f19601f820116820180604052508101906106079190611aa2565b90925090506000610618868e611ac6565b9050838111156106255750825b6040805160098082526101408201909252906020820161012080368337019050509a50848b60008151811061065c5761065c611ad9565b60209081029190910101526106718284611ac6565b8b60018151811061068457610684611ad9565b6020908102919091010152604051631b9b8aa760e01b815260ff8a1660048201526001600160a01b03891690631b9b8aa790602401602060405180830381865afa1580156106d6573d6000803e3d6000fd5b505050506040513d601f19601f820116820180604052508101906106fa9190611980565b8b60028151811061070d5761070d611ad9565b6020026020010181815250507f00000000000000000000000000000000000000000000000000000000000000006001600160a01b0316637028bb0e6040518163ffffffff1660e01b8152600401602060405180830381865afa158015610777573d6000803e3d6000fd5b505050506040513d601f19601f8201168201806040525081019061079b9190611aef565b60ff168b6003815181106107b1576107b1611ad9565b602002602001018181525050808b6004815181106107d1576107d1611ad9565b6020026020010181815250508c8b6005815181106107f1576107f1611ad9565b602002602001018181525050868b60068151811061081157610811611ad9565b60209081029190910101526003541561082c576003546108ae565b7f00000000000000000000000000000000000000000000000000000000000000006001600160a01b031663c17268d96040518163ffffffff1660e01b8152600401602060405180830381865afa15801561088a573d6000803e3d6000fd5b505050506040513d601f19601f820116820180604052508101906108ae9190611980565b8b6007815181106108c1576108c1611ad9565b6020026020010181815250508b8b6008815181106108e1576108e1611ad9565b6020026020010181815250505050505050505050505092915050565b6000806000807f00000000000000000000000000000000000000000000000000000000000000006001600160a01b031663ac98e5df6040518163ffffffff1660e01b8152600401608060405180830381865afa158015610961573d6000803e3d6000fd5b505050506040513d601f19601f8201168201806040525081019061098591906118f2565b9350935093505060007f00000000000000000000000000000000000000000000000000000000000000006001600160a01b031663bc14ee2b6040518163ffffffff1660e01b81526004016040805180830381865afa1580156109eb573d6000803e3d6000fd5b505050506040513d601f19601f82011682018060405250810190610a0f9190611946565b5090506000610a1e8989610353565b905060007f00000000000000000000000000000000000000000000000000000000000000006001600160a01b031663d88ff4f5846001600160a01b031663652c76e46040518163ffffffff1660e01b8152600401602060405180830381865afa158015610a8f573d6000803e3d6000fd5b505050506040513d601f19601f82011682018060405250810190610ab39190611aef565b8787610ac08b6005611a93565b7f00000000000000000000000000000000000000000000000000000000000000006040518663ffffffff1660e01b8152600401610b01959493929190611b0a565b600060405180830381865afa158015610b1e573d6000803e3d6000fd5b505050506040513d6000823e601f3d908101601f19168201604052610b469190810190611bf7565b60405163352a4d1560e01b81529091506001600160a01b037f0000000000000000000000000000000000000000000000000000000000000000169063352a4d1590610b99908b9085908790600401611d55565b602060405180830381865afa158015610bb6573d6000803e3d6000fd5b505050506040513d601f19601f82011682018060405250810190610bda9190611e29565b9a9950505050505050505050565b60405163248f667760e01b81526000907333764231F52fFF5fF2E2331E295ec8Ff67ffe8B89063248f667790610c22908590600401611e4b565b602060405180830381865af4158015610c3f573d6000803e3d6000fd5b505050506040513d601f19601f82011682018060405250810190610c639190611980565b92915050565b60007f30644e72e131a029b85045b68181585d2833e84879b9709143e1f593f0000001600283604051602001610c9f9190611e7c565b60408051601f1981840301815290829052610cb991611eb2565b602060405180830381855afa158015610cd6573d6000803e3d6000fd5b5050506040513d601f19601f82011682018060405250810190610cf99190611980565b610c639190611ee1565b6000610d0d6114af565b83815260208101839052610d2081610d28565b949350505050565b6040516314d2f97b60e11b815260009073d94b9aE62067cE0A7703bcCCEF792DE74428B348906329a5f2f690610c22908590600401611f03565b610d6a61135c565b610d746000611389565b565b604051630926f44b60e31b81526000907370a6520eB5AAA0776f7f766Ff2D6eEa6CB3AAcF990634937a25890610c22908590600401611f2b565b610db861135c565b610de17f00000000000000000000000000000000000000000000000000000000000000006113d9565b600054600160a01b900460ff1615610e0c5760405163a7f0397560e01b815260040160405180910390fd5b7f00000000000000000000000000000000000000000000000000000000000000006001600160a01b031663e33b13a06040518163ffffffff1660e01b8152600401602060405180830381865afa158015610e6a573d6000803e3d6000fd5b505050506040513d601f19601f82011682018060405250810190610e8e9190611e29565b610eab5760405163e5fe9e1560e01b815260040160405180910390fd5b6000807f00000000000000000000000000000000000000000000000000000000000000006001600160a01b031663ac98e5df6040518163ffffffff1660e01b8152600401608060405180830381865afa158015610f0c573d6000803e3d6000fd5b505050506040513d601f19601f82011682018060405250810190610f3091906118f2565b5092509250506000826005610f459190611a93565b905060007f00000000000000000000000000000000000000000000000000000000000000006001600160a01b031663bc14ee2b6040518163ffffffff1660e01b81526004016040805180830381865afa158015610fa6573d6000803e3d6000fd5b505050506040513d601f19601f82011682018060405250810190610fca9190611946565b604051631b9b8aa760e01b815260ff86166004820152909250600091506001600160a01b03831690631b9b8aa790602401602060405180830381865afa158015611018573d6000803e3d6000fd5b505050506040513d601f19601f8201168201806040525081019061103c9190611980565b90508060000361105f5760405163c0b868a560e01b815260040160405180910390fd5b6001546000036111d75760007f00000000000000000000000000000000000000000000000000000000000000006001600160a01b031663c17268d96040518163ffffffff1660e01b8152600401602060405180830381865afa1580156110c9573d6000803e3d6000fd5b505050506040513d601f19601f820116820180604052508101906110ed9190611980565b90508060038190555060007f00000000000000000000000000000000000000000000000000000000000000006001600160a01b0316634f367f0f6040518163ffffffff1660e01b81526004016040805180830381865afa158015611155573d6000803e3d6000fd5b505050506040513d601f19601f820116820180604052508101906111799190611aa2565b9150600090506111898683611ee1565b6002839055905081156111d357806000036111bb5785600260008282546111b09190611f53565b909155506111d39050565b80600260008282546111cd9190611f53565b90915550505b5050505b6111e460025488886108fd565b6112045760405160016268f24f60e01b0319815260040160405180910390fd5b60007f00000000000000000000000000000000000000000000000000000000000000006001600160a01b0316634f367f0f6040518163ffffffff1660e01b81526004016040805180830381865afa158015611263573d6000803e3d6000fd5b505050506040513d601f19601f820116820180604052508101906112879190611aa2565b915050600060025411156112ad5783600260008282546112a79190611f53565b90915550505b6112d58860025460015460016112c39190611ac6565b6112cd9088611f66565b841115611476565b5050505050505050565b6040516304b98e1d60e31b8152600090731911643B982B37779F1C1d65900FC42499240066906325cc70e890610c22908590600401611f7d565b61132161135c565b6001600160a01b03811661135057604051631e4fbdf760e01b8152600060048201526024015b60405180910390fd5b61135981611389565b50565b6000546001600160a01b03163314610d745760405163118cdaa760e01b8152336004820152602401611347565b600080546001600160a01b038381166001600160a01b0319831681178455604051919092169283917f8be0079c531659141344cd1fd0a4f28419497f9722a3daafe3b4186f6b6457e09190a35050565b600080826001600160a01b0316634909229f6040518163ffffffff1660e01b81526004016040805180830381865afa158015611419573d6000803e3d6000fd5b505050506040513d601f19601f8201168201806040525081019061143d9190611aa2565b9092509050600061144e8342611f53565b905081811161147057604051635c3017c560e11b815260040160405180910390fd5b50505050565b60038390556000805460ff60a01b1916600160a01b83151502178155600283905560018054916114a583611fa5565b9190505550505050565b60405180604001604052806002906020820280368337509192915050565b600080604083850312156114e057600080fd5b50508035926020909101359150565b600081518084526020808501945080840160005b8381101561151f57815187529582019590820190600101611503565b509495945050505050565b60208152600061153d60208301846114ef565b9392505050565b806101008101831015610c6357600080fd5b6000806000610140848603121561156c57600080fd5b83359250602084013591506115848560408601611544565b90509250925092565b600281106115ab57634e487b7160e01b600052602160045260246000fd5b9052565b60208101610c63828461158d565b634e487b7160e01b600052604160045260246000fd5b6040805190810167ffffffffffffffff811182821017156115f6576115f66115bd565b60405290565b60405160a0810167ffffffffffffffff811182821017156115f6576115f66115bd565b604051601f8201601f1916810167ffffffffffffffff81118282101715611648576116486115bd565b604052919050565b60006080828403121561166257600080fd5b82601f83011261167157600080fd5b6040516080810181811067ffffffffffffffff82111715611694576116946115bd565b6040528060808401858111156116a957600080fd5b845b818110156116c35780358352602092830192016116ab565b509195945050505050565b600067ffffffffffffffff8211156116e8576116e86115bd565b5060051b60200190565b6000602080838503121561170557600080fd5b823567ffffffffffffffff81111561171c57600080fd5b8301601f8101851361172d57600080fd5b803561174061173b826116ce565b61161f565b81815260059190911b8201830190838101908783111561175f57600080fd5b928401925b8284101561177d57833582529284019290840190611764565b979650505050505050565b60006040828403121561179a57600080fd5b82601f8301126117a957600080fd5b6117b16115d3565b8060408401858111156117c357600080fd5b845b818110156117dd5780358452602093840193016117c5565b509095945050505050565b600060a082840312156117fa57600080fd5b82601f83011261180957600080fd5b6118116115fc565b8060a08401858111156117c357600080fd5b600080610120838503121561183757600080fd5b823591506118488460208501611544565b90509250929050565b60006060828403121561186357600080fd5b82601f83011261187257600080fd5b6040516060810181811067ffffffffffffffff82111715611895576118956115bd565b6040528060608401858111156116a957600080fd5b6001600160a01b038116811461135957600080fd5b6000602082840312156118d157600080fd5b813561153d816118aa565b805160ff811681146118ed57600080fd5b919050565b6000806000806080858703121561190857600080fd5b611911856118dc565b935061191f602086016118dc565b925061192d604086016118dc565b915061193b606086016118dc565b905092959194509250565b6000806040838503121561195957600080fd5b8251611964816118aa565b6020840151909250611975816118aa565b809150509250929050565b60006020828403121561199257600080fd5b5051919050565b634e487b7160e01b600052601160045260246000fd5b600181815b808511156119ea5781600019048211156119d0576119d0611999565b808516156119dd57918102915b93841c93908002906119b4565b509250929050565b600082611a0157506001610c63565b81611a0e57506000610c63565b8160018114611a245760028114611a2e57611a4a565b6001915050610c63565b60ff841115611a3f57611a3f611999565b50506001821b610c63565b5060208310610133831016604e8410600b8410161715611a6d575081810a610c63565b611a7783836119af565b8060001904821115611a8b57611a8b611999565b029392505050565b600061153d60ff8416836119f2565b60008060408385031215611ab557600080fd5b505080516020909101519092909150565b80820180821115610c6357610c63611999565b634e487b7160e01b600052603260045260246000fd5b600060208284031215611b0157600080fd5b61153d826118dc565b60ff86811682528581166020830152841660408201526060810183905260a08101611b38608083018461158d565b9695505050505050565b600060408284031215611b5457600080fd5b611b5c6115d3565b9050815181526020820151602082015292915050565b600082601f830112611b8357600080fd5b611b8b6115d3565b806040840185811115611b9d57600080fd5b845b818110156117dd578051845260209384019301611b9f565b600060808284031215611bc957600080fd5b611bd16115d3565b9050611bdd8383611b72565b8152611bec8360408401611b72565b602082015292915050565b60006020808385031215611c0a57600080fd5b825167ffffffffffffffff80821115611c2257600080fd5b908401906101e08287031215611c3757600080fd5b611c3f6115fc565b611c498784611b42565b81526040611c5988828601611bb7565b85830152611c6a8860c08601611bb7565b81830152611c7c886101408601611bb7565b60608301526101c084015183811115611c9457600080fd5b80850194505087601f850112611ca957600080fd5b83519250611cb961173b846116ce565b83815260069390931b84018501928581019089851115611cd857600080fd5b948601945b84861015611cfe57611cef8a87611b42565b82529482019490860190611cdd565b60808401525090979650505050505050565b8060005b6002811015611470578151845260209384019390910190600101611d14565b611d3e828251611d10565b6020810151611d506040840182611d10565b505050565b6000610140610100808785378181850152506103208301611d83828501875180518252602090810151910152565b6020915081860151611d99610180860182611d33565b50604080870151611dae610200870182611d33565b506060870151611dc2610280870182611d33565b5060808701516101e06103008701528051928390528301916000906103408701905b80831015611e1557611e0182865180518252602090810151910152565b938501936001929092019190830190611de4565b50868103610120880152610bda81896114ef565b600060208284031215611e3b57600080fd5b8151801515811461153d57600080fd5b60808101818360005b6004811015611e73578151835260209283019290910190600101611e54565b50505092915050565b815160009082906020808601845b83811015611ea657815185529382019390820190600101611e8a565b50929695505050505050565b6000825160005b81811015611ed35760208186018101518583015201611eb9565b506000920191825250919050565b600082611efe57634e487b7160e01b600052601260045260246000fd5b500690565b60408101818360005b6002811015611e73578151835260209283019290910190600101611f0c565b60a08101818360005b6005811015611e73578151835260209283019290910190600101611f34565b81810381811115610c6357610c63611999565b8082028115828204841417610c6357610c63611999565b60608101818360005b6003811015611e73578151835260209283019290910190600101611f86565b600060018201611fb757611fb7611999565b506001019056fea26469706673582212201e89f4993368a4ec1c6f698ed67f20c3650f75b3489d8b083e9d947e787c7c9164736f6c63430008140033a264697066735822122059721d06596a7f12eb9d46818deff05e0a2794b70b7614809d5a68288b6b868964736f6c63430008140033",
  "deployedBytecode": "0x608060405234801561001057600080fd5b50600436106100365760003560e01c8063363448731461003b578063683f3dc31461006b575b600080fd5b61004e6100493660046100f8565b610085565b6040516001600160a01b0390911681526020015b60405180910390f35b610073600a81565b60405160ff9091168152602001610062565b6000808686868686604051610099906100cf565b6100a7959493929190610165565b604051809103906000f0801580156100c3573d6000803e3d6000fd5b50979650505050505050565b612264806101bc83390190565b80356001600160a01b03811681146100f357600080fd5b919050565b600080600080600060a0868803121561011057600080fd5b610119866100dc565b9450610127602087016100dc565b9350610135604087016100dc565b9250610143606087016100dc565b915060808601356002811061015757600080fd5b809150509295509295909350565b6001600160a01b038681168252858116602083015284811660408301528316606082015260a08101600283106101ab57634e487b7160e01b600052602160045260246000fd5b826080830152969550505050505056fe6101006040526040516200226438038062002264833981016040819052620000279162000124565b816001600160a01b0381166200005757604051631e4fbdf760e01b81526000600482015260240160405180910390fd5b6200006281620000b7565b506001600160a01b0380861660a05284811660c05283166080528060018111156200009157620000916200019b565b60e0816001811115620000a857620000a86200019b565b815250505050505050620001b1565b600080546001600160a01b038381166001600160a01b0319831681178455604051919092169283917f8be0079c531659141344cd1fd0a4f28419497f9722a3daafe3b4186f6b6457e09190a35050565b80516001600160a01b03811681146200011f57600080fd5b919050565b600080600080600060a086880312156200013d57600080fd5b620001488662000107565b9450620001586020870162000107565b9350620001686040870162000107565b9250620001786060870162000107565b91506080860151600281106200018d57600080fd5b809150509295509295909350565b634e487b7160e01b600052602160045260246000fd5b60805160a05160c05160e051611ff462000270600039600081816101cc0152610ac201526000818161016a0152610a240152600081816102000152610b600152600081816102ef0152818161035a015281816103e40152818161046a01528181610500015281816105880152818161071b0152818161082e015281816109050152818161099001528181610dbd01528181610e0e01528181610eb001528181610f4b0152818161106d015281816110fa01526112080152611ff46000f3fe608060405234801561001057600080fd5b50600436106101375760003560e01c8063683f3dc3116100b85780639cfced971161007c5780639cfced97146102d7578063a1175279146102ea578063b1a263d314610311578063bea140b314610324578063d13181b814610337578063f2fde38b1461034057600080fd5b8063683f3dc314610285578063715018a61461029f5780637a38d18f146102a95780638763d0c4146102b25780638da5cb5b146102c657600080fd5b80633d6528a1116100ff5780633d6528a1146102225780633dfb88b21461023957806358bfc3791461024c5780635bb939951461025f57806362a361bb1461027257600080fd5b8063023650801461013c57806313fb89321461016557806324fab879146101a4578063295a5212146101c75780632b7ac3f3146101fb575b600080fd5b61014f61014a3660046114cd565b610353565b60405161015c919061152a565b60405180910390f35b61018c7f000000000000000000000000000000000000000000000000000000000000000081565b6040516001600160a01b03909116815260200161015c565b6101b76101b2366004611556565b6108fd565b604051901515815260200161015c565b6101ee7f000000000000000000000000000000000000000000000000000000000000000081565b60405161015c91906115af565b61018c7f000000000000000000000000000000000000000000000000000000000000000081565b61022b60025481565b60405190815260200161015c565b61022b610247366004611650565b610be8565b61022b61025a3660046116f2565b610c69565b61022b61026d3660046114cd565b610d03565b61022b610280366004611788565b610d28565b61028d600a81565b60405160ff909116815260200161015c565b6102a7610d62565b005b61022b60015481565b6000546101b790600160a01b900460ff1681565b6000546001600160a01b031661018c565b61022b6102e53660046117e8565b610d76565b61018c7f000000000000000000000000000000000000000000000000000000000000000081565b6102a761031f366004611823565b610db0565b61022b610332366004611851565b6112df565b61022b60035481565b6102a761034e3660046118bf565b611319565b60606000807f00000000000000000000000000000000000000000000000000000000000000006001600160a01b031663ac98e5df6040518163ffffffff1660e01b8152600401608060405180830381865afa1580156103b6573d6000803e3d6000fd5b505050506040513d601f19601f820116820180604052508101906103da91906118f2565b50925092505060007f00000000000000000000000000000000000000000000000000000000000000006001600160a01b031663bc14ee2b6040518163ffffffff1660e01b81526004016040805180830381865afa15801561043f573d6000803e3d6000fd5b505050506040513d601f19601f820116820180604052508101906104639190611946565b91505060007f00000000000000000000000000000000000000000000000000000000000000006001600160a01b0316638aa0ba926040518163ffffffff1660e01b8152600401602060405180830381865afa1580156104c6573d6000803e3d6000fd5b505050506040513d601f19601f820116820180604052508101906104ea9190611980565b905060006104f9856005611a93565b90506000807f00000000000000000000000000000000000000000000000000000000000000006001600160a01b0316634f367f0f6040518163ffffffff1660e01b81526004016040805180830381865afa15801561055b573d6000803e3d6000fd5b505050506040513d601f19601f8201168201806040525081019061057f9190611aa2565b915091506000807f00000000000000000000000000000000000000000000000000000000000000006001600160a01b0316634909229f6040518163ffffffff1660e01b81526004016040805180830381865afa1580156105e3573d6000803e3d6000fd5b505050506040513d601f19601f820116820180604052508101906106079190611aa2565b90925090506000610618868e611ac6565b9050838111156106255750825b6040805160098082526101408201909252906020820161012080368337019050509a50848b60008151811061065c5761065c611ad9565b60209081029190910101526106718284611ac6565b8b60018151811061068457610684611ad9565b6020908102919091010152604051631b9b8aa760e01b815260ff8a1660048201526001600160a01b03891690631b9b8aa790602401602060405180830381865afa1580156106d6573d6000803e3d6000fd5b505050506040513d601f19601f820116820180604052508101906106fa9190611980565b8b60028151811061070d5761070d611ad9565b6020026020010181815250507f00000000000000000000000000000000000000000000000000000000000000006001600160a01b0316637028bb0e6040518163ffffffff1660e01b8152600401602060405180830381865afa158015610777573d6000803e3d6000fd5b505050506040513d601f19601f8201168201806040525081019061079b9190611aef565b60ff168b6003815181106107b1576107b1611ad9565b602002602001018181525050808b6004815181106107d1576107d1611ad9565b6020026020010181815250508c8b6005815181106107f1576107f1611ad9565b602002602001018181525050868b60068151811061081157610811611ad9565b60209081029190910101526003541561082c576003546108ae565b7f00000000000000000000000000000000000000000000000000000000000000006001600160a01b031663c17268d96040518163ffffffff1660e01b8152600401602060405180830381865afa15801561088a573d6000803e3d6000fd5b505050506040513d601f19601f820116820180604052508101906108ae9190611980565b8b6007815181106108c1576108c1611ad9565b6020026020010181815250508b8b6008815181106108e1576108e1611ad9565b6020026020010181815250505050505050505050505092915050565b6000806000807f00000000000000000000000000000000000000000000000000000000000000006001600160a01b031663ac98e5df6040518163ffffffff1660e01b8152600401608060405180830381865afa158015610961573d6000803e3d6000fd5b505050506040513d601f19601f8201168201806040525081019061098591906118f2565b9350935093505060007f00000000000000000000000000000000000000000000000000000000000000006001600160a01b031663bc14ee2b6040518163ffffffff1660e01b81526004016040805180830381865afa1580156109eb573d6000803e3d6000fd5b505050506040513d601f19601f82011682018060405250810190610a0f9190611946565b5090506000610a1e8989610353565b905060007f00000000000000000000000000000000000000000000000000000000000000006001600160a01b031663d88ff4f5846001600160a01b031663652c76e46040518163ffffffff1660e01b8152600401602060405180830381865afa158015610a8f573d6000803e3d6000fd5b505050506040513d601f19601f82011682018060405250810190610ab39190611aef565b8787610ac08b6005611a93565b7f00000000000000000000000000000000000000000000000000000000000000006040518663ffffffff1660e01b8152600401610b01959493929190611b0a565b600060405180830381865afa158015610b1e573d6000803e3d6000fd5b505050506040513d6000823e601f3d908101601f19168201604052610b469190810190611bf7565b60405163352a4d1560e01b81529091506001600160a01b037f0000000000000000000000000000000000000000000000000000000000000000169063352a4d1590610b99908b9085908790600401611d55565b602060405180830381865afa158015610bb6573d6000803e3d6000fd5b505050506040513d601f19601f82011682018060405250810190610bda9190611e29565b9a9950505050505050505050565b60405163248f667760e01b815260009073__$ce9c2c925f157047e54fa833ec4e61409f$__9063248f667790610c22908590600401611e4b565b602060405180830381865af4158015610c3f573d6000803e3d6000fd5b505050506040513d601f19601f82011682018060405250810190610c639190611980565b92915050565b60007f30644e72e131a029b85045b68181585d2833e84879b9709143e1f593f0000001600283604051602001610c9f9190611e7c565b60408051601f1981840301815290829052610cb991611eb2565b602060405180830381855afa158015610cd6573d6000803e3d6000fd5b5050506040513d601f19601f82011682018060405250810190610cf99190611980565b610c639190611ee1565b6000610d0d6114af565b83815260208101839052610d2081610d28565b949350505050565b6040516314d2f97b60e11b815260009073__$6574937f64fc1d7710ec0e28b7a36713bb$__906329a5f2f690610c22908590600401611f03565b610d6a61135c565b610d746000611389565b565b604051630926f44b60e31b815260009073__$20527677031d76601747626a9845039fe4$__90634937a25890610c22908590600401611f2b565b610db861135c565b610de17f00000000000000000000000000000000000000000000000000000000000000006113d9565b600054600160a01b900460ff1615610e0c5760405163a7f0397560e01b815260040160405180910390fd5b7f00000000000000000000000000000000000000000000000000000000000000006001600160a01b031663e33b13a06040518163ffffffff1660e01b8152600401602060405180830381865afa158015610e6a573d6000803e3d6000fd5b505050506040513d601f19601f82011682018060405250810190610e8e9190611e29565b610eab5760405163e5fe9e1560e01b815260040160405180910390fd5b6000807f00000000000000000000000000000000000000000000000000000000000000006001600160a01b031663ac98e5df6040518163ffffffff1660e01b8152600401608060405180830381865afa158015610f0c573d6000803e3d6000fd5b505050506040513d601f19601f82011682018060405250810190610f3091906118f2565b5092509250506000826005610f459190611a93565b905060007f00000000000000000000000000000000000000000000000000000000000000006001600160a01b031663bc14ee2b6040518163ffffffff1660e01b81526004016040805180830381865afa158015610fa6573d6000803e3d6000fd5b505050506040513d601f19601f82011682018060405250810190610fca9190611946565b604051631b9b8aa760e01b815260ff86166004820152909250600091506001600160a01b03831690631b9b8aa790602401602060405180830381865afa158015611018573d6000803e3d6000fd5b505050506040513d601f19601f8201168201806040525081019061103c9190611980565b90508060000361105f5760405163c0b868a560e01b815260040160405180910390fd5b6001546000036111d75760007f00000000000000000000000000000000000000000000000000000000000000006001600160a01b031663c17268d96040518163ffffffff1660e01b8152600401602060405180830381865afa1580156110c9573d6000803e3d6000fd5b505050506040513d601f19601f820116820180604052508101906110ed9190611980565b90508060038190555060007f00000000000000000000000000000000000000000000000000000000000000006001600160a01b0316634f367f0f6040518163ffffffff1660e01b81526004016040805180830381865afa158015611155573d6000803e3d6000fd5b505050506040513d601f19601f820116820180604052508101906111799190611aa2565b9150600090506111898683611ee1565b6002839055905081156111d357806000036111bb5785600260008282546111b09190611f53565b909155506111d39050565b80600260008282546111cd9190611f53565b90915550505b5050505b6111e460025488886108fd565b6112045760405160016268f24f60e01b0319815260040160405180910390fd5b60007f00000000000000000000000000000000000000000000000000000000000000006001600160a01b0316634f367f0f6040518163ffffffff1660e01b81526004016040805180830381865afa158015611263573d6000803e3d6000fd5b505050506040513d601f19601f820116820180604052508101906112879190611aa2565b915050600060025411156112ad5783600260008282546112a79190611f53565b90915550505b6112d58860025460015460016112c39190611ac6565b6112cd9088611f66565b841115611476565b5050505050505050565b6040516304b98e1d60e31b815260009073__$dc01a9744591ab014bc46a3b7671cdaefb$__906325cc70e890610c22908590600401611f7d565b61132161135c565b6001600160a01b03811661135057604051631e4fbdf760e01b8152600060048201526024015b60405180910390fd5b61135981611389565b50565b6000546001600160a01b03163314610d745760405163118cdaa760e01b8152336004820152602401611347565b600080546001600160a01b038381166001600160a01b0319831681178455604051919092169283917f8be0079c531659141344cd1fd0a4f28419497f9722a3daafe3b4186f6b6457e09190a35050565b600080826001600160a01b0316634909229f6040518163ffffffff1660e01b81526004016040805180830381865afa158015611419573d6000803e3d6000fd5b505050506040513d601f19601f8201168201806040525081019061143d9190611aa2565b9092509050600061144e8342611f53565b905081811161147057604051635c3017c560e11b815260040160405180910390fd5b50505050565b60038390556000805460ff60a01b1916600160a01b83151502178155600283905560018054916114a583611fa5565b9190505550505050565b60405180604001604052806002906020820280368337509192915050565b600080604083850312156114e057600080fd5b50508035926020909101359150565b600081518084526020808501945080840160005b8381101561151f57815187529582019590820190600101611503565b509495945050505050565b60208152600061153d60208301846114ef565b9392505050565b806101008101831015610c6357600080fd5b6000806000610140848603121561156c57600080fd5b83359250602084013591506115848560408601611544565b90509250925092565b600281106115ab57634e487b7160e01b600052602160045260246000fd5b9052565b60208101610c63828461158d565b634e487b7160e01b600052604160045260246000fd5b6040805190810167ffffffffffffffff811182821017156115f6576115f66115bd565b60405290565b60405160a0810167ffffffffffffffff811182821017156115f6576115f66115bd565b604051601f8201601f1916810167ffffffffffffffff81118282101715611648576116486115bd565b604052919050565b60006080828403121561166257600080fd5b82601f83011261167157600080fd5b6040516080810181811067ffffffffffffffff82111715611694576116946115bd565b6040528060808401858111156116a957600080fd5b845b818110156116c35780358352602092830192016116ab565b509195945050505050565b600067ffffffffffffffff8211156116e8576116e86115bd565b5060051b60200190565b6000602080838503121561170557600080fd5b823567ffffffffffffffff81111561171c57600080fd5b8301601f8101851361172d57600080fd5b803561174061173b826116ce565b61161f565b81815260059190911b8201830190838101908783111561175f57600080fd5b928401925b8284101561177d57833582529284019290840190611764565b979650505050505050565b60006040828403121561179a57600080fd5b82601f8301126117a957600080fd5b6117b16115d3565b8060408401858111156117c357600080fd5b845b818110156117dd5780358452602093840193016117c5565b509095945050505050565b600060a082840312156117fa57600080fd5b82601f83011261180957600080fd5b6118116115fc565b8060a08401858111156117c357600080fd5b600080610120838503121561183757600080fd5b823591506118488460208501611544565b90509250929050565b60006060828403121561186357600080fd5b82601f83011261187257600080fd5b6040516060810181811067ffffffffffffffff82111715611895576118956115bd565b6040528060608401858111156116a957600080fd5b6001600160a01b038116811461135957600080fd5b6000602082840312156118d157600080fd5b813561153d816118aa565b805160ff811681146118ed57600080fd5b919050565b6000806000806080858703121561190857600080fd5b611911856118dc565b935061191f602086016118dc565b925061192d604086016118dc565b915061193b606086016118dc565b905092959194509250565b6000806040838503121561195957600080fd5b8251611964816118aa565b6020840151909250611975816118aa565b809150509250929050565b60006020828403121561199257600080fd5b5051919050565b634e487b7160e01b600052601160045260246000fd5b600181815b808511156119ea5781600019048211156119d0576119d0611999565b808516156119dd57918102915b93841c93908002906119b4565b509250929050565b600082611a0157506001610c63565b81611a0e57506000610c63565b8160018114611a245760028114611a2e57611a4a565b6001915050610c63565b60ff841115611a3f57611a3f611999565b50506001821b610c63565b5060208310610133831016604e8410600b8410161715611a6d575081810a610c63565b611a7783836119af565b8060001904821115611a8b57611a8b611999565b029392505050565b600061153d60ff8416836119f2565b60008060408385031215611ab557600080fd5b505080516020909101519092909150565b80820180821115610c6357610c63611999565b634e487b7160e01b600052603260045260246000fd5b600060208284031215611b0157600080fd5b61153d826118dc565b60ff86811682528581166020830152841660408201526060810183905260a08101611b38608083018461158d565b9695505050505050565b600060408284031215611b5457600080fd5b611b5c6115d3565b9050815181526020820151602082015292915050565b600082601f830112611b8357600080fd5b611b8b6115d3565b806040840185811115611b9d57600080fd5b845b818110156117dd578051845260209384019301611b9f565b600060808284031215611bc957600080fd5b611bd16115d3565b9050611bdd8383611b72565b8152611bec8360408401611b72565b602082015292915050565b60006020808385031215611c0a57600080fd5b825167ffffffffffffffff80821115611c2257600080fd5b908401906101e08287031215611c3757600080fd5b611c3f6115fc565b611c498784611b42565b81526040611c5988828601611bb7565b85830152611c6a8860c08601611bb7565b81830152611c7c886101408601611bb7565b60608301526101c084015183811115611c9457600080fd5b80850194505087601f850112611ca957600080fd5b83519250611cb961173b846116ce565b83815260069390931b84018501928581019089851115611cd857600080fd5b948601945b84861015611cfe57611cef8a87611b42565b82529482019490860190611cdd565b60808401525090979650505050505050565b8060005b6002811015611470578151845260209384019390910190600101611d14565b611d3e828251611d10565b6020810151611d506040840182611d10565b505050565b6000610140610100808785378181850152506103208301611d83828501875180518252602090810151910152565b6020915081860151611d99610180860182611d33565b50604080870151611dae610200870182611d33565b506060870151611dc2610280870182611d33565b5060808701516101e06103008701528051928390528301916000906103408701905b80831015611e1557611e0182865180518252602090810151910152565b938501936001929092019190830190611de4565b50868103610120880152610bda81896114ef565b600060208284031215611e3b57600080fd5b8151801515811461153d57600080fd5b60808101818360005b6004811015611e73578151835260209283019290910190600101611e54565b50505092915050565b815160009082906020808601845b83811015611ea657815185529382019390820190600101611e8a565b50929695505050505050565b6000825160005b81811015611ed35760208186018101518583015201611eb9565b506000920191825250919050565b600082611efe57634e487b7160e01b600052601260045260246000fd5b500690565b60408101818360005b6002811015611e73578151835260209283019290910190600101611f0c565b60a08101818360005b6005811015611e73578151835260209283019290910190600101611f34565b81810381811115610c6357610c63611999565b8082028115828204841417610c6357610c63611999565b60608101818360005b6003811015611e73578151835260209283019290910190600101611f86565b600060018201611fb757611fb7611999565b506001019056fea26469706673582212201e89f4993368a4ec1c6f698ed67f20c3650f75b3489d8b083e9d947e787c7c9164736f6c63430008140033a264697066735822122059721d06596a7f12eb9d46818deff05e0a2794b70b7614809d5a68288b6b868964736f6c63430008140033",
  "libraries": {
    "PoseidonT3": "0xd94b9aE62067cE0A7703bcCCEF792DE74428B348",
    "PoseidonT4": "0x1911643B982B37779F1C1d65900FC42499240066",
    "PoseidonT5": "0x33764231F52fFF5fF2E2331E295ec8Ff67ffe8B8",
    "PoseidonT6": "0x70a6520eB5AAA0776f7f766Ff2D6eEa6CB3AAcF9"
  }
}