{
  "address": "0x9C6d9F8a10Af92EFf70DBF8EdA0dB2929D7f0c06",
  "abi": [
    {
      "inputs": [],
      "name": "MESSAGE_DATA_LENGTH",
      "outputs": [
        {
          "internalType": "uint8",
          "name": "",
          "type": "uint8"
        }
      ],
      "stateMutability": "view",
      "type": "function"
    },
    {
      "inputs": [
        {
          "internalType": "address",
          "name": "_verifier",
          "type": "address"
        },
        {
          "internalType": "address",
          "name": "_vkRegistry",
          "type": "address"
        },
        {
          "internalType": "address",
          "name": "_poll",
          "type": "address"
        },
        {
          "internalType": "address",
          "name": "_messageProcessor",
          "type": "address"
        },
        {
          "internalType": "address",
          "name": "_owner",
          "type": "address"
        },
        {
          "internalType": "enum DomainObjs.Mode",
          "name": "_mode",
          "type": "uint8"
        }
      ],
      "name": "deploy",
      "outputs": [
        {
          "internalType": "address",
          "name": "tallyAddr",
          "type": "address"
        }
      ],
      "stateMutability": "nonpayable",
      "type": "function"
    }
  ],
  "transactionHash": "0x03fbf38294415ca5bb25973a20ae3b16abc75c6f40451395c41be1cd5aab9234",
  "args": [],
  "numDeployments": 1,
  "bytecode": "0x608060405234801561001057600080fd5b50612537806100206000396000f3fe608060405234801561001057600080fd5b50600436106100365760003560e01c8063431a71751461003b578063683f3dc31461006b575b600080fd5b61004e6100493660046100fb565b610085565b6040516001600160a01b0390911681526020015b60405180910390f35b610073600a81565b60405160ff9091168152602001610062565b60008087878787878760405161009a906100d2565b6100a996959493929190610177565b604051809103906000f0801580156100c5573d6000803e3d6000fd5b5098975050505050505050565b61232b806101d783390190565b80356001600160a01b03811681146100f657600080fd5b919050565b60008060008060008060c0878903121561011457600080fd5b61011d876100df565b955061012b602088016100df565b9450610139604088016100df565b9350610147606088016100df565b9250610155608088016100df565b915060a08701356002811061016957600080fd5b809150509295509295509295565b6001600160a01b0387811682528681166020830152858116604083015284811660608301528316608082015260c08101600283106101c557634e487b7160e01b600052602160045260246000fd5b8260a083015297965050505050505056fe6101206040526040516200232b3803806200232b83398101604081905262000027916200012c565b816001600160a01b0381166200005757604051631e4fbdf760e01b81526000600482015260240160405180910390fd5b6200006281620000bf565b506001600160a01b0380871660805285811660a05284811660c052831660e052806001811115620000975762000097620001b4565b610100816001811115620000af57620000af620001b4565b81525050505050505050620001ca565b600080546001600160a01b038381166001600160a01b0319831681178455604051919092169283917f8be0079c531659141344cd1fd0a4f28419497f9722a3daafe3b4186f6b6457e09190a35050565b80516001600160a01b03811681146200012757600080fd5b919050565b60008060008060008060c087890312156200014657600080fd5b62000151876200010f565b955062000161602088016200010f565b945062000171604088016200010f565b935062000181606088016200010f565b925062000191608088016200010f565b915060a087015160028110620001a657600080fd5b809150509295509295509295565b634e487b7160e01b600052602160045260246000fd5b60805160a05160c05160e0516101005161209e6200028d600039600081816102400152818161055f015281816105ab015281816108fd01528181610b6901528181610bd90152610dfa0152600081816103c00152818161060001526106a90152600081816103570152818161040c0152818161073c0152818161076c0152818161081801528181610c4901528181610cd301528181610f5d0152610fe60152600081816101e40152610d670152600081816102740152610e97015261209e6000f3fe608060405234801561001057600080fd5b506004361061018e5760003560e01c8063683f3dc3116100de578063afb93bd311610097578063d0380fe211610071578063d0380fe2146103bb578063d13181b8146103e2578063e3ff7606146103eb578063f2fde38b146103f357600080fd5b8063afb93bd31461038c578063b904438814610395578063bea140b3146103a857600080fd5b8063683f3dc31461030c578063715018a6146103265780638da5cb5b1461032e5780639cfced971461033f578063a117527914610352578063a21fb5111461037957600080fd5b80632b7ac3f31161014b57806358bfc3791161012557806358bfc379146102ca5780635bb93995146102dd57806361750293146102f057806362a361bb146102f957600080fd5b80632b7ac3f31461026f5780632d966bf4146102965780633dfb88b2146102a957600080fd5b8063023650801461019357806310bc5f51146101bc57806313fb8932146101df57806316425eeb1461021e57806323e3feb114610228578063295a52121461023b575b600080fd5b6101a66101a13660046113e4565b610406565b6040516101b39190611441565b60405180910390f35b6101cf6101ca36600461145b565b61055a565b60405190151581526020016101b3565b6102067f000000000000000000000000000000000000000000000000000000000000000081565b6040516001600160a01b0390911681526020016101b3565b6102266105f6565b005b61022661023636600461149f565b61072f565b6102627f000000000000000000000000000000000000000000000000000000000000000081565b6040516101b39190611505565b6102067f000000000000000000000000000000000000000000000000000000000000000081565b6101cf6102a4366004611532565b6108f8565b6102bc6102b736600461167b565b610999565b6040519081526020016101b3565b6102bc6102d836600461171d565b610a1a565b6102bc6102eb3660046113e4565b610ab4565b6102bc60015481565b6102bc6103073660046117b3565b610acd565b610314600a81565b60405160ff90911681526020016101b3565b610226610b07565b6000546001600160a01b0316610206565b6102bc61034d366004611813565b610b19565b6102067f000000000000000000000000000000000000000000000000000000000000000081565b6101cf610387366004611532565b610b53565b6102bc60025481565b6101cf6103a336600461184e565b610c42565b6102bc6103b6366004611885565b610f1e565b6102067f000000000000000000000000000000000000000000000000000000000000000081565b6102bc60035481565b6101cf610f58565b6102266104013660046118f3565b61108a565b606060007f00000000000000000000000000000000000000000000000000000000000000006001600160a01b0316634f367f0f6040518163ffffffff1660e01b81526004016040805180830381865afa158015610467573d6000803e3d6000fd5b505050506040513d601f19601f8201168201806040525081019061048b9190611910565b5060408051600580825260c082019092529192506020820160a080368337019050509150600354826000815181106104c5576104c5611934565b602002602001018181525050600154826001815181106104e7576104e7611934565b602002602001018181525050828260028151811061050757610507611934565b602002602001018181525050838260038151811061052757610527611934565b602002602001018181525050808260048151811061054757610547611934565b6020026020010181815250505092915050565b6000807f0000000000000000000000000000000000000000000000000000000000000000600181111561058f5761058f6114cd565b036105a7576105a0858585856110cd565b90506105ee565b60017f000000000000000000000000000000000000000000000000000000000000000060018111156105db576105db6114cd565b036105ee576105eb858585611107565b90505b949350505050565b6105fe611139565b7f00000000000000000000000000000000000000000000000000000000000000006001600160a01b0316638763d0c46040518163ffffffff1660e01b8152600401602060405180830381865afa15801561065c573d6000803e3d6000fd5b505050506040513d601f19601f82011682018060405250810190610680919061194a565b61069d5760405163f13e1b8560e01b815260040160405180910390fd5b60035460000361072d577f00000000000000000000000000000000000000000000000000000000000000006001600160a01b031663d13181b86040518163ffffffff1660e01b8152600401602060405180830381865afa158015610705573d6000803e3d6000fd5b505050506040513d601f19601f82011682018060405250810190610729919061196c565b6003555b565b610737611139565b6107607f0000000000000000000000000000000000000000000000000000000000000000611166565b6107686105f6565b60007f00000000000000000000000000000000000000000000000000000000000000006001600160a01b031663ac98e5df6040518163ffffffff1660e01b8152600401608060405180830381865afa1580156107c8573d6000803e3d6000fd5b505050506040513d601f19601f820116820180604052508101906107ec9190611985565b505050905060008160026108009190611ade565b90506000816002546108129190611aed565b905060007f00000000000000000000000000000000000000000000000000000000000000006001600160a01b0316634f367f0f6040518163ffffffff1660e01b81526004016040805180830381865afa158015610873573d6000803e3d6000fd5b505050506040513d601f19601f820116820180604052508101906108979190611910565b5090508082106108ba5760405163b3f8c18960e01b815260040160405180910390fd5b6002805460010190556108ce828787610c42565b6108eb576040516341acf34d60e01b815260040160405180910390fd5b5050506001929092555050565b6000807f0000000000000000000000000000000000000000000000000000000000000000600181111561092d5761092d6114cd565b1461094b57604051630280e1e560e61b815260040160405180910390fd5b600061095a858b8b8b8b611203565b905061096461138a565b838152602081018590526109788288610ab4565b604082015260015461098982610f1e565b149b9a5050505050505050505050565b60405163248f667760e01b81526000907333764231F52fFF5fF2E2331E295ec8Ff67ffe8B89063248f6677906109d3908590600401611b04565b602060405180830381865af41580156109f0573d6000803e3d6000fd5b505050506040513d601f19601f82011682018060405250810190610a14919061196c565b92915050565b60007f30644e72e131a029b85045b68181585d2833e84879b9709143e1f593f0000001600283604051602001610a509190611b35565b60408051601f1981840301815290829052610a6a91611b6b565b602060405180830381855afa158015610a87573d6000803e3d6000fd5b5050506040513d601f19601f82011682018060405250810190610aaa919061196c565b610a149190611bb0565b6000610abe6113a8565b838152602081018390526105ee815b6040516314d2f97b60e11b815260009073d94b9aE62067cE0A7703bcCCEF792DE74428B348906329a5f2f6906109d3908590600401611bc4565b610b0f611139565b61072d600061133a565b604051630926f44b60e31b81526000907370a6520eB5AAA0776f7f766Ff2D6eEa6CB3AAcF990634937a258906109d3908590600401611bec565b600080610b63858b8b8b8b611203565b905060007f00000000000000000000000000000000000000000000000000000000000000006001811115610b9957610b996114cd565b03610bd557610ba661138a565b610bb08288610ab4565b81526020810185905260408101849052600154610bcc82610f1e565b14925050610c35565b60017f00000000000000000000000000000000000000000000000000000000000000006001811115610c0957610c096114cd565b03610c3557610c166113a8565b610c208288610ab4565b81526020810185905260015461098982610acd565b5098975050505050505050565b60008060007f00000000000000000000000000000000000000000000000000000000000000006001600160a01b031663ac98e5df6040518163ffffffff1660e01b8152600401608060405180830381865afa158015610ca5573d6000803e3d6000fd5b505050506040513d601f19601f82011682018060405250810190610cc99190611985565b93505050915060007f00000000000000000000000000000000000000000000000000000000000000006001600160a01b031663bc14ee2b6040518163ffffffff1660e01b81526004016040805180830381865afa158015610d2e573d6000803e3d6000fd5b505050506040513d601f19601f82011682018060405250810190610d529190611c14565b5090506000610d618888610406565b905060007f00000000000000000000000000000000000000000000000000000000000000006001600160a01b03166310b37e4d846001600160a01b031663652c76e46040518163ffffffff1660e01b8152600401602060405180830381865afa158015610dd2573d6000803e3d6000fd5b505050506040513d601f19601f82011682018060405250810190610df69190611c4e565b87877f00000000000000000000000000000000000000000000000000000000000000006040518563ffffffff1660e01b8152600401610e389493929190611c6b565b600060405180830381865afa158015610e55573d6000803e3d6000fd5b505050506040513d6000823e601f3d908101601f19168201604052610e7d9190810190611d50565b60405163352a4d1560e01b81529091506001600160a01b037f0000000000000000000000000000000000000000000000000000000000000000169063352a4d1590610ed0908a9085908790600401611eae565b602060405180830381865afa158015610eed573d6000803e3d6000fd5b505050506040513d601f19601f82011682018060405250810190610f11919061194a565b9998505050505050505050565b6040516304b98e1d60e31b8152600090731911643B982B37779F1C1d65900FC42499240066906325cc70e8906109d3908590600401611f90565b6000807f00000000000000000000000000000000000000000000000000000000000000006001600160a01b031663ac98e5df6040518163ffffffff1660e01b8152600401608060405180830381865afa158015610fb9573d6000803e3d6000fd5b505050506040513d601f19601f82011682018060405250810190610fdd9190611985565b505050905060007f00000000000000000000000000000000000000000000000000000000000000006001600160a01b0316634f367f0f6040518163ffffffff1660e01b81526004016040805180830381865afa158015611041573d6000803e3d6000fd5b505050506040513d601f19601f820116820180604052508101906110659190611910565b50905080611074836002611ade565b6002546110819190611aed565b10159250505090565b611092611139565b6001600160a01b0381166110c157604051631e4fbdf760e01b8152600060048201526024015b60405180910390fd5b6110ca8161133a565b50565b60006110d761138a565b8381526110e48686610ab4565b6020820152604081018390526001546110fc82610f1e565b149695505050505050565b60006111116113a8565b82815261111e8585610ab4565b602082015260015461112f82610acd565b1495945050505050565b6000546001600160a01b0316331461072d5760405163118cdaa760e01b81523360048201526024016110b8565b600080826001600160a01b0316634909229f6040518163ffffffff1660e01b81526004016040805180830381865afa1580156111a6573d6000803e3d6000fd5b505050506040513d601f19601f820116820180604052508101906111ca9190611910565b909250905060006111db8342611fb8565b90508181116111fd57604051635c3017c560e11b815260040160405180910390fd5b50505050565b600080611211600587611bb0565b905084915060006112206113c6565b60005b8960ff168160ff16101561132d5760005b60058160ff1610156112f757848160ff160361126a5785838260ff166005811061126057611260611934565b60200201526112e7565b848160ff16111561128757611280600182611fcb565b935061128b565b8093505b87878360ff168181106112a0576112a0611934565b90506020028101906112b29190611fe4565b8560ff168181106112c5576112c5611934565b90506020020135838260ff16600581106112e1576112e1611934565b60200201525b6112f081612035565b9050611234565b5061130360058a612054565b985061131060058a611bb0565b935061131b82610b19565b945061132681612035565b9050611223565b5050505095945050505050565b600080546001600160a01b038381166001600160a01b0319831681178455604051919092169283917f8be0079c531659141344cd1fd0a4f28419497f9722a3daafe3b4186f6b6457e09190a35050565b60405180606001604052806003906020820280368337509192915050565b60405180604001604052806002906020820280368337509192915050565b6040518060a001604052806005906020820280368337509192915050565b600080604083850312156113f757600080fd5b50508035926020909101359150565b600081518084526020808501945080840160005b838110156114365781518752958201959082019060010161141a565b509495945050505050565b6020815260006114546020830184611406565b9392505050565b6000806000806080858703121561147157600080fd5b5050823594602084013594506040840135936060013592509050565b806101008101831015610a1457600080fd5b60008061012083850312156114b357600080fd5b823591506114c4846020850161148d565b90509250929050565b634e487b7160e01b600052602160045260246000fd5b6002811061150157634e487b7160e01b600052602160045260246000fd5b9052565b60208101610a1482846114e3565b60ff811681146110ca57600080fd5b803561152d81611513565b919050565b60008060008060008060008060e0898b03121561154e57600080fd5b8835975060208901359650604089013567ffffffffffffffff8082111561157457600080fd5b818b0191508b601f83011261158857600080fd5b81358181111561159757600080fd5b8c60208260051b85010111156115ac57600080fd5b602083019850809750505050606089013593506115cb60808a01611522565b925060a0890135915060c089013590509295985092959890939650565b634e487b7160e01b600052604160045260246000fd5b6040805190810167ffffffffffffffff81118282101715611621576116216115e8565b60405290565b60405160a0810167ffffffffffffffff81118282101715611621576116216115e8565b604051601f8201601f1916810167ffffffffffffffff81118282101715611673576116736115e8565b604052919050565b60006080828403121561168d57600080fd5b82601f83011261169c57600080fd5b6040516080810181811067ffffffffffffffff821117156116bf576116bf6115e8565b6040528060808401858111156116d457600080fd5b845b818110156116ee5780358352602092830192016116d6565b509195945050505050565b600067ffffffffffffffff821115611713576117136115e8565b5060051b60200190565b6000602080838503121561173057600080fd5b823567ffffffffffffffff81111561174757600080fd5b8301601f8101851361175857600080fd5b803561176b611766826116f9565b61164a565b81815260059190911b8201830190838101908783111561178a57600080fd5b928401925b828410156117a85783358252928401929084019061178f565b979650505050505050565b6000604082840312156117c557600080fd5b82601f8301126117d457600080fd5b6117dc6115fe565b8060408401858111156117ee57600080fd5b845b818110156118085780358452602093840193016117f0565b509095945050505050565b600060a0828403121561182557600080fd5b82601f83011261183457600080fd5b61183c611627565b8060a08401858111156117ee57600080fd5b6000806000610140848603121561186457600080fd5b833592506020840135915061187c856040860161148d565b90509250925092565b60006060828403121561189757600080fd5b82601f8301126118a657600080fd5b6040516060810181811067ffffffffffffffff821117156118c9576118c96115e8565b6040528060608401858111156116d457600080fd5b6001600160a01b03811681146110ca57600080fd5b60006020828403121561190557600080fd5b8135611454816118de565b6000806040838503121561192357600080fd5b505080516020909101519092909150565b634e487b7160e01b600052603260045260246000fd5b60006020828403121561195c57600080fd5b8151801515811461145457600080fd5b60006020828403121561197e57600080fd5b5051919050565b6000806000806080858703121561199b57600080fd5b84516119a681611513565b60208601519094506119b781611513565b60408601519093506119c881611513565b60608601519092506119d981611513565b939692955090935050565b634e487b7160e01b600052601160045260246000fd5b600181815b80851115611a35578160001904821115611a1b57611a1b6119e4565b80851615611a2857918102915b93841c93908002906119ff565b509250929050565b600082611a4c57506001610a14565b81611a5957506000610a14565b8160018114611a6f5760028114611a7957611a95565b6001915050610a14565b60ff841115611a8a57611a8a6119e4565b50506001821b610a14565b5060208310610133831016604e8410600b8410161715611ab8575081810a610a14565b611ac283836119fa565b8060001904821115611ad657611ad66119e4565b029392505050565b600061145460ff841683611a3d565b8082028115828204841417610a1457610a146119e4565b60808101818360005b6004811015611b2c578151835260209283019290910190600101611b0d565b50505092915050565b815160009082906020808601845b83811015611b5f57815185529382019390820190600101611b43565b50929695505050505050565b6000825160005b81811015611b8c5760208186018101518583015201611b72565b506000920191825250919050565b634e487b7160e01b600052601260045260246000fd5b600082611bbf57611bbf611b9a565b500690565b60408101818360005b6002811015611b2c578151835260209283019290910190600101611bcd565b60a08101818360005b6005811015611b2c578151835260209283019290910190600101611bf5565b60008060408385031215611c2757600080fd5b8251611c32816118de565b6020840151909250611c43816118de565b809150509250929050565b600060208284031215611c6057600080fd5b815161145481611513565b60ff858116825284811660208301528316604082015260808101611c9260608301846114e3565b95945050505050565b600060408284031215611cad57600080fd5b611cb56115fe565b9050815181526020820151602082015292915050565b600082601f830112611cdc57600080fd5b611ce46115fe565b806040840185811115611cf657600080fd5b845b81811015611808578051845260209384019301611cf8565b600060808284031215611d2257600080fd5b611d2a6115fe565b9050611d368383611ccb565b8152611d458360408401611ccb565b602082015292915050565b60006020808385031215611d6357600080fd5b825167ffffffffffffffff80821115611d7b57600080fd5b908401906101e08287031215611d9057600080fd5b611d98611627565b611da28784611c9b565b81526040611db288828601611d10565b85830152611dc38860c08601611d10565b81830152611dd5886101408601611d10565b60608301526101c084015183811115611ded57600080fd5b80850194505087601f850112611e0257600080fd5b83519250611e12611766846116f9565b83815260069390931b84018501928581019089851115611e3157600080fd5b948601945b84861015611e5757611e488a87611c9b565b82529482019490860190611e36565b60808401525090979650505050505050565b8060005b60028110156111fd578151845260209384019390910190600101611e6d565b611e97828251611e69565b6020810151611ea96040840182611e69565b505050565b6000610140610100808785378181850152506103208301611edc828501875180518252602090810151910152565b6020915081860151611ef2610180860182611e8c565b50604080870151611f07610200870182611e8c565b506060870151611f1b610280870182611e8c565b5060808701516101e06103008701528051928390528301916000906103408701905b80831015611f6e57611f5a82865180518252602090810151910152565b938501936001929092019190830190611f3d565b50868103610120880152611f828189611406565b9a9950505050505050505050565b60608101818360005b6003811015611b2c578151835260209283019290910190600101611f99565b81810381811115610a1457610a146119e4565b60ff8281168282160390811115610a1457610a146119e4565b6000808335601e19843603018112611ffb57600080fd5b83018035915067ffffffffffffffff82111561201657600080fd5b6020019150600581901b360382131561202e57600080fd5b9250929050565b600060ff821660ff810361204b5761204b6119e4565b60010192915050565b60008261206357612063611b9a565b50049056fea2646970667358221220f2ad250b565f7dd1cc708fb7d91209d296f1e4853c72a9b11655df4508eff38964736f6c63430008140033a264697066735822122039c5fac0d4505bda0636184d01d34aa5d65bd0057e57097b7d26c38a9ecf29af64736f6c63430008140033",
  "deployedBytecode": "0x608060405234801561001057600080fd5b50600436106100365760003560e01c8063431a71751461003b578063683f3dc31461006b575b600080fd5b61004e6100493660046100fb565b610085565b6040516001600160a01b0390911681526020015b60405180910390f35b610073600a81565b60405160ff9091168152602001610062565b60008087878787878760405161009a906100d2565b6100a996959493929190610177565b604051809103906000f0801580156100c5573d6000803e3d6000fd5b5098975050505050505050565b61232b806101d783390190565b80356001600160a01b03811681146100f657600080fd5b919050565b60008060008060008060c0878903121561011457600080fd5b61011d876100df565b955061012b602088016100df565b9450610139604088016100df565b9350610147606088016100df565b9250610155608088016100df565b915060a08701356002811061016957600080fd5b809150509295509295509295565b6001600160a01b0387811682528681166020830152858116604083015284811660608301528316608082015260c08101600283106101c557634e487b7160e01b600052602160045260246000fd5b8260a083015297965050505050505056fe6101206040526040516200232b3803806200232b83398101604081905262000027916200012c565b816001600160a01b0381166200005757604051631e4fbdf760e01b81526000600482015260240160405180910390fd5b6200006281620000bf565b506001600160a01b0380871660805285811660a05284811660c052831660e052806001811115620000975762000097620001b4565b610100816001811115620000af57620000af620001b4565b81525050505050505050620001ca565b600080546001600160a01b038381166001600160a01b0319831681178455604051919092169283917f8be0079c531659141344cd1fd0a4f28419497f9722a3daafe3b4186f6b6457e09190a35050565b80516001600160a01b03811681146200012757600080fd5b919050565b60008060008060008060c087890312156200014657600080fd5b62000151876200010f565b955062000161602088016200010f565b945062000171604088016200010f565b935062000181606088016200010f565b925062000191608088016200010f565b915060a087015160028110620001a657600080fd5b809150509295509295509295565b634e487b7160e01b600052602160045260246000fd5b60805160a05160c05160e0516101005161209e6200028d600039600081816102400152818161055f015281816105ab015281816108fd01528181610b6901528181610bd90152610dfa0152600081816103c00152818161060001526106a90152600081816103570152818161040c0152818161073c0152818161076c0152818161081801528181610c4901528181610cd301528181610f5d0152610fe60152600081816101e40152610d670152600081816102740152610e97015261209e6000f3fe608060405234801561001057600080fd5b506004361061018e5760003560e01c8063683f3dc3116100de578063afb93bd311610097578063d0380fe211610071578063d0380fe2146103bb578063d13181b8146103e2578063e3ff7606146103eb578063f2fde38b146103f357600080fd5b8063afb93bd31461038c578063b904438814610395578063bea140b3146103a857600080fd5b8063683f3dc31461030c578063715018a6146103265780638da5cb5b1461032e5780639cfced971461033f578063a117527914610352578063a21fb5111461037957600080fd5b80632b7ac3f31161014b57806358bfc3791161012557806358bfc379146102ca5780635bb93995146102dd57806361750293146102f057806362a361bb146102f957600080fd5b80632b7ac3f31461026f5780632d966bf4146102965780633dfb88b2146102a957600080fd5b8063023650801461019357806310bc5f51146101bc57806313fb8932146101df57806316425eeb1461021e57806323e3feb114610228578063295a52121461023b575b600080fd5b6101a66101a13660046113e4565b610406565b6040516101b39190611441565b60405180910390f35b6101cf6101ca36600461145b565b61055a565b60405190151581526020016101b3565b6102067f000000000000000000000000000000000000000000000000000000000000000081565b6040516001600160a01b0390911681526020016101b3565b6102266105f6565b005b61022661023636600461149f565b61072f565b6102627f000000000000000000000000000000000000000000000000000000000000000081565b6040516101b39190611505565b6102067f000000000000000000000000000000000000000000000000000000000000000081565b6101cf6102a4366004611532565b6108f8565b6102bc6102b736600461167b565b610999565b6040519081526020016101b3565b6102bc6102d836600461171d565b610a1a565b6102bc6102eb3660046113e4565b610ab4565b6102bc60015481565b6102bc6103073660046117b3565b610acd565b610314600a81565b60405160ff90911681526020016101b3565b610226610b07565b6000546001600160a01b0316610206565b6102bc61034d366004611813565b610b19565b6102067f000000000000000000000000000000000000000000000000000000000000000081565b6101cf610387366004611532565b610b53565b6102bc60025481565b6101cf6103a336600461184e565b610c42565b6102bc6103b6366004611885565b610f1e565b6102067f000000000000000000000000000000000000000000000000000000000000000081565b6102bc60035481565b6101cf610f58565b6102266104013660046118f3565b61108a565b606060007f00000000000000000000000000000000000000000000000000000000000000006001600160a01b0316634f367f0f6040518163ffffffff1660e01b81526004016040805180830381865afa158015610467573d6000803e3d6000fd5b505050506040513d601f19601f8201168201806040525081019061048b9190611910565b5060408051600580825260c082019092529192506020820160a080368337019050509150600354826000815181106104c5576104c5611934565b602002602001018181525050600154826001815181106104e7576104e7611934565b602002602001018181525050828260028151811061050757610507611934565b602002602001018181525050838260038151811061052757610527611934565b602002602001018181525050808260048151811061054757610547611934565b6020026020010181815250505092915050565b6000807f0000000000000000000000000000000000000000000000000000000000000000600181111561058f5761058f6114cd565b036105a7576105a0858585856110cd565b90506105ee565b60017f000000000000000000000000000000000000000000000000000000000000000060018111156105db576105db6114cd565b036105ee576105eb858585611107565b90505b949350505050565b6105fe611139565b7f00000000000000000000000000000000000000000000000000000000000000006001600160a01b0316638763d0c46040518163ffffffff1660e01b8152600401602060405180830381865afa15801561065c573d6000803e3d6000fd5b505050506040513d601f19601f82011682018060405250810190610680919061194a565b61069d5760405163f13e1b8560e01b815260040160405180910390fd5b60035460000361072d577f00000000000000000000000000000000000000000000000000000000000000006001600160a01b031663d13181b86040518163ffffffff1660e01b8152600401602060405180830381865afa158015610705573d6000803e3d6000fd5b505050506040513d601f19601f82011682018060405250810190610729919061196c565b6003555b565b610737611139565b6107607f0000000000000000000000000000000000000000000000000000000000000000611166565b6107686105f6565b60007f00000000000000000000000000000000000000000000000000000000000000006001600160a01b031663ac98e5df6040518163ffffffff1660e01b8152600401608060405180830381865afa1580156107c8573d6000803e3d6000fd5b505050506040513d601f19601f820116820180604052508101906107ec9190611985565b505050905060008160026108009190611ade565b90506000816002546108129190611aed565b905060007f00000000000000000000000000000000000000000000000000000000000000006001600160a01b0316634f367f0f6040518163ffffffff1660e01b81526004016040805180830381865afa158015610873573d6000803e3d6000fd5b505050506040513d601f19601f820116820180604052508101906108979190611910565b5090508082106108ba5760405163b3f8c18960e01b815260040160405180910390fd5b6002805460010190556108ce828787610c42565b6108eb576040516341acf34d60e01b815260040160405180910390fd5b5050506001929092555050565b6000807f0000000000000000000000000000000000000000000000000000000000000000600181111561092d5761092d6114cd565b1461094b57604051630280e1e560e61b815260040160405180910390fd5b600061095a858b8b8b8b611203565b905061096461138a565b838152602081018590526109788288610ab4565b604082015260015461098982610f1e565b149b9a5050505050505050505050565b60405163248f667760e01b815260009073__$ce9c2c925f157047e54fa833ec4e61409f$__9063248f6677906109d3908590600401611b04565b602060405180830381865af41580156109f0573d6000803e3d6000fd5b505050506040513d601f19601f82011682018060405250810190610a14919061196c565b92915050565b60007f30644e72e131a029b85045b68181585d2833e84879b9709143e1f593f0000001600283604051602001610a509190611b35565b60408051601f1981840301815290829052610a6a91611b6b565b602060405180830381855afa158015610a87573d6000803e3d6000fd5b5050506040513d601f19601f82011682018060405250810190610aaa919061196c565b610a149190611bb0565b6000610abe6113a8565b838152602081018390526105ee815b6040516314d2f97b60e11b815260009073__$6574937f64fc1d7710ec0e28b7a36713bb$__906329a5f2f6906109d3908590600401611bc4565b610b0f611139565b61072d600061133a565b604051630926f44b60e31b815260009073__$20527677031d76601747626a9845039fe4$__90634937a258906109d3908590600401611bec565b600080610b63858b8b8b8b611203565b905060007f00000000000000000000000000000000000000000000000000000000000000006001811115610b9957610b996114cd565b03610bd557610ba661138a565b610bb08288610ab4565b81526020810185905260408101849052600154610bcc82610f1e565b14925050610c35565b60017f00000000000000000000000000000000000000000000000000000000000000006001811115610c0957610c096114cd565b03610c3557610c166113a8565b610c208288610ab4565b81526020810185905260015461098982610acd565b5098975050505050505050565b60008060007f00000000000000000000000000000000000000000000000000000000000000006001600160a01b031663ac98e5df6040518163ffffffff1660e01b8152600401608060405180830381865afa158015610ca5573d6000803e3d6000fd5b505050506040513d601f19601f82011682018060405250810190610cc99190611985565b93505050915060007f00000000000000000000000000000000000000000000000000000000000000006001600160a01b031663bc14ee2b6040518163ffffffff1660e01b81526004016040805180830381865afa158015610d2e573d6000803e3d6000fd5b505050506040513d601f19601f82011682018060405250810190610d529190611c14565b5090506000610d618888610406565b905060007f00000000000000000000000000000000000000000000000000000000000000006001600160a01b03166310b37e4d846001600160a01b031663652c76e46040518163ffffffff1660e01b8152600401602060405180830381865afa158015610dd2573d6000803e3d6000fd5b505050506040513d601f19601f82011682018060405250810190610df69190611c4e565b87877f00000000000000000000000000000000000000000000000000000000000000006040518563ffffffff1660e01b8152600401610e389493929190611c6b565b600060405180830381865afa158015610e55573d6000803e3d6000fd5b505050506040513d6000823e601f3d908101601f19168201604052610e7d9190810190611d50565b60405163352a4d1560e01b81529091506001600160a01b037f0000000000000000000000000000000000000000000000000000000000000000169063352a4d1590610ed0908a9085908790600401611eae565b602060405180830381865afa158015610eed573d6000803e3d6000fd5b505050506040513d601f19601f82011682018060405250810190610f11919061194a565b9998505050505050505050565b6040516304b98e1d60e31b815260009073__$dc01a9744591ab014bc46a3b7671cdaefb$__906325cc70e8906109d3908590600401611f90565b6000807f00000000000000000000000000000000000000000000000000000000000000006001600160a01b031663ac98e5df6040518163ffffffff1660e01b8152600401608060405180830381865afa158015610fb9573d6000803e3d6000fd5b505050506040513d601f19601f82011682018060405250810190610fdd9190611985565b505050905060007f00000000000000000000000000000000000000000000000000000000000000006001600160a01b0316634f367f0f6040518163ffffffff1660e01b81526004016040805180830381865afa158015611041573d6000803e3d6000fd5b505050506040513d601f19601f820116820180604052508101906110659190611910565b50905080611074836002611ade565b6002546110819190611aed565b10159250505090565b611092611139565b6001600160a01b0381166110c157604051631e4fbdf760e01b8152600060048201526024015b60405180910390fd5b6110ca8161133a565b50565b60006110d761138a565b8381526110e48686610ab4565b6020820152604081018390526001546110fc82610f1e565b149695505050505050565b60006111116113a8565b82815261111e8585610ab4565b602082015260015461112f82610acd565b1495945050505050565b6000546001600160a01b0316331461072d5760405163118cdaa760e01b81523360048201526024016110b8565b600080826001600160a01b0316634909229f6040518163ffffffff1660e01b81526004016040805180830381865afa1580156111a6573d6000803e3d6000fd5b505050506040513d601f19601f820116820180604052508101906111ca9190611910565b909250905060006111db8342611fb8565b90508181116111fd57604051635c3017c560e11b815260040160405180910390fd5b50505050565b600080611211600587611bb0565b905084915060006112206113c6565b60005b8960ff168160ff16101561132d5760005b60058160ff1610156112f757848160ff160361126a5785838260ff166005811061126057611260611934565b60200201526112e7565b848160ff16111561128757611280600182611fcb565b935061128b565b8093505b87878360ff168181106112a0576112a0611934565b90506020028101906112b29190611fe4565b8560ff168181106112c5576112c5611934565b90506020020135838260ff16600581106112e1576112e1611934565b60200201525b6112f081612035565b9050611234565b5061130360058a612054565b985061131060058a611bb0565b935061131b82610b19565b945061132681612035565b9050611223565b5050505095945050505050565b600080546001600160a01b038381166001600160a01b0319831681178455604051919092169283917f8be0079c531659141344cd1fd0a4f28419497f9722a3daafe3b4186f6b6457e09190a35050565b60405180606001604052806003906020820280368337509192915050565b60405180604001604052806002906020820280368337509192915050565b6040518060a001604052806005906020820280368337509192915050565b600080604083850312156113f757600080fd5b50508035926020909101359150565b600081518084526020808501945080840160005b838110156114365781518752958201959082019060010161141a565b509495945050505050565b6020815260006114546020830184611406565b9392505050565b6000806000806080858703121561147157600080fd5b5050823594602084013594506040840135936060013592509050565b806101008101831015610a1457600080fd5b60008061012083850312156114b357600080fd5b823591506114c4846020850161148d565b90509250929050565b634e487b7160e01b600052602160045260246000fd5b6002811061150157634e487b7160e01b600052602160045260246000fd5b9052565b60208101610a1482846114e3565b60ff811681146110ca57600080fd5b803561152d81611513565b919050565b60008060008060008060008060e0898b03121561154e57600080fd5b8835975060208901359650604089013567ffffffffffffffff8082111561157457600080fd5b818b0191508b601f83011261158857600080fd5b81358181111561159757600080fd5b8c60208260051b85010111156115ac57600080fd5b602083019850809750505050606089013593506115cb60808a01611522565b925060a0890135915060c089013590509295985092959890939650565b634e487b7160e01b600052604160045260246000fd5b6040805190810167ffffffffffffffff81118282101715611621576116216115e8565b60405290565b60405160a0810167ffffffffffffffff81118282101715611621576116216115e8565b604051601f8201601f1916810167ffffffffffffffff81118282101715611673576116736115e8565b604052919050565b60006080828403121561168d57600080fd5b82601f83011261169c57600080fd5b6040516080810181811067ffffffffffffffff821117156116bf576116bf6115e8565b6040528060808401858111156116d457600080fd5b845b818110156116ee5780358352602092830192016116d6565b509195945050505050565b600067ffffffffffffffff821115611713576117136115e8565b5060051b60200190565b6000602080838503121561173057600080fd5b823567ffffffffffffffff81111561174757600080fd5b8301601f8101851361175857600080fd5b803561176b611766826116f9565b61164a565b81815260059190911b8201830190838101908783111561178a57600080fd5b928401925b828410156117a85783358252928401929084019061178f565b979650505050505050565b6000604082840312156117c557600080fd5b82601f8301126117d457600080fd5b6117dc6115fe565b8060408401858111156117ee57600080fd5b845b818110156118085780358452602093840193016117f0565b509095945050505050565b600060a0828403121561182557600080fd5b82601f83011261183457600080fd5b61183c611627565b8060a08401858111156117ee57600080fd5b6000806000610140848603121561186457600080fd5b833592506020840135915061187c856040860161148d565b90509250925092565b60006060828403121561189757600080fd5b82601f8301126118a657600080fd5b6040516060810181811067ffffffffffffffff821117156118c9576118c96115e8565b6040528060608401858111156116d457600080fd5b6001600160a01b03811681146110ca57600080fd5b60006020828403121561190557600080fd5b8135611454816118de565b6000806040838503121561192357600080fd5b505080516020909101519092909150565b634e487b7160e01b600052603260045260246000fd5b60006020828403121561195c57600080fd5b8151801515811461145457600080fd5b60006020828403121561197e57600080fd5b5051919050565b6000806000806080858703121561199b57600080fd5b84516119a681611513565b60208601519094506119b781611513565b60408601519093506119c881611513565b60608601519092506119d981611513565b939692955090935050565b634e487b7160e01b600052601160045260246000fd5b600181815b80851115611a35578160001904821115611a1b57611a1b6119e4565b80851615611a2857918102915b93841c93908002906119ff565b509250929050565b600082611a4c57506001610a14565b81611a5957506000610a14565b8160018114611a6f5760028114611a7957611a95565b6001915050610a14565b60ff841115611a8a57611a8a6119e4565b50506001821b610a14565b5060208310610133831016604e8410600b8410161715611ab8575081810a610a14565b611ac283836119fa565b8060001904821115611ad657611ad66119e4565b029392505050565b600061145460ff841683611a3d565b8082028115828204841417610a1457610a146119e4565b60808101818360005b6004811015611b2c578151835260209283019290910190600101611b0d565b50505092915050565b815160009082906020808601845b83811015611b5f57815185529382019390820190600101611b43565b50929695505050505050565b6000825160005b81811015611b8c5760208186018101518583015201611b72565b506000920191825250919050565b634e487b7160e01b600052601260045260246000fd5b600082611bbf57611bbf611b9a565b500690565b60408101818360005b6002811015611b2c578151835260209283019290910190600101611bcd565b60a08101818360005b6005811015611b2c578151835260209283019290910190600101611bf5565b60008060408385031215611c2757600080fd5b8251611c32816118de565b6020840151909250611c43816118de565b809150509250929050565b600060208284031215611c6057600080fd5b815161145481611513565b60ff858116825284811660208301528316604082015260808101611c9260608301846114e3565b95945050505050565b600060408284031215611cad57600080fd5b611cb56115fe565b9050815181526020820151602082015292915050565b600082601f830112611cdc57600080fd5b611ce46115fe565b806040840185811115611cf657600080fd5b845b81811015611808578051845260209384019301611cf8565b600060808284031215611d2257600080fd5b611d2a6115fe565b9050611d368383611ccb565b8152611d458360408401611ccb565b602082015292915050565b60006020808385031215611d6357600080fd5b825167ffffffffffffffff80821115611d7b57600080fd5b908401906101e08287031215611d9057600080fd5b611d98611627565b611da28784611c9b565b81526040611db288828601611d10565b85830152611dc38860c08601611d10565b81830152611dd5886101408601611d10565b60608301526101c084015183811115611ded57600080fd5b80850194505087601f850112611e0257600080fd5b83519250611e12611766846116f9565b83815260069390931b84018501928581019089851115611e3157600080fd5b948601945b84861015611e5757611e488a87611c9b565b82529482019490860190611e36565b60808401525090979650505050505050565b8060005b60028110156111fd578151845260209384019390910190600101611e6d565b611e97828251611e69565b6020810151611ea96040840182611e69565b505050565b6000610140610100808785378181850152506103208301611edc828501875180518252602090810151910152565b6020915081860151611ef2610180860182611e8c565b50604080870151611f07610200870182611e8c565b506060870151611f1b610280870182611e8c565b5060808701516101e06103008701528051928390528301916000906103408701905b80831015611f6e57611f5a82865180518252602090810151910152565b938501936001929092019190830190611f3d565b50868103610120880152611f828189611406565b9a9950505050505050505050565b60608101818360005b6003811015611b2c578151835260209283019290910190600101611f99565b81810381811115610a1457610a146119e4565b60ff8281168282160390811115610a1457610a146119e4565b6000808335601e19843603018112611ffb57600080fd5b83018035915067ffffffffffffffff82111561201657600080fd5b6020019150600581901b360382131561202e57600080fd5b9250929050565b600060ff821660ff810361204b5761204b6119e4565b60010192915050565b60008261206357612063611b9a565b50049056fea2646970667358221220f2ad250b565f7dd1cc708fb7d91209d296f1e4853c72a9b11655df4508eff38964736f6c63430008140033a264697066735822122039c5fac0d4505bda0636184d01d34aa5d65bd0057e57097b7d26c38a9ecf29af64736f6c63430008140033",
  "libraries": {
    "PoseidonT3": "0xd94b9aE62067cE0A7703bcCCEF792DE74428B348",
    "PoseidonT4": "0x1911643B982B37779F1C1d65900FC42499240066",
    "PoseidonT5": "0x33764231F52fFF5fF2E2331E295ec8Ff67ffe8B8",
    "PoseidonT6": "0x70a6520eB5AAA0776f7f766Ff2D6eEa6CB3AAcF9"
  }
}