{
  "address": "0x43E2282f852a98C620ddC264c16436697AAEae49",
  "abi": [
    {
      "inputs": [],
      "name": "InvalidInputVal",
      "type": "error"
    },
    {
      "inputs": [],
      "name": "InvalidProofQ",
      "type": "error"
    },
    {
      "inputs": [],
      "name": "PairingAddFailed",
      "type": "error"
    },
    {
      "inputs": [],
      "name": "PairingMulFailed",
      "type": "error"
    },
    {
      "inputs": [],
      "name": "PairingOpcodeFailed",
      "type": "error"
    },
    {
      "inputs": [],
      "name": "PRIME_Q",
      "outputs": [
        {
          "internalType": "uint256",
          "name": "",
          "type": "uint256"
        }
      ],
      "stateMutability": "view",
      "type": "function"
    },
    {
      "inputs": [
        {
          "internalType": "uint256[8]",
          "name": "_proof",
          "type": "uint256[8]"
        },
        {
          "components": [
            {
              "components": [
                {
                  "internalType": "uint256",
                  "name": "x",
                  "type": "uint256"
                },
                {
                  "internalType": "uint256",
                  "name": "y",
                  "type": "uint256"
                }
              ],
              "internalType": "struct Pairing.G1Point",
              "name": "alpha1",
              "type": "tuple"
            },
            {
              "components": [
                {
                  "internalType": "uint256[2]",
                  "name": "x",
                  "type": "uint256[2]"
                },
                {
                  "internalType": "uint256[2]",
                  "name": "y",
                  "type": "uint256[2]"
                }
              ],
              "internalType": "struct Pairing.G2Point",
              "name": "beta2",
              "type": "tuple"
            },
            {
              "components": [
                {
                  "internalType": "uint256[2]",
                  "name": "x",
                  "type": "uint256[2]"
                },
                {
                  "internalType": "uint256[2]",
                  "name": "y",
                  "type": "uint256[2]"
                }
              ],
              "internalType": "struct Pairing.G2Point",
              "name": "gamma2",
              "type": "tuple"
            },
            {
              "components": [
                {
                  "internalType": "uint256[2]",
                  "name": "x",
                  "type": "uint256[2]"
                },
                {
                  "internalType": "uint256[2]",
                  "name": "y",
                  "type": "uint256[2]"
                }
              ],
              "internalType": "struct Pairing.G2Point",
              "name": "delta2",
              "type": "tuple"
            },
            {
              "components": [
                {
                  "internalType": "uint256",
                  "name": "x",
                  "type": "uint256"
                },
                {
                  "internalType": "uint256",
                  "name": "y",
                  "type": "uint256"
                }
              ],
              "internalType": "struct Pairing.G1Point[]",
              "name": "ic",
              "type": "tuple[]"
            }
          ],
          "internalType": "struct SnarkCommon.VerifyingKey",
          "name": "vk",
          "type": "tuple"
        },
        {
          "internalType": "uint256[]",
          "name": "inputs",
          "type": "uint256[]"
        }
      ],
      "name": "verify",
      "outputs": [
        {
          "internalType": "bool",
          "name": "isValid",
          "type": "bool"
        }
      ],
      "stateMutability": "view",
      "type": "function"
    }
  ],
  "transactionHash": "0xe594a6d7db05735d230fa7539f615bc3d4cf89e72bf69afb058d5bac5a60e95b",
  "args": [],
  "numDeployments": 1,
  "bytecode": "0x608060405234801561001057600080fd5b50610d0f806100206000396000f3fe608060405234801561001057600080fd5b50600436106100365760003560e01c8063352a4d151461003b5780638d53290814610063575b600080fd5b61004e610049366004610a89565b610086565b60405190151581526020015b60405180910390f35b610078600080516020610cba83398151915281565b60405190815260200161005a565b600061009061073e565b6040805180820182528751815260208089015181830152908352815160808082018452898401518285019081526060808c015190840152825283518085018552908a0151815260a08a01518184015281830152838201528151808301835260c0890151815260e08901519181019190915290820152805151610111906102be565b805160200151610120906102be565b6020810151516101379060005b60200201516102be565b602080820151015161014a90600061012d565b60208101515161015b90600161012d565b602080820151015161016e90600161012d565b60408101515161017d906102be565b61018e8160400151602001516102be565b6040805180820190915260008082526020820181905284905b818110156102535760008787838181106101c3576101c3610c03565b9050602002013590507f30644e72e131a029b85045b68181585d2833e84879b9709143e1f593f0000001811061020c5760405163076be92360e31b815260040160405180910390fd5b610248846102438b608001518560016102259190610c2f565b8151811061023557610235610c03565b6020026020010151846102ef565b610361565b9350506001016101a7565b5061027c82886080015160008151811061026f5761026f610c03565b6020026020010151610361565b91506102b261028e84600001516103d9565b846020015189600001518a60200151868c6040015189604001518e6060015161046f565b98975050505050505050565b600080516020610cba83398151915281106102ec576040516308f69c9160e01b815260040160405180910390fd5b50565b604080518082019091526000808252602082015261030b61078f565b835181526020808501519082015260408101839052600060608360808460076107d05a03fa9050808061033a57fe5b5080610359576040516372ffac5560e11b815260040160405180910390fd5b505092915050565b604080518082019091526000808252602082015261037d6107ad565b8351815260208085015181830152835160408301528301516060808301919091526000908360c08460066107d05a03fa905080806103b757fe5b50806103595760405160016203c15f60e01b0319815260040160405180910390fd5b604080518082019091526000808252602082015281511580156103fe57506020820151155b1561041c575050604080518082019091526000808252602082015290565b604051806040016040528083600001518152602001600080516020610cba833981519152846020015161044f9190610c48565b61046790600080516020610cba833981519152610c6a565b905292915050565b60006104796107cb565b898152602081018890526040810186905260608101849052610499610804565b898152602081018890526040808201879052606082018590528051601880825261032082019092526000908281602001602082028036833701905050905060005b60048160ff1610156106e25760006104f3826006610c7d565b9050858260ff166004811061050a5761050a610c03565b6020020151518361051c836000610ca0565b60ff168151811061052f5761052f610c03565b602002602001018181525050858260ff166004811061055057610550610c03565b602002015160200151838260016105679190610ca0565b60ff168151811061057a5761057a610c03565b602002602001018181525050848260ff166004811061059b5761059b610c03565b60200201515151836105ae836002610ca0565b60ff16815181106105c1576105c1610c03565b602002602001018181525050848260ff16600481106105e2576105e2610c03565b60200201515160016020020151836105fb836003610ca0565b60ff168151811061060e5761060e610c03565b602002602001018181525050848260ff166004811061062f5761062f610c03565b60200201516020015160006002811061064a5761064a610c03565b60200201518361065b836004610ca0565b60ff168151811061066e5761066e610c03565b602002602001018181525050848260ff166004811061068f5761068f610c03565b6020020151602001516001600281106106aa576106aa610c03565b6020020151836106bb836005610ca0565b60ff16815181106106ce576106ce610c03565b6020908102919091010152506001016104da565b506106eb610831565b6000602082602086026020860160086107d05a03fa9050808061070a57fe5b508061072957604051630143d56760e11b815260040160405180910390fd5b505115159d9c50505050505050505050505050565b6040805160a08101909152600060608201818152608083019190915281526020810161076861084f565b815260200161078a604051806040016040528060008152602001600081525090565b905290565b60405180606001604052806003906020820280368337509192915050565b60405180608001604052806004906020820280368337509192915050565b60405180608001604052806004905b60408051808201909152600080825260208201528152602001906001900390816107da5790505090565b60405180608001604052806004905b61081b61084f565b8152602001906001900390816108135790505090565b60405180602001604052806001906020820280368337509192915050565b604051806040016040528061086261086b565b815260200161078a5b60405180604001604052806002906020820280368337509192915050565b634e487b7160e01b600052604160045260246000fd5b6040805190810167ffffffffffffffff811182821017156108c2576108c2610889565b60405290565b60405160a0810167ffffffffffffffff811182821017156108c2576108c2610889565b604051601f8201601f1916810167ffffffffffffffff8111828210171561091457610914610889565b604052919050565b600060405161010080820182811067ffffffffffffffff8211171561094357610943610889565b604052909150819083018481111561095a57600080fd5b835b8181101561097457803583526020928301920161095c565b50505092915050565b60006040828403121561098f57600080fd5b61099761089f565b9050813581526020820135602082015292915050565b600082601f8301126109be57600080fd5b6109c661089f565b8060408401858111156109d857600080fd5b845b818110156109f25780358452602093840193016109da565b509095945050505050565b600060808284031215610a0f57600080fd5b610a1761089f565b9050610a2383836109ad565b8152610a3283604084016109ad565b602082015292915050565b60008083601f840112610a4f57600080fd5b50813567ffffffffffffffff811115610a6757600080fd5b6020830191508360208260051b8501011115610a8257600080fd5b9250929050565b600080600080610140808688031215610aa157600080fd5b86601f870112610ab057600080fd5b610aba878761091c565b945061010086013567ffffffffffffffff80821115610ad857600080fd5b908701906101e0828a031215610aed57600080fd5b610af56108c8565b610aff8a8461097d565b81526040610b0f8b8286016109fd565b60208181850152610b238d60c088016109fd565b83850152610b338d8888016109fd565b60608501526101c0860135965084871115610b4d57600080fd5b86860196508c601f880112610b6157600080fd5b8635955084861115610b7557610b75610889565b610b83818760051b016108eb565b86815260069690961b870181019581810192508d871115610ba357600080fd5b968101965b86881015610bc957610bba8e8961097d565b83529683019691810191610ba8565b6080850152509197505050610120880135925080831115610be957600080fd5b5050610bf787828801610a3d565b95989497509550505050565b634e487b7160e01b600052603260045260246000fd5b634e487b7160e01b600052601160045260246000fd5b80820180821115610c4257610c42610c19565b92915050565b600082610c6557634e487b7160e01b600052601260045260246000fd5b500690565b81810381811115610c4257610c42610c19565b60ff8181168382160290811690818114610c9957610c99610c19565b5092915050565b60ff8181168382160190811115610c4257610c42610c1956fe30644e72e131a029b85045b68181585d97816a916871ca8d3c208c16d87cfd47a264697066735822122095a53bb7331dc696663f0f1b278d854a964e5ad665a835f55a467ae2b1badaf964736f6c63430008140033"
}