{
  "address": "0x480F765D0e7779BFf7e4154f206110f2D95c3238",
  "abi": [
    {
      "anonymous": false,
      "inputs": [
        {
          "indexed": false,
          "internalType": "uint256",
          "name": "drnId",
          "type": "uint256"
        },
        {
          "indexed": false,
          "internalType": "string",
          "name": "newCurrentVersion",
          "type": "string"
        }
      ],
      "name": "CurrentVersionUpdated",
      "type": "event"
    },
    {
      "anonymous": false,
      "inputs": [
        {
          "indexed": false,
          "internalType": "uint256",
          "name": "drnId",
          "type": "uint256"
        },
        {
          "indexed": false,
          "internalType": "string",
          "name": "proposedVersion",
          "type": "string"
        }
      ],
      "name": "ProposedVersionUpdated",
      "type": "event"
    },
    {
      "anonymous": false,
      "inputs": [
        {
          "indexed": false,
          "internalType": "uint256",
          "name": "drnId",
          "type": "uint256"
        },
        {
          "indexed": false,
          "internalType": "string",
          "name": "currentVersion",
          "type": "string"
        },
        {
          "indexed": false,
          "internalType": "address",
          "name": "proposer",
          "type": "address"
        }
      ],
      "name": "ResourceCreated",
      "type": "event"
    },
    {
      "inputs": [
        {
          "internalType": "uint256",
          "name": "",
          "type": "uint256"
        }
      ],
      "name": "Resources",
      "outputs": [
        {
          "internalType": "string",
          "name": "currentVersion",
          "type": "string"
        },
        {
          "internalType": "string",
          "name": "proposedVersion",
          "type": "string"
        },
        {
          "internalType": "uint8",
          "name": "status",
          "type": "uint8"
        },
        {
          "internalType": "address",
          "name": "proposer",
          "type": "address"
        },
        {
          "internalType": "address",
          "name": "coordinator",
          "type": "address"
        }
      ],
      "stateMutability": "view",
      "type": "function"
    },
    {
      "inputs": [
        {
          "internalType": "address",
          "name": "",
          "type": "address"
        }
      ],
      "name": "ResourcesByCoordinator",
      "outputs": [
        {
          "internalType": "string",
          "name": "currentVersion",
          "type": "string"
        },
        {
          "internalType": "string",
          "name": "proposedVersion",
          "type": "string"
        },
        {
          "internalType": "uint8",
          "name": "status",
          "type": "uint8"
        },
        {
          "internalType": "address",
          "name": "proposer",
          "type": "address"
        },
        {
          "internalType": "address",
          "name": "coordinator",
          "type": "address"
        }
      ],
      "stateMutability": "view",
      "type": "function"
    },
    {
      "inputs": [
        {
          "internalType": "uint256",
          "name": "_drnId",
          "type": "uint256"
        },
        {
          "internalType": "uint8",
          "name": "_acceptFail",
          "type": "uint8"
        }
      ],
      "name": "acceptProposedVersion",
      "outputs": [],
      "stateMutability": "nonpayable",
      "type": "function"
    },
    {
      "inputs": [
        {
          "internalType": "uint256",
          "name": "_drnId",
          "type": "uint256"
        },
        {
          "internalType": "string",
          "name": "_currentVersion",
          "type": "string"
        }
      ],
      "name": "createResource",
      "outputs": [],
      "stateMutability": "nonpayable",
      "type": "function"
    },
    {
      "inputs": [
        {
          "internalType": "uint256",
          "name": "_drnId",
          "type": "uint256"
        }
      ],
      "name": "getCurrentVersion",
      "outputs": [
        {
          "internalType": "string",
          "name": "",
          "type": "string"
        }
      ],
      "stateMutability": "view",
      "type": "function"
    },
    {
      "inputs": [
        {
          "internalType": "uint256",
          "name": "_drnId",
          "type": "uint256"
        },
        {
          "internalType": "string",
          "name": "_proposedVersion",
          "type": "string"
        },
        {
          "internalType": "address",
          "name": "_proposer",
          "type": "address"
        }
      ],
      "name": "updateProposedVersion",
      "outputs": [],
      "stateMutability": "nonpayable",
      "type": "function"
    }
  ],
  "transactionHash": "0xb31b73ed36f9df742809c67375983072a66caf8b774b5f8ce34256e5556e5c96",
  "args": [],
  "numDeployments": 2,
  "solcInputHash": "dafbb58bf88fe666a7331f7ffb69140d",
  "bytecode": "0x6080806040523461001657610d1a908161001c8239f35b600080fdfe6040608081526004908136101561001557600080fd5b600091823560e01c80630eaacfd5146108ff578063b1bfe11214610579578063b855068f14610320578063cf79ed2514610116578063d983f8c7146100a55763e715463c1461006357600080fd5b346100a15760203660031901126100a1578161009d9361008a9235815280602052206109d1565b9051918291602083526020830190610a77565b0390f35b8280fd5b50346100a15760203660031901126100a1576001600160a01b03919035828116908190036101125790808461009d9360ff96526001602052206100e7816109d1565b6100f3600183016109d1565b85600360028501549401541693519687968460081c1693169186610ab7565b8380fd5b50346100a157816003193601126100a1578035916024359160ff831680930361031c57838552602090858252610156600260ff81868a2001541614610bb9565b84865285825260019061016d82858920015461095f565b156102d9575084865285825261018883872082810190610c05565b8486528582526000818488200161019f815461095f565b601f81116102bb575b50558486528582528286206002810160ff1995868254161790558351958652838387015286948154906101da8261095f565b8096890152838216918260001461027557505060011461021f575b867f2a9180ee302337d5656a9436092cb1fbceb115271e4ff2719e873c737f27c0c887870388a180f35b86528186208694505b83851061026157505050508101606001817f2a9180ee302337d5656a9436092cb1fbceb115271e4ff2719e873c737f27c0c838806101f5565b805486860160600152938201938101610228565b91509150869550606093507f2a9180ee302337d5656a9436092cb1fbceb115271e4ff2719e873c737f27c0c8969492501682840152151560051b820101919238806101f5565b8189528489206102d391601f0160051c810190610b5d565b386101a8565b835162461bcd60e51b8152908101839052601d60248201527f4e6f2070726f706f7365642076657273696f6e20746f206163636570740000006044820152606490fd5b8480fd5b509190346105755760603660031901126105755782356024359167ffffffffffffffff9283811161031c576103589036908701610b01565b946001600160a01b0393604435919085831683036105715784875260209587875261038d600260ff81888c2001541614610bb9565b85885287875260038589200154163303610515578487528686526001808589200192895192831161050257506103cd826103c7855461095f565b85610b74565b86601f831160011461047757928280610453948b9c979461046699977f9e36fb4e79b889bd950af6c3b81805254b2fc4ecc5c043f1b1cc5d6cc62203d19d9361046c575b501b916000199060031b1c19161790555b8589528887528289206002018054610100600160a81b03191660089290921b610100600160a81b0316919091179055565b8080519586958652850152830190610a77565b0390a180f35b890151925038610411565b83895287892091929190601f1983168a5b8181106104ed5750926104669795926104539592827f9e36fb4e79b889bd950af6c3b81805254b2fc4ecc5c043f1b1cc5d6cc62203d19d9e9996106104d4575b5050811b019055610422565b88015160001960f88460031b161c1916905538806104c8565b8c830151845592850192918a01918a01610488565b634e487b7160e01b895260419052602488fd5b835162461bcd60e51b8152808301879052603060248201527f4f6e6c7920636f6f7264696e61746f722063616e20757064617465207468652060448201526f383937b837b9b2b2103b32b939b4b7b760811b6064820152608490fd5b8680fd5b5080fd5b5091903461057557806003193601126105755782356024359167ffffffffffffffff9283811161031c576105b09036908701610b01565b82855260209385855260ff60028488200154166108bc57825160a08101818110838211176108a9578452828152835190868201828110848211176108965785528782528681019182528481016002815260608201928984526080830194338652888b528a8a52878b209351805190828211610882578c829161063c836106368a5461095f565b8a610b74565b8d91601f841160011461081e5792610813575b50508160011b916000199060031b1c19161784555b6001840191519b8c51918211610800575061068981610683845461095f565b84610b74565b899b601f821160011461076a5792610753979695949282610723938e9f7f85908f9f6232b3ae6844d7021d899ceaaf21e00714058f35199f27dc5aef82829f976003989261075f575b50508160011b9160001990881b1c19161790555b516002830180549551610100600160a81b0360089190911b1660ff9092166001600160a81b031990961695909517179093556001600160a01b0392565b019151166bffffffffffffffffffffffff60a01b8254161790556060835195869586528501526060840190610a77565b9033908301520390a180f35b0151905038806106d2565b828c528a8c209c90601f1983168d5b8181106107e45750837f85908f9f6232b3ae6844d7021d899ceaaf21e00714058f35199f27dc5aef82829e9f600397946107539c9b9a99979461072397600195106107cc575b505050811b0190556106e6565b0151600019838a1b60f8161c191690553880806107bf565b919e8f60018f928684930151815501940192019e91929e610779565b634e487b7160e01b8c526041905260248bfd5b01519050388061064f565b8881528e81209350601f198516908f5b82821061086b575050908460019594939210610852575b505050811b018455610664565b015160001960f88460031b161c19169055388080610845565b60018596829396860151815501950193018f61082e565b50634e487b7160e01b8c5260418d5260248cfd5b634e487b7160e01b895260418a52602489fd5b634e487b7160e01b885260418952602488fd5b825162461bcd60e51b8152808801869052601760248201527f5265736f7572636520616c7265616479206578697374730000000000000000006044820152606490fd5b50346100a15760203660031901126100a1578160039260ff9461009d93358152806020522061092d816109d1565b610939600183016109d1565b60028301549260018060a01b0396879101541693519687968460081c1693169186610ab7565b90600182811c9216801561098f575b602083101461097957565b634e487b7160e01b600052602260045260246000fd5b91607f169161096e565b90601f8019910116810190811067ffffffffffffffff8211176109bb57604052565b634e487b7160e01b600052604160045260246000fd5b90604051918260008254926109e58461095f565b908184526001948581169081600014610a545750600114610a11575b5050610a0f92500383610999565b565b9093915060005260209081600020936000915b818310610a3c575050610a0f93508201013880610a01565b85548884018501529485019487945091830191610a24565b915050610a0f94506020925060ff191682840152151560051b8201013880610a01565b919082519283825260005b848110610aa3575050826000602080949584010152601f8019910116010190565b602081830181015184830182015201610a82565b9391610ae460ff91610ad660809699989460a0895260a0890190610a77565b908782036020890152610a77565b961660408501526001600160a01b03918216606085015216910152565b81601f82011215610b585780359067ffffffffffffffff82116109bb5760405192610b36601f8401601f191660200185610999565b82845260208383010111610b5857816000926020809301838601378301015290565b600080fd5b818110610b68575050565b60008155600101610b5d565b9190601f8111610b8357505050565b610a0f926000526020600020906020601f840160051c83019310610baf575b601f0160051c0190610b5d565b9091508190610ba2565b15610bc057565b60405162461bcd60e51b815260206004820152601860248201527f5265736f7572636520616c726561647920736574746c656400000000000000006044820152606490fd5b90808214610ce057610c17815461095f565b9067ffffffffffffffff82116109bb578190610c3d82610c37865461095f565b86610b74565b600090601f8311600114610c7457600092610c69575b50508160011b916000199060031b1c1916179055565b015490503880610c53565b81526020808220858352818320935090601f1985169083905b828210610cc7575050908460019594939210610cae575b505050811b019055565b015460001960f88460031b161c19169055388080610ca4565b8495819295850154815560018091019601940190610c8d565b505056fea2646970667358221220b11991ad5db7a59581a320cce01755b81d50f55852f34e9d96601874527d430264736f6c63430008140033",
  "devdoc": {
    "kind": "dev",
    "methods": {},
    "version": 1
  },
  "userdoc": {
    "kind": "user",
    "methods": {},
    "version": 1
  },
  "storageLayout": {
    "storage": [
      {
        "astId": 195,
        "contract": "contracts/clr-contracts/CLR.sol:CLR",
        "label": "Resources",
        "offset": 0,
        "slot": "0",
        "type": "t_mapping(t_uint256,t_struct(Resource)190_storage)"
      },
      {
        "astId": 200,
        "contract": "contracts/clr-contracts/CLR.sol:CLR",
        "label": "ResourcesByCoordinator",
        "offset": 0,
        "slot": "1",
        "type": "t_mapping(t_address,t_struct(Resource)190_storage)"
      }
    ],
    "types": {
      "t_address": {
        "encoding": "inplace",
        "label": "address",
        "numberOfBytes": "20"
      },
      "t_mapping(t_address,t_struct(Resource)190_storage)": {
        "encoding": "mapping",
        "key": "t_address",
        "label": "mapping(address => struct CLR.Resource)",
        "numberOfBytes": "32",
        "value": "t_struct(Resource)190_storage"
      },
      "t_mapping(t_uint256,t_struct(Resource)190_storage)": {
        "encoding": "mapping",
        "key": "t_uint256",
        "label": "mapping(uint256 => struct CLR.Resource)",
        "numberOfBytes": "32",
        "value": "t_struct(Resource)190_storage"
      },
      "t_string_storage": {
        "encoding": "bytes",
        "label": "string",
        "numberOfBytes": "32"
      },
      "t_struct(Resource)190_storage": {
        "encoding": "inplace",
        "label": "struct CLR.Resource",
        "members": [
          {
            "astId": 181,
            "contract": "contracts/clr-contracts/CLR.sol:CLR",
            "label": "currentVersion",
            "offset": 0,
            "slot": "0",
            "type": "t_string_storage"
          },
          {
            "astId": 183,
            "contract": "contracts/clr-contracts/CLR.sol:CLR",
            "label": "proposedVersion",
            "offset": 0,
            "slot": "1",
            "type": "t_string_storage"
          },
          {
            "astId": 185,
            "contract": "contracts/clr-contracts/CLR.sol:CLR",
            "label": "status",
            "offset": 0,
            "slot": "2",
            "type": "t_uint8"
          },
          {
            "astId": 187,
            "contract": "contracts/clr-contracts/CLR.sol:CLR",
            "label": "proposer",
            "offset": 1,
            "slot": "2",
            "type": "t_address"
          },
          {
            "astId": 189,
            "contract": "contracts/clr-contracts/CLR.sol:CLR",
            "label": "coordinator",
            "offset": 0,
            "slot": "3",
            "type": "t_address"
          }
        ],
        "numberOfBytes": "128"
      },
      "t_uint256": {
        "encoding": "inplace",
        "label": "uint256",
        "numberOfBytes": "32"
      },
      "t_uint8": {
        "encoding": "inplace",
        "label": "uint8",
        "numberOfBytes": "1"
      }
    }
  }
}