{
  "address": "0x1EDED83B62Fca2f189dA40f370F0f925B5Ccd005",
  "abi": [
    {
      "inputs": [],
      "name": "getIPFSHash",
      "outputs": [
        {
          "internalType": "string",
          "name": "",
          "type": "string"
        }
      ],
      "stateMutability": "view",
      "type": "function"
    },
    {
      "inputs": [
        {
          "internalType": "string",
          "name": "_ipfsHash",
          "type": "string"
        }
      ],
      "name": "setIPFSHash",
      "outputs": [],
      "stateMutability": "nonpayable",
      "type": "function"
    }
  ],
  "transactionHash": "0x5f39859a7d59861e7443ee6be32b39dd9d5539830f33a10d6adba1d8717c7b7b",
  "args": [],
  "numDeployments": 1,
  "solcInputHash": "6082b31528aa4d858bf91a59cd10c25f",
  "bytecode": "0x6080806040523461001657610383908161001c8239f35b600080fdfe6080604090808252600436101561001557600080fd5b600090813560e01c90816320b28ade146101d6575063b8a76f541461003957600080fd5b346101d3576020806003193601126101cf5767ffffffffffffffff6004358181116101cb57366023820112156101cb578060040135948286116101b357805195601f199261008e601f830185168701896102db565b81885236602483830101116101c7578187926024889301838b01378801015233855284845284209285519283116101b3576100c98454610313565b601f8111610170575b508091601f841160011461010f575050839482939492610104575b50508160011b916000199060031b1c191617905580f35b0151905038806100ed565b8392919216958486528286209286905b8882106101585750508360019596971061013f575b505050811b01905580f35b015160001960f88460031b161c19169055388080610134565b8060018596829496860151815501950193019061011f565b848652818620601f850160051c8101918386106101a9575b601f0160051c01905b81811061019e57506100d2565b868155600101610191565b9091508190610188565b634e487b7160e01b85526041600452602485fd5b8680fd5b8380fd5b5080fd5b80fd5b839150346102d757826003193601126102d75733835260209280845283828483208390805461020481610313565b808552916001918083169081156102b45750600114610277575b50505061023192509593929503826102db565b82519382859384528251928382860152825b84811061026157505050828201840152601f01601f19168101030190f35b8181018301518882018801528795508201610243565b86528486209492508591905b81831061029c575088945050820101610231888061021e565b85548884018501529485019487945091830191610283565b9250505061023194925060ff191682840152151560051b8201018692888061021e565b8280fd5b90601f8019910116810190811067ffffffffffffffff8211176102fd57604052565b634e487b7160e01b600052604160045260246000fd5b90600182811c92168015610343575b602083101461032d57565b634e487b7160e01b600052602260045260246000fd5b91607f169161032256fea2646970667358221220fc35be66a1ece80f7248b6632e0e9ba9345c477a0ddf8c735bb69ef205354a7b64736f6c63430008140033",
  "devdoc": {
    "kind": "dev",
    "methods": {},
    "version": 1
  },
  "userdoc": {
    "kind": "user",
    "methods": {},
    "version": 1
  },
  "storageLayout": {
    "storage": [
      {
        "astId": 183,
        "contract": "contracts/clr-contracts/CLR.sol:CLR",
        "label": "ipfsHashes",
        "offset": 0,
        "slot": "0",
        "type": "t_mapping(t_address,t_string_storage)"
      }
    ],
    "types": {
      "t_address": {
        "encoding": "inplace",
        "label": "address",
        "numberOfBytes": "20"
      },
      "t_mapping(t_address,t_string_storage)": {
        "encoding": "mapping",
        "key": "t_address",
        "label": "mapping(address => string)",
        "numberOfBytes": "32",
        "value": "t_string_storage"
      },
      "t_string_storage": {
        "encoding": "bytes",
        "label": "string",
        "numberOfBytes": "32"
      }
    }
  }
}